:107C00000C94403E0C945D3E0C945D3E0C945D3EA5
:107C10000C945D3E0C945D3E0C945D3E0C945D3E78
:107C20000C945D3E0C945D3E0C945D3E0C945D3E68
:107C30000C945D3E0C945D3E0C945D3E0C945D3E58
:107C40000C945D3E0C945D3E0C945D3E0C945D3E48
:107C50000C945D3E0C945D3E0C945D3E0C945D3E38
:107C60000C945D3E0C945D3E0D0A7777772E656926
:107C7000742E73652F6861626C2F312E390D0A00E6
:107C800011241FBECFEFD8E0DEBFCDBF11E0A0E0D2
:107C9000B1E0E8EBFFE702C005900D92A230B1071A
:107CA000D9F722E0A2E0B1E001C01D92AE30B207E8
:107CB000E1F70E94813F0C94DA3F0C94003EE0EC27
:107CC000F0E08081826080831092C50087E6809317
:107CD000C40088E18093C1008EE08093C200589A6E
:107CE00008959091C00095FD02C0A895FACF8093A9
:107CF000C60008958091C00087FD04C0A8958FEF4D
:107D00009FEF08958091C60090E00895CF93DF9390
:107D1000FC018491EF012196882321F00E94713E9D
:107D2000FE01F7CFDF91CF910895CF92DF92EF92CE
:107D3000FF9280E4C82E82E4D82E8FE0E82EF12C4A
:107D40000E947A3E97FF08C081E0C81AD108E10876
:107D5000F108B1F78FEF9FEFFF90EF90DF90CF909A
:107D60000895EF92FF920F931F93CF93DF930E949A
:107D7000953E019721F083E40E94713EF8CF03E025
:107D800011E1FF24F39475E0E72EC0910001D0E0EB
:107D90000E94953E9927C817D90709F095C00E94FF
:107DA000953E80959091000189138EC01092090133
:107DB000109208010E94953E90930D0280930C0250
:107DC00097FD82C02091080130910901F901E45723
:107DD000FE4F8083C90101969093090180930801A9
:107DE0008038910539F70E94953E0E94953ECCE877
:107DF000D1E08091040190910501FC01E65FFE4F06
:107E00002991208301969093050180930401803885
:107E1000910508F449C0409106015091070141388D
:107E20008BE7580708F05AC0FA0100935700E8950D
:107E300007B606FE04C010935700E895F9CFAAE0F4
:107E4000B1E020E030E0F901E40FF51F2038310502
:107E5000A1F0EF77FF2711968C91119790E0982F62
:107E600088276C91860F911D0C01F0925700E895C0
:107E700011242E5F3F4F1296E6CFF0930701E09357
:107E8000060130938B0120938A013197E0925700CD
:107E9000E89507B606FE04C010935700E895F9CFA1
:107EA0001092050110920401F2E0CC30DF0709F0D6
:107EB000A0CF86E014C00497D1F00E94953E97FFB2
:107EC000FCCF85E10E94713E0E94953E90930D0289
:107ED00080930C028130910571F757CF85E10E94A4
:107EE000713E809100018F5F80930001EDCF86E0AD
:107EF0000E94713E80E090E0CDB7DEB7E6E00C94E2
:107F0000CB3FCF92DF92EF92FF92CF930E945F3EE2
:107F10009FE088E10FB6F894A895809360000FBEAB
:107F20009093600088E69CE70E94863E80E8C82E19
:107F30008FE4D82E82E1E82EF12CC0E00E947A3E38
:107F40008B31910511F4CF5F03C01816190654F058
:107F500081E0C81AD108E108F10881F7C53011F4B1
:107F60000E94B13EE0910201F0910301099580E089
:107F700090E0CF91FF90EF90DF90CF9008952A8806
:107F8000398848885F846E847D848C849B84AA842D
:107F9000B984C884DF80EE80FD800C811B81AA81BA
:107FA000B981CE0FD11D0FB6F894DEBF0FBECDBF85
:087FB000ED010895F894FFCFE4
:027FB8000100C6
:0400000300007C007D
:00000001FF
