:100000000C9412010C942F010C942F010C942F01CD
:100010000C942F010C942F010C942F010C9490013F
:100020000C942F010C94CF010C942F010C942F01F0
:100030000C942F010C942F010C942F010C942F0180
:100040000C942F010C942F010C942E030C942F016F
:100050000C94E7020C9496040C942F010C942F013D
:100060000C942F010C942F019809A609040A0B0A7D
:100070001E0A550A5A0AC60A746D72310D0A000D1D
:100080000A00415353455254200074696D656F75E1
:10009000740D0A000D0A0076200072657374617297
:1000A000740D0A0072656368617267650D0A0072FB
:1000B000656368617267650D0A00656D7074790D1E
:1000C0000A0066756C6C0D0A006368617267650DE5
:1000D0000A00706F7765720D0A000D0A00574454CC
:1000E00043535220006D656469616E0D0A006265BC
:1000F00065700D0A006661696C0D0A0072656164C5
:10010000790D0A006F66660D0A006F6E0D0A0068B1
:100110006974206F66660D0A00686974206F6E0D41
:100120000A00766962206F66660D0A0076696220B1
:100130006F6E0D0A000D0A00726164696F2000671E
:10014000616D650D0A006176725F7370695F696E3B
:1001500069740D0A000D0A0072785F70775F703065
:10016000200072656164696E670D0A000D0A005215
:100170006567200064656661756C740D0A000D0A80
:10018000007265636569766564200073656E74202E
:100190006F6B20286C617465290D0A006D61785FB2
:1001A000727420286C617465290D0A0074696D658C
:1001B0006F75740D0A0073656E74206F6B0D0A0005
:1001C0006D61785F72740D0A00726164696F5F69B6
:1001D0006E69740D0A000D0A0073656E64696E67BE
:1001E00020000D0A0073746174757320000D0A00FD
:1001F00069727120004153534552542000415353BA
:1002000045525420000D0A0070696E20006D61692E
:100210006E0D0A000D0A7461675F737720302E310E
:100220000D0A000011241FBECFEFD8E0DEBFCDBF06
:1002300011E0A0E0B1E0E2ECF8E102C005900D921F
:10024000AE30B107D9F722E0AEE0B1E001C01D92B7
:10025000AC32B207E1F70E942B0B0C945F0C0C94AC
:10026000000084B58F7084BD85B5887F85BD0895F5
:10027000CF93C82F0E94310180E887BD88BD84B527
:10028000836B84BD85B5887F85BD85B5C82BC5BD0D
:10029000CF9108958BB180668BB98AB180668AB997
:1002A00008952998109280001092810008950E946C
:1002B0005101E6E8F0E085EA91E091838083808156
:1002C00091819695879596958795909389008093CF
:1002D00088008081918196958795969587959C0158
:1002E000220F331F820F931F90938B0080938A00FD
:1002F000E0E8F0E08081806A808380818260808392
:10030000E1E8F0E080818861808380818160808382
:10031000089588E790E00E946C032998219A089537
:100320001F920F920FB60F9211242F933F934F936A
:100330005F936F937F938F939F93AF932091D0019F
:100340003091D1014091D2015091D3016091D401FB
:100350007091D5018091D6019091D701A1E00E94C2
:10036000440C2093D0013093D1014093D20150939B
:10037000D3016093D4017093D5018093D6019093FB
:10038000D701AF919F918F917F916F915F914F9125
:100390003F912F910F900FBE0F901F9018951F92B5
:1003A0000F920FB60F9211242F933F934F935F93A9
:1003B0006F937F938F939F93AF93BF93EF93FF932D
:1003C0000E949001FF91EF91BF91AF919F918F910A
:1003D0007F916F915F914F913F912F910F900FBE41
:1003E0000F901F901895E0E7F0E080818E7F80836A
:1003F0002091D0013091D1014091D2015091D3018F
:100400006091D4017091D5018091D6019091D7016E
:10041000A081A160A0830895E0E7F0E080818E7F55
:1004200080833091D0012091D1018091D2018091BF
:10043000D3018091D4018091D5018091D601809122
:10044000D701808181608083832F922F089582E07D
:100450008093B0008CE78093B30085E08093B10077
:10046000E0E7F0E08081826080830895A2E0B0E060
:10047000ECE3F2E00C941D0C909152018091530139
:10048000981791F0E0915201F0E0EC5AFE4F808114
:100490008A83809152018F5F8F73898389818093D2
:1004A00052018A8190E002C08FEF9FEF2296E2E036
:1004B0000C94390CA2E0B0E0E0E6F2E00C941D0CE4
:1004C0009091520180915301981303C00E94F5034B
:1004D000F7CFE0915201F0E0EC5AFE4F80818A8321
:1004E000809152018F5F8F7389838981809352013C
:1004F0008A812296E2E00C94390CA1E0B0E0E3E8B6
:10050000F2E00C941C0C182F809110018F5F8F73F8
:10051000898390910F018981981303C00E94F5038C
:10052000F8CFF89480910E01811113C01093C6008A
:100530003091C1002091C10081E090E001C0880F9E
:100540003A95EAF7822B8093C10081E080930E01F7
:1005500009C0E0911001F0E0EF5EFE4F1083898149
:100560008093100178942196E3E00C94380C8091EC
:10057000530190915201891B8F730895809110014E
:1005800090910F01891B8F7308950E94BE029FE313
:10059000981B892F0895809151010895589A1092BF
:1005A000C50087E68093C400E0ECF0E080818D7F99
:1005B0008083E1ECF0E088E180838EE08093C200EC
:1005C00080818068808380818064808308951F9209
:1005D0000F920FB60F9211242F933F938F939F93F7
:1005E000EF93FF93CF93DF931F92CDB7DEB7909138
:1005F000100180910F01981789F0E0910F01F0E050
:10060000EF5EFE4F80818093C60080910F018F5F67
:100610008F738983898180930F0112C010920E011C
:100620003091C1002091C10081E090E002C0880FAC
:10063000991F3A95E2F78095909582238093C100A7
:100640000F90DF91CF91FF91EF919F918F913F910B
:100650002F910F900FBE0F901F9018951F920F9221
:100660000FB60F9211248F939F93EF93FF93E09116
:1006700053018091C600F0E0EC5AFE4F80838091D8
:1006800053018F5F8F7380935301909152018913AF
:1006900005C0809151018F5F80935101FF91EF91CF
:1006A0009F918F910F900FBE0F901F9018950F93F1
:1006B0001F93CF93DF938C01EB011C161D063CF4B6
:1006C000F80181918F010E947D022197F6CFDF9181
:1006D000CF911F910F910895CF93DF93FC018491E7
:1006E000EF012196882321F00E947D02FE01F7CFC1
:1006F000DF91CF9108958A3010F4805D01C0895A4E
:100700000E947D020895CF93C82F82958F700E941A
:100710007B038C2F8F700E947B03CF910895CF9322
:10072000DF93EC018D2F82958F700E947B038D2FBC
:100730008F700E947B03CE0124E0969587952A95C1
:10074000E1F78F700E947B038C2F8F700E947B03D8
:10075000DF91CF910895CF92DF92EF92FF926B01DC
:100760007C01DC01CB012CE1B695A7959795879587
:100770002A95D1F70E947B038F2D8F700E947B03F7
:10078000D701C60134E1B695A795979587953A9517
:10079000D1F78F700E947B038E2D8F700E947B0398
:1007A000D701C6014CE0B695A795979587954A95D0
:1007B000D1F78F700E947B038D2D8F700E947B0379
:1007C000D701C60154E0B695A795979587955A9598
:1007D000D1F78F700E947B038C2D8F700E947B035A
:1007E000FF90EF90DF90CF900895809194019091C9
:1007F0009501009731F0A89501979093950180930A
:10080000940183B7816083BF83B7817F83BF88955D
:1008100083B78E7F83BF08958FEF9FEF90939501ED
:10082000809394010E94F5030895CF93DF93EC0128
:100830000E940C02C80FD91F0E940C029E01281BA7
:10084000390B37FD03C00E94F503F6CFDF91CF913E
:100850000895CF93C82F88EC90E00E9415045B9A0E
:10086000539A1C1664F45B9888EC90E00E9415047F
:100870005B9A80E991E00E941504C150F2CF539831
:1008800080E293E00E94150480E090E0CF9108950B
:10089000009771F001971816190654F40000000033
:1008A0000000000000000000000000000000F2CF87
:1008B00008958C01EB018FE790E00E946C03C80162
:1008C0000E946C03CE010E948F0388E00E942904DD
:1008D00088EE93E00E941504289AEDCF9FE088E10E
:1008E0000FB6F894A895809360000FBE90936000B7
:1008F00080B7806880BF78940E9427020E94F50329
:1009000008950E94F30108950E940C020895ECE7F7
:10091000F0E09081907F908390818F70982B9083EE
:10092000EAE7F0E080818064808308951F920F924F
:100930000FB60F9211242F933F934F935F936F93B2
:100940007F938F939F93AF93BF93EF93FF93809188
:1009500078002091790090E0922BE0910001F0E086
:10096000EE0FFF1FEA56FE4F9183808380910001B6
:100970008F5F8093000180910001833048F4E09103
:100980000001F0E0EF5FFE4F80810E94870405C008
:1009900080917A00877F80937A00FF91EF91BF91D9
:1009A000AF919F918F917F916F915F914F913F9107
:1009B0002F910F900FBE0F901F90189580EC809391
:1009C0007C0087E880937A00089510920001EAE79E
:1009D000F0E0808188608083E0910001F0E0EF5FCB
:1009E000FE4F80810E94870408959091000181E06C
:1009F000933009F080E00895CF93C82F833030F012
:100A00006AEA70E082E890E00E945904EC2FF0E07E
:100A1000EE0FFF1FEA56FE4F80819181CF9108951E
:100A20008617970720F04817590728F0089584176C
:100A30009507B8F008956817790708F008956417C6
:100A40007507B8F468177907A0F48417950778F448
:100A500063E170E085EE90E00E9459048FEF9FEF14
:100A600008956417750770F34617570710F4CA0105
:100A70000895CB0108958F929F92AF92BF92CF922B
:100A8000DF92EF92FF92CF93DF930E94F5048823C9
:100A900009F493C080E00E94FC04EC0181E00E9414
:100AA000FC047C0182E00E94FC04AC01B701CE0191
:100AB0000E94100520919C0130919D0140919E0162
:100AC00050919F018090A0019090A101A090A2015F
:100AD000B090A301FC0164E0EE0FFF1F6A95E1F7FF
:100AE000203231054105510520F569017A018FEF6A
:100AF000C81AD80AE80AF80AC0929C01D0929D014F
:100B0000E0929E01F0929F01C501B4010E94CA0BC0
:100B10006E0F7F1F811D911DA70196010E94DA0BA8
:100B20002093A0013093A1014093A2015093A3010F
:100B30001BC0AFE1B0E0A50194010E94020CDC01F2
:100B4000CB018E0F9F1FA11DB11D25E0B695A79566
:100B5000979587952A95D1F78093A0019093A1014D
:100B6000A093A201B093A301C090A001D090A101D5
:100B7000E090A201F090A30184E0F694E794D7946A
:100B8000C7948A95D1F7E6018091A4019091A501BF
:100B90008C159D0579F087E990E00E946C03C601F1
:100BA0000E948F0384E990E00E946C03D092A5011B
:100BB000C092A4010E94E5040BC08AE890E00E9464
:100BC0006C031092A60185E08093A701CFEFDFEFC1
:100BD000CE01DF91CF91FF90EF90DF90CF90BF904B
:100BE000AF909F908F9008958DED90E00E946C03E0
:100BF000809160000E9483038AED90E00E946C0364
:100C00000E94DE04209A289808958091A7018330DD
:100C100009F44FC02CF48130A1F0823039F106C0C4
:100C2000843009F458C0853009F46BC028980E94BC
:100C3000E50482ED90E00E946C031092A60181E031
:100C400012C028980E943B05019609F46BC0809160
:100C5000A6018C330CF45AC089EC90E00E946C031E
:100C60001092A60182E08093A7015CC028980E94A0
:100C70003B058F3F2FEF920709F454C0833622E0E3
:100C8000920740F082EC90E00E946C031092A60163
:100C900083E00AC08830924048F48AEB90E00E94DA
:100CA0006C031092A60184E08093A7010E94E504E2
:100CB00039C0289A0E943B059C012F3F8FEF3807CF
:100CC00089F19091A6019C3394F02632324050F580
:100CD0008FEA90E0C3CF289A0E943B059C012F3FEA
:100CE0008FEF3807F9F09091A6019C3324F49F5FB1
:100CF0009093A60117C027323240A0F084EA90E01A
:100D0000ADCF289A8091A6018C3324F48F5F809315
:100D1000A60108C08AE990E00E946C030E94DE04EC
:100D20001092A7010E940C0408958EEE90E00E949C
:100D30006C0384E00E943801089508958FE391E0E8
:100D40000E946C030E9484040895A5E0B0E0EBEAE1
:100D5000F6E00C94190C0E9484048E010F5F1F4F63
:100D600085E0F80111928A95E9F765E0C8010E94D3
:100D700021098823A1F088E391E00E946C037E01A1
:100D8000F6E0EF0EF11CF80181918F010E948303C0
:100D90000E151F05C1F785E391E00E946C03809159
:100DA000B001813059F0339912C08CE291E00E9479
:100DB0006C03459A81E08093B00109C0339B07C062
:100DC00082E291E00E946C0345981092B0018091FC
:100DD000AF01813059F0319912C089E191E00E9450
:100DE0006C032A9A81E08093AF0109C0319B07C050
:100DF0008FE091E00E946C032A981092AF018091DD
:100E0000B301813069F08230A9F032991CC08AE0C8
:100E100091E00E946C030E9457015F9A81E007C035
:100E200084E091E00E946C030E94510182E0809373
:100E3000B30109C05F98329B06C08CEF90E00E941E
:100E40006C031092B3012596E6E00C94350CA5E0F6
:100E5000B0E0EDE2F7E00C941D0C8091B1019091AF
:100E6000B2018531910584F119828091AB01909195
:100E7000AC012091AD013091AE013A832B839C836C
:100E80008D8365E0CE0101960E943009882321F010
:100E900085EF90E00E946C038091AB019091AC01D2
:100EA000A091AD01B091AE010196A11DB11D80933D
:100EB000AB019093AC01A093AD01B093AE01109241
:100EC000B2011092B10105C001969093B2018093D6
:100ED000B1012596E2E00C94390CCF93C82F81E044
:100EE00090E00E944804CEBD0DB407FEFDCF8EB544
:100EF000CF91089586E491E00E946C038CE284B95E
:100F000081E58CBD0895CF93C9B1C2FBCC27C0F950
:100F100081E0C8278091B501C81769F080EF91E0A2
:100F20000E946C038C2F0E947B038DEE91E00E9447
:100F30006C03C093B5019091B7018091B6019817E9
:100F400081F085EE91E00E946C038091B7010E94D0
:100F5000830382EE91E00E946C038091B70180933D
:100F6000B60185E090E00E944804CF9108955C9816
:100F70000E946D078093B7015C9A0E9483070895D1
:100F8000CF93C62F5C9880620E946D078093B70153
:100F90008C2F0E946D07C82F5C9A0E9483078C2FAC
:100FA000CF91089560E787E00E94C00708955C989C
:100FB00081EE0E946D078093B7015C9A0E948307BF
:100FC000089544980E94D7070E94D2076AE080E003
:100FD0000E94C0070E9483070895CF935C9881E127
:100FE0000E946D078093B70180E00E946D07C82FB3
:100FF0005C9A0E9483078091B4018C1769F088E5A0
:1010000091E00E946C038C2F0E94830385E591E0A0
:101010000E946C03C093B4018FEF0E94B707CF9179
:101020000895FC01108211820895FC0120812F5F38
:10103000277030E0418150E081E02417350709F046
:1010400080E00895FF920F931F93CF93DF93EC01FD
:101050008B01F42E0E941508882321F089818F5F6F
:101060008770898385E0F81631F068E770E08DEFCE
:1010700091E00E9459048881FE0195E0899FE00D6E
:10108000F11D11243296D801CF0105962D9121939F
:10109000E817F907D9F788818F5F87708883CDB704
:1010A000DEB7E5E00C94360CFC0181E020819181F3
:1010B000291380E00895EF92FF921F93CF93DF935F
:1010C000EC017B01142F988189819817F1F045304C
:1010D00031F06DE870E085EF91E00E94590489815C
:1010E000FE0195E0899FE00DF11D11243296112338
:1010F00031F08191D7018D937D011150F8CF898115
:101100008F5F8770898385E001C080E0DF91CF9198
:101110001F91FF90EF900895EF92FF921F93CF934E
:10112000DF937B01C42F5C9880620E946D078093DF
:10113000B70110E0D0E0812F012E000C990B8C1725
:101140009D0744F4F701E80FF91F80810E946D07A5
:101150001F5FF1CF5C9A0E948307DF91CF911F91AF
:10116000FF90EF900895A0E0B0E0E9EBF8E00C9478
:10117000170C7C01C62F89ED91E00E946C0387015A
:10118000D0E06701CC0EDD1E0C151D0531F0F80115
:1011900081918F010E948303F7CF86ED91E00E9439
:1011A0006C03449881EE0E94B70781E090E00E94B2
:1011B00048045C9880EA0E946D078093B70110E0B4
:1011C000812F012E000C990B8C179D0744F4F70119
:1011D000E80FF91F80810E946D071F5FF1CF81E04A
:1011E00090E00E9448045C9A81E090E00E944804EC
:1011F000449A8AE090E00E94480444980E94830741
:10120000CDB7DEB7E8E00C94330C5C9882EE0E9418
:101210006D078093B7015C9A0E948307089560E48C
:1012200087E00E94C0070E94050965E081E10E94F5
:10123000C0076BE080E00E94C0070E948307449AC9
:1012400008953091020220910302321739F0462F9F
:10125000BC0182E092E00E945B08089580E008955E
:101260000F931F93CF93DF938C01D62F88ED91E0DE
:101270000E941508C82F811107C04D2FB80188EDB5
:1012800091E00E94220801C0CFEF8C2FDF91CF9117
:101290001F910F91089589EC91E00E946C030E94C8
:1012A0007A07E2E0F2E010821182E8EDF1E01082CC
:1012B000118244983C9A8AE090E00E9448045C9A2B
:1012C000549A8AE090E00E9448045A9A8AE090E09A
:1012D0000E9448040E94D2078AE090E00E944804DD
:1012E0000E94840488579C4E9093BB018093BA015E
:1012F0000895A5E0B0E0EFE7F9E00C94110C0E942E
:1013000084048C018091BA019091BB017801E81AA4
:10131000F90A0E94ED07D090BC018D2D90E0883035
:10132000910508F04CC1FC01EC5CFF4F0C94FC0BE8
:10133000F7FC53C10E94ED078091BC018F5F809341
:10134000BC011092B9011092B80141C1F7FC45C12E
:10135000F090B8018AE0F81640F09BE09F1518F471
:10136000E0E1FE1202C085E0D82E5C988F2D0E942D
:101370006D078093B701E12C6D2C712CCE01019685
:101380004C01AE2C0E2C000CBB08A614B7044CF478
:1013900080E00E946D07F401EA0DFB1D8083E39459
:1013A000F0CF5C9A0E9483078FE691E00E946C0365
:1013B0008F2D0E94830380E20E947D027401F70159
:1013C00081917F010E9483038E2D88198D15B8F3BA
:1013D0008CE691E00E946C038091B8019091B90174
:1013E00001969093B9018093B801429754F01092FE
:1013F000B9011092B8018091BC018F5F8093BC014C
:10140000E6C00C591F4FE5C0F7FCE7C00E94E1079A
:101410000C591F4FB3C0F7FCE0C085E0E4E0F1E0F9
:10142000DE01119601900D928A95E1F765E0CE01FB
:1014300001960E94B30808571C4EA0C08091B701C6
:1014400084FF13C080EC91E00E946C030E94D207DD
:101450000E94D707C80144969093BB018093BA01BC
:101460008091BC018F5F8093BC018091B70185FFA3
:1014700011C086EB91E00E946C030E94D207C80164
:1014800044969093BB018093BA018091BC018F5F19
:101490008093BC011E141F040CF09FC08CEA91E0E5
:1014A0000E946C030E94D20767C0F7FC96C00E949E
:1014B0000F0962C08091B70184FF08C08CE991E0F8
:1014C0000E946C0360E187E00E94C0078091B70131
:1014D00085FF08C08BE891E00E946C0360E287E022
:1014E0000E94C0078091B70186FF3EC060E487E09C
:1014F0000E94C007CE0101967C0185E0F7011192A0
:101500008A95E9F782E691E00E946C035C9881E697
:101510000E946D078093B70157014E01F6E08F0ED0
:10152000911C670180E00E946D07F60181936F01B5
:10153000E815F905B9F75C9A0E94830781E891E004
:101540000E946C03F50181915F010E948303A8143E
:10155000B904C1F78EE791E00E946C0345E0B70142
:1015600082E092E00E9422089091D8018091D901F6
:10157000981799F10E94E1070C5E1F4F1093BB0171
:101580000093BA018091BC018F5F16C0F7FC25C0A3
:1015900045E0BE016F5F7F4F88ED91E00E945B08E0
:1015A00065E0CE0101960E94B30808571C4E1093C7
:1015B000BB010093BA0184E08093BC010EC0F7FC2C
:1015C0000CC084E791E00E946C030E94ED07085173
:1015D0001C4F1093BB010093BA012596EEE00C94CA
:1015E0002D0CCF92DF92EF92FF9293B1C6B089B1EA
:1015F000D12CE12CF12CFE2CED2CDC2CCC24E92A76
:10160000C82A8091BD019091BE01A091BF01B09107
:10161000C0018667B701A601466784179507A6072C
:10162000B707A1F088E092E00E946C03C701B60101
:101630000E94AB0385E092E00E946C03C092BD0162
:10164000D092BE01E092BF01F092C001FF90EF90F6
:10165000DF90CF9008950E946E040E94CE0284E134
:1016600092E00E946C030E94F50388EC90E00E94D7
:10167000150483E00E9429040E94F5030E944A0198
:101680000E948901229A579A3D9A429A419A439A16
:101690000E949E0688EC90E00E9415040E94F405CA
:1016A00088EC90E00E9415040E94950688EC90E07A
:1016B0000E9415040E944B0988EC90E00E941504DA
:1016C0008DE092E00E946C030E94840488519C4F3C
:1016D0009093C7018093C6010E94360297FD0DC00A
:1016E0008B31910509F4FFCF9C01215631092A3134
:1016F000310508F480970E947D020E9479090E94BA
:10170000A5060E94F10A8091C101823001F13CF4EA
:10171000882361F0813031F50E94F10A1AC08330CC
:10172000F1F08430F9F40E94270713C00E9484046A
:101730002091C6013091C701821B930B97FD27C0F2
:1017400028513C4F3093C7012093C60102C00E942C
:1017500005068091C1018F5F8093C10118C00E946E
:101760009D06F7CF8091C2019091C301A091C40161
:10177000B091C5010196A11DB11D8093C201909346
:10178000C301A093C401B093C5011092C1010E948E
:10179000F503A2CFDB018F939F930E94020CBF91B0
:1017A000AF91A29F800D911DA39F900DB29F900DB0
:1017B00011240895A1E21A2EAA1BBB1BFD010DC026
:1017C000AA1FBB1FEE1FFF1FA217B307E407F507F1
:1017D00020F0A21BB30BE40BF50B661F771F881FCD
:1017E000991F1A9469F760957095809590959B0163
:1017F000AC01BD01CF010895EE0FFF1F0590F491DC
:10180000E02D09940E94500CA59F900DB49F900D5F
:10181000A49F800D911D112408952F923F924F9205
:101820005F926F927F928F929F92AF92BF92CF9270
:10183000DF92EF92FF920F931F93CF93DF93CDB779
:10184000DEB7CA1BDB0B0FB6F894DEBF0FBECDBFF1
:1018500009942A88398848885F846E847D848C84C2
:101860009B84AA84B984C884DF80EE80FD800C81CB
:101870001B81AA81B981CE0FD11D0FB6F894DEBFAE
:101880000FBECDBFED0108950024A7FD00942A0FDF
:10189000301D401D501D601D701D801D901D089540
:1018A000A29FB001B39FC001A39F700D811D1124A1
:1018B000911DB29F700D811D1124911D0895F89402
:0218C000FFCF58
:0E18C200FF00000048656C6C6F7600000000AF
:00000001FF
