:100000000C94AB010C94C8010C94C8010C94C80169
:100010000C94C8010C94C8010C94C8010C94DD0226
:100020000C94C8010C949E020C94C8010C94C80155
:100030000C94C8010C94C8010C94C8010C94C8011C
:100040000C94C8010C94C8010C942F050C94C801A1
:100050000C94E9040C9496060C94C8010C94C80105
:100060000C94C8010C94C8011D03490349033403CF
:10007000490349033403490349033403490349034A
:100080003403490349033403490349034303490340
:10009000490346035A035F039303930362039303E5
:1000A0009303620393039303620393039303620333
:1000B000930393036203930393036E03A403A903BF
:1000C000DD03DD03AC03DD03DD03AC03DD03DD0392
:1000D000AC03DD03DD03AC03DD03DD03AC03DD03B3
:1000E000DD03B803A008B50820096D096D095109A1
:1000F0006F09430C530C600C6F0CAB0CB90CBF0CAC
:10010000280F370F970F9A0FA60FE60FF20FC210A6
:10011000746D72310D0A000D0A004153534552545B
:100120002000206D560D0A006D656469616E0074D3
:10013000696D656F75740D0A00707320006F7665C8
:100140007266756C6C0072657374617274006F76A0
:10015000657266756C6C00757362006368617267C6
:10016000696E67006469736368617267696E6700CE
:100170006465706C657465640066756C6C006F6EA8
:1001800000706F77657220737461727475700D0AF8
:1001900000627320007669620D0A002B0D0A003F91
:1001A0000D0A0067732000747820007278322000F6
:1001B0007278312000677220006361740D0A006359
:1001C0006D640D0A002E0D0A0070696E670D0A003D
:1001D00061636B0D0A006661696C0D0A002A0D0AE5
:1001E000006869740D0A0067616D650D0A0061762B
:1001F000725F7370695F696E69740D0A005265679A
:1002000020007273200064656661756C740D0A00CD
:100210007272200072720D0A0073656E74206F6B2B
:1002200020286C617465290D0A006D61785F727415
:1002300020286C617465290D0A0074696D656F75FD
:10024000740D0A0073656E74206F6B0D0A006D618A
:10025000785F72740D0A00726164696F5F696E691C
:10026000740D0A0041535345525420007261646971
:100270006F2066756C6C0D0A004153534552542033
:1002800000727420003F0D0A006E0069640064650E
:1002900076000D0A003F0D0A00706F7765720076D8
:1002A0006F6C74616765006E0069640067616D65FD
:1002B00000646576003F0D0A007265626F6F740D11
:1002C0000A00706F776572206F6666003F0D0A0046
:1002D000656570726F6D2077726F6E6720636865F9
:1002E000636B73756D0D0A00656570726F6D2077B5
:1002F000726F6E67206D616769630D0A00656570D6
:10030000726F6D206661696C0D0A00656570726FB1
:100310006D206261636B7570204F4B0D0A0065653F
:1003200070726F6D206C6F61646564204F4B0D0AB5
:1003300000656570726F6D20736176650D0A006DE2
:1003400061696E0D0A000D0A7461675F7377203072
:100350002E320D0A000011241FBECFEFD8E0DEBF01
:10036000CDBF11E0A0E0B1E0E6E1FEE202C0059001
:100370000D92A638B107D9F723E0A6E8B1E001C095
:100380001D92A83CB207E1F70E945A140C94091779
:100390000C94000094B59C7094BD94B5936B94BD7F
:1003A00095B5907F95BD95B5892B85BD089584B58C
:1003B0008F7084BD85B5887F85BD16BC08958BB1CF
:1003C00080668BB98AB180668AB980E887BD88BDAE
:1003D0000895E0E8F0E0808182688083E1E8F0E061
:1003E000808189618083089510928000109281003D
:1003F0001092850010928400089580E191E00E949F
:1004000079052998219AE6E8F0E085EA91E0918360
:100410008083808191819695879596958795909315
:100420008900809388008081918196958795969523
:1004300087959C01220F331F820F931F90938B008F
:1004400080938A0008951092FF021092EE0210929B
:100450008B0110928A0108952091FF024091EE02D3
:1004600030E02F5F3F4F2770332750E081E02417A3
:10047000350709F080E00895CF93C82F0E942C0221
:10048000882331F08091EE028F5F87708093EE02B7
:10049000E091FF02F0E0E950FD4FC0838091FF0240
:1004A0008F5F87708093FF02CF9108951092DB02D7
:1004B0001092ED0210928901109288010895209106
:1004C000DB029091ED0281E0291380E008950E9403
:1004D0005F0281110DC0E091ED02F0E0E151FD4FAE
:1004E00080819091ED029F5F97709093ED02089547
:1004F0008FEF08951092DC02109200031092870192
:100500001092860108952091DC029091000381E011
:10051000291380E008950E94830281110DC0E091AB
:100520000003F0E0E352FD4F8081909100039F5F54
:1005300097709093000308958FEF08951F920F9284
:100540000FB60F9211242F933F934F935F936F93A6
:100550007F938F939F93AF932091E5023091E602B2
:100560004091E7025091E8026091E9027091EA023D
:100570008091EB029091EC02A1E00E94B5162093CD
:10058000E5023093E6024093E7025093E80260935D
:10059000E9027093EA028093EB029093EC02AF9130
:1005A0009F918F917F916F915F914F913F912F918B
:1005B0000F900FBE0F901F9018951F920F920FB6BD
:1005C0000F9211242F933F934F935F936F937F93D9
:1005D0008F939F93AF93BF93EF93FF932091E50287
:1005E0003091E6024091E7025091E8026091E90201
:1005F0007091EA028091EB029091EC02A1E00E94DE
:10060000B5162093E5023093E6024093E70250933B
:10061000E8026093E9027093EA028093EB02909300
:10062000EC02E0918B018E2F90E08631910588F5E8
:10063000FC01EC5CFF4F0C9425159091FF0280911A
:10064000EE02981759F10E94E901E091EE02F0E004
:10065000E950FD4F90818091EE028F5F877080930B
:10066000EE0290938A0115C080918A0180FF03C039
:100670000E94F40102C00E94E90180918A018695DE
:1006800080938A0106C00E94F40103C010928B017E
:1006900005C080918B018F5F80938B01E091890170
:1006A0008E2F90E084319105F0F5FC01E65BFF4F61
:1006B0000C94251533993CC01092880134C0339BAB
:1006C00032C02EC0809188018695339902C090E097
:1006D00001C090E1892B8093880125C0339B20C005
:1006E000409188018091DB022091ED0290E001961B
:1006F0008770992730E08217930731F48091ED02DB
:100700008F5F87708093ED02E091DB02F0E0E151B2
:10071000FD4F40838091DB028F5F87708093DB0207
:100720001092890105C0809189018F5F80938901B2
:10073000E09187018E2F90E084319105F0F5FC0166
:10074000E25AFF4F0C94251531993CC01092860156
:1007500034C0319B32C02EC080918601869531997C
:1007600002C090E001C090E8892B8093860125C0EB
:10077000319B20C0409186018091DC0220910003D2
:1007800090E001968770992730E08217930731F443
:10079000809100038F5F877080930003E091DC02FB
:1007A000F0E0E352FD4F40838091DC028F5F877061
:1007B0008093DC021092870105C0809187018F5FD2
:1007C00080938701FF91EF91BF91AF919F918F919E
:1007D0007F916F915F914F913F912F910F900FBE3D
:1007E0000F901F901895E0E7F0E080818E7F808366
:1007F0002091E5023091E6024091E7025091E80233
:100800006091E9027091EA028091EB029091EC0212
:10081000A081A160A0830895E0E7F0E080818E7F51
:1008200080833091E5022091E6028091E702809179
:10083000E8028091E9028091EA028091EB028091C6
:10084000EC02808181608083832F922F08950E9423
:1008500023020E9456020E947A0282E08093B00036
:100860008CE78093B30085E08093B100E0E7F0E08F
:100870008081826080830895A2E0B0E0E2E4F4E049
:100880000C944E169091900280919102981791F0DD
:10089000E0919002F0E0EE56FD4F80818A838091D6
:1008A00090028F5F877089838981809390028A810B
:1008B00090E002C08FEF9FEF2296E2E00C946A1660
:1008C000A2E0B0E0E6E6F4E00C944E1690919002BF
:1008D00080919102981303C00E940A06F7CFE0911D
:1008E0009002F0E0EE56FD4F80818A838091900265
:1008F0008F5F877089838981809390028A81229695
:10090000E2E00C946A16A1E0B0E0E9E8F4E00C94AF
:100910004D16182F80918E018F5F898390918D01E4
:100920008981981303C00E940A06F8CFF894809139
:100930008C01811113C01093C6003091C100209129
:10094000C10081E090E001C0880F3A95EAF7822B60
:100950008093C10081E080938C0109C0E0918E01F9
:10096000F0E0E157FE4F1083898180938E017894E7
:100970002196E3E00C946916809191029091900287
:10098000891B8770089580918E0190918D01891B3C
:1009900008950E94C3048095089580918F02089560
:1009A000589A1092C50087E68093C400E0ECF0E00E
:1009B00080818D7F8083E1ECF0E088E180838EE0B0
:1009C0008093C2008081806880838081806480837E
:1009D00008951F920F920FB60F9211242F933F93F9
:1009E0008F939F93EF93FF93CF93DF931F92CDB796
:1009F000DEB790918E0180918D01981781F0E09182
:100A00008D01F0E0E157FE4F80818093C600809118
:100A10008D018F5F8983898180938D0112C010922F
:100A20008C013091C1002091C10081E090E002C0B2
:100A3000880F991F3A95E2F78095909582238093CD
:100A4000C1000F90DF91CF91FF91EF919F918F9116
:100A50003F912F910F900FBE0F901F9018951F92EE
:100A60000F920FB60F9211248F939F93EF93FF93E2
:100A7000E09191028091C600F0E0EE56FD4F808338
:100A8000809191028F5F8770809391029091900284
:100A9000891305C080918F028F5F80938F02FF9131
:100AA000EF919F918F910F900FBE0F901F9018950F
:100AB0000F931F93CF93DF938C01EB011C161D0640
:100AC0003CF4F80181918F010E9483042197F6CFB5
:100AD000DF91CF911F910F910895CF93DF93EC0198
:100AE0008991882319F00E948304FACFDF91CF9176
:100AF0000895CF93DF93FC018491EF012196882321
:100B000021F00E948304FE01F7CFDF91CF91089579
:100B10008A3010F4805D01C0895A0E9483040895D0
:100B2000CF93C82F82958F700E9488058C2F8F706D
:100B30000E948805CF910895CF93DF93EC018D2F0C
:100B400082958F700E9488058D2F8F700E94880576
:100B5000CE0124E0969587952A95E1F78F700E9443
:100B600088058C2F8F700E948805DF91CF910895A2
:100B7000CF92DF92EF92FF926B017C01DC01CB01FF
:100B80002CE1B695A795979587952A95D1F70E9460
:100B900088058F2D8F700E948805D701C60134E12A
:100BA000B695A795979587953A95D1F78F700E943E
:100BB00088058E2D8F700E948805D701C6014CE0F4
:100BC000B695A795979587954A95D1F78F700E940E
:100BD00088058D2D8F700E948805D701C60154E0CD
:100BE000B695A795979587955A95D1F78F700E94DE
:100BF00088058C2D8F700E948805FF90EF90DF9004
:100C0000CF90089587E191E00E947905089580E0F2
:100C100090E0089580919A0290919B02009739F09C
:100C2000A895019790939B0280939A0201C0289AFD
:100C300083B7816083BF83B7817F83BF889583B784
:100C40008E7F83BF08958FEF9FEF90939B028093D9
:100C50009A020E940A060895CF93DF93EC010E9446
:100C60000C04C80FD91F0E940C049E01281B390BCD
:100C700037FD03C00E940A06F6CFDF91CF91089599
:100C8000009771F001971816190654F4000000003F
:100C90000000000000000000000000000000F2CF93
:100CA00008958C01EB010E940206C8010E9479059B
:100CB00080E20E948304CE010E949C050E940206ED
:100CC00088EE93E00E942C06289AEDCF9FE088E101
:100CD0000FB6F894A895809360000FBE90936000C3
:100CE00080B7806880BF78940E9427042898209A53
:100CF0008FEF9FEF90939B0280939A020E940A06C7
:100D000008950E94F30308950E940C040895ECE7EF
:100D1000F0E09081907F908390818F70982B9083EA
:100D2000EAE7F0E080818064808308951F920F924B
:100D30000FB60F9211242F933F934F935F936F93AE
:100D40007F938F939F93AF93BF93EF93FF93809184
:100D500078002091790090E0922BE0910001F0E082
:100D6000EE0FFF1FE456FD4F9183808380910001B9
:100D70008F5F8093000180910001833048F4E091FF
:100D80000001F0E0EF5BFE4F80810E94870605C006
:100D900080917A00877F80937A00FF91EF91BF91D5
:100DA000AF919F918F917F916F915F914F913F9103
:100DB0002F910F900FBE0F901F90189581E0809398
:100DC0007E0080EC80937C0087E880937A00089511
:100DD00010920001EAE7F0E0808188608083E09172
:100DE0000001F0E0EF5BFE4F80810E9487060895CE
:100DF0009091000181E0933009F080E00895CF9355
:100E0000C82F833030F067EA70E08AE191E00E94F9
:100E10005106EC2FF0E0EE0FFF1FE456FD4F8081EE
:100E20009181CF910895A0E2B0E0E9E1F7E00C9460
:100E300048166C014091AE025091AF028AE0E82E54
:100E4000F12C8E010F5F1F4F9A0140E050E060E0EF
:100E500070E080E090E00E941311C6010E947905C5
:100E600080E20E948304C8010E946D0582E291E045
:100E70000E9479058091AE029091AF029093AC02EE
:100E80008093AB02A096E8E00C946416A5E0B0E075
:100E9000ECE4F7E00C943E160E94F806882309F46F
:100EA00003C180E00E94FF069C838B8381E00E9447
:100EB000FF064C0182E00E94FF062B813C81281531
:100EC000390528F08217930708F400C11CC02B8154
:100ED0003C8128173907B8F48816990608F0FCC039
:100EE0002B813C818216930608F0FAC02817390737
:100EF00040F466E970E088E291E00E9451068FEFCD
:100F00009FEF9C838B830E94E8062B813C81A1ECA0
:100F1000B6E10E942B152091A20229831B012C010E
:100F2000612C712C4301203408F050C02F5F2983BD
:100F30002093A202422F50E041505109952F990F62
:100F4000990BA090A302B090A402C090A502D090EB
:100F5000A602E090A702F090A8020091A9021091C9
:100F6000AA029A01492F592F692F792F892F0E94A0
:100F700045157901142F5A83B62FA72FF82FE92F83
:100F80009101A20160E070E080E090E006E00E9444
:100F9000751659016A01762E872E082F992E970112
:100FA000412F5A816B2F7A2F8F2F9E2FE72CF82CF1
:100FB000192D0E94AC16A980B12CC12CD12CE12C8A
:100FC000F12C00E010E00E94D1153DC08FE3A82E67
:100FD000B12CC12CD12CE12CF12C00E010E020919F
:100FE000A3023091A4024091A5025091A602609103
:100FF000A7027091A8028091A9029091AA020E9472
:10100000451529833A834D835B83B62FA72FF82F8D
:10101000E92F9101A20160E070E080E090E006E03D
:101020000E94751659016A017B018C0129813A8160
:101030004D815B816B2F7A2F8F2F9E2F0E94AC16D4
:1010400006E00E9490162093A3023093A4024093DE
:10105000A5025093A6026093A7027093A802809302
:10106000A9029093AA022091A3023091A402409178
:10107000A5025091A6026091A7027091A8028091EA
:10108000A9029091AA0206E00E949016B901CA0135
:1010900028EE33E040E050E00E940315C901309390
:1010A000AF022093AE0224C08FE291E00E94790546
:1010B00064E670E084E090E00E94A9091092B0021A
:1010C00086E08093B1028FEF9FEF12C02B813C81AD
:1010D0008216930640F017CF8815990508F411CFB2
:1010E0009C828B8210CF8816990608F4F9CEF8CF2F
:1010F0002596E2E10C945A160E94DE0628985B9829
:10110000539A08950F931F93E091B1028E2FEE0F23
:10111000990BAA0BBB0BFC013197E730F10520F4CA
:10112000EE58FF4F0C942515289853980E94E80616
:1011300081E891E00E9479051092B00281E012C02E
:101140000E944607019609F4DEC08091B0028E31FC
:101150000CF4B4C08EE791E00E9413072898109217
:10116000B00282E08093B102CEC00E9446078F3F5A
:101170002FEF920709F4C7C0893620E19207A8F43F
:10118000853020E19207D8F0A0E0B0E04091AB02BA
:101190005091AC0260E070E04A5F5F4F6F4F7F4F4D
:1011A000481759076A077B07FCF489E791E00E941A
:1011B00013075398289A1092B00283E012C0883B1C
:1011C0009B4090F45398289A80E791E00E9413077F
:1011D00064EF71E084E090E00E94A9091092B002EF
:1011E00085E08093B10229C04091AE025091AF02D8
:1011F00060E070E08091AB029091AC02A0E0B0E0C2
:101200008A019B010A5F1F4F2F4F3F4F0817190795
:101210002A073B0724F4539884E691E00CC0069615
:10122000A11DB11D84179507A607B70734F45B9875
:10123000539A8BE591E00E9413070E94E80663C071
:10124000289A0E944607AC014F3F8FEF580709F4D8
:101250005AC0413321E1520758F087E591E00E94DE
:1012600013075B9A539A8CE38093B00284E07ACFA1
:101270009091B0029C3324F49F5F9093B00243C0DE
:101280002091AB023091AC022E5C3F4F2417350702
:10129000D0F55B98539A8EE491E00E94130787E0A3
:1012A00061CF289A8091B0028A3064F464E670E0DD
:1012B00084E090E00E94A9098091B0028F5F809342
:1012C000B00221C086E491E00E9413075B98539A14
:1012D0000E94DE061092B10216C0289A14C0289A05
:1012E0008DE391E00E94130764E873E084E090E0EE
:1012F0000E94A9092A9A459A5F9A539A5B9902C05B
:101300005B9A01C05B989091B1028091AD029817F1
:1013100071F089E391E00E9479058091B1020E9409
:1013200088050E9402068091B1028093AD020E945E
:1013300023061F910F9108958091AE029091AF0204
:1013400008958091B1020895109201031092020352
:101350000895AC01209101038091020330E02F5FDA
:101360003F4F2F70332790E02817390731F49091C1
:1013700002039F5F9F7090930203E091010384E05A
:10138000E89FF0011124ED5FFC4F51834083E09111
:10139000010384E0E89FF0011124ED5FFC4F7383AB
:1013A0006283809101038F5F8F70809301030895A2
:1013B0008091020390910103891B80958F7008959D
:1013C0000895CF93DF938091B502813071F19091B0
:1013D000010380910203981709F45FC0C0910203D2
:1013E000D0E0809102038F5F8F70809302030E9490
:1013F0008406FE01EE0FFF1FEE0FFF1FED5FFC4F97
:1014000022813381820F931F9093B4028093B302A1
:1014100080819181009719F00E94CA0102C00E9448
:10142000D70181E08093B50238C00E9484062091E4
:10143000B3023091B402821B930B97FD2EC09091A2
:10144000010380910203981721F1C0910203D0E0BB
:10145000809102038F5F8F70809302030E94840645
:10146000FE01EE0FFF1FEE0FFF1FED5FFC4F22810D
:101470003381820F931F9093B4028093B3028081D3
:101480009181009719F00E94CA0107C00E94D701FC
:1014900004C00E94D7011092B5029091B5028091CC
:1014A000B202981771F081E991E00E94790580916C
:1014B000B5020E9488050E9402068091B5028093C1
:1014C000B202DF91CF9108952A9A459A1092B702FD
:1014D00085E991E00E9479055F980E94840688540E
:1014E000944F9093B9028093B80281E08093BE023A
:1014F000089562E370E082E090E00E94A90964E64A
:1015000070E083E090E00E94A90968EC70E084E05C
:1015100090E00E94A90960E273E085E090E00E94FB
:10152000A90962E370E080E090E00E94A9090895B3
:10153000A5E0B0E0EEE9FAE00C944C16082F0E940A
:101540007B12182F802F0E94900580E20E94830456
:10155000812F0E9490051F3F29F48FE991E00E949E
:10156000790549C08BE991E00E94790581E489837E
:101570004091BA025091BB026091BC027091BD02D1
:101580004A832091090180910D018F73922F9295CA
:10159000990F990F907C982B9B8391E0213009F44F
:1015A00090E09295990F990F907C892B8C831D83E5
:1015B0004F5F5F4F6F4F7F4F4093BA025093BB0214
:1015C0006093BC027093BD0265E0CE0101960E945B
:1015D0005A0E8091090190910A01A0910B01B091DE
:1015E0000C01892B8A2B8B2B31F42A9A0E94790AC1
:1015F00081E08093B7022596E4E00C94681687EEAC
:1016000091E00E9479050E9484069093B90280932C
:10161000B8020895A5E0B0E0E0E1FBE00C944816C4
:10162000FC0112811F73C12ED12CE12CF12C4091B1
:101630000D0150910E0160910F0170911001C416BF
:10164000D506E606F70691F5018181EE91E00E944C
:1016500079052A9A81E689830A832091090180917C
:101660000D01322F3295330F330F307C982F9F733B
:10167000932B9B8391E0213009F490E09295990F90
:10168000990F907C892B8C831D8365E0CE01019698
:101690000E945A0E882321F086ED91E00E94790580
:1016A0000E94790A81E08093B70204C08DED91E039
:1016B0000E9479052596E8E00C946416CF92DF929B
:1016C000EF92FF92FC01248140910D0150910E0197
:1016D00060910F017091100182818F7390E0A0E002
:1016E000B0E06A017B01FFE3CF22DD24EE24FF247A
:1016F0008C159D05AE05BF05B9F480ED91E00E9403
:1017000079058091090190910A01A0910B01B09196
:101710000C01892B8A2B8B2BF9F02A9A0E94790ACB
:1017200081E08093B70218C042274F735527662780
:101730007727452B462B472B59F489EC91E00E94E3
:10174000790562E370E082E090E00E94A90904C09C
:1017500085EC91E00E947905FF90EF90DF90CF90AB
:101760000895FC0120812F71213011F40E940A0B91
:101770000895FC0190819F71913021F4CF010E9466
:101780005E0B08958FEB91E00E9479050895FC01AE
:101790009081929596959770923031F0933041F404
:1017A000CF010E94B90B0895CF010E94B10B08959B
:1017B00089EB91E00E9479050895A5E0B0E0E3EEA1
:1017C000FBE00C9443160E9484068C018091B802C1
:1017D0009091B9027801E81AF90ACE0101966C01DC
:1017E00085E0F60111928A95E9F765E0C6010E944D
:1017F0004B0E782E8823B9F085EB91E00E94790595
:1018000056014E01F6E08F0E911CF50181915F01AA
:101810000E949005A814B904C1F70E940206672D22
:10182000C6010E94C70B0E945F0281110AC00E947C
:101830006702D82E80EB91E00E9479058D2D0E94E1
:10184000980A0E94830281110AC00E948B02D82E3E
:101850008BEA91E00E9479058D2D0E94980AE09113
:10186000BE028E2FEE0F990BAA0BBB0BFC0131971A
:10187000E730F10530F4E758FF4F8091B7020C9440
:1018800025152A9A08C0882319F00E94640A7BC093
:10189000F7FC79C045980854144F1093B90200938F
:1018A000B80282E019C08111F0CFF7FC6CC02A9811
:1018B0000854144F1093B9020093B80283E00CC08F
:1018C0008111E3CFF7FC5FC02A980854144F10939E
:1018D000B9020093B80284E08093BE0254C0811123
:1018E000D4CF329936C080910D010E947112F82E2A
:1018F00087EA91E00E9479058F2D0E94900580E291
:101900000E94830480910D010E9490050E940206AE
:101910008F2D0E943C025F9A2A9A62E370E084E075
:1019200090E00E94A90962E370E083E090E00E94E9
:10193000A90962E370E084E090E00E94A90985E0D3
:101940008093BE020C591F4F1093B9020093B80246
:101950001AC05F9818C0811198CFF7FC14C02A985C
:101960005F980C591F4F1093B9020093B80286E09C
:10197000B3CF81118ACF329B04C087E0ADCF8111F4
:1019800084CFF7FEA8CF9091BE028091B60298173F
:1019900071F083EA91E00E9479058091BE020E9475
:1019A00088050E9402068091BE028093B6022596A9
:1019B000EDE00C945F1608958091BE020895CF93D8
:1019C000C82F81E090E00E944006CEBD0DB407FE16
:1019D000FDCF8EB5CF9108958EEE91E00E947905EE
:1019E00084B18C6284B980E58CBD089580E090E07C
:1019F0000E94400608955C980E94DF0C8093C50207
:101A00005C9A0E94F60C0895CF93C62F5C98806272
:101A10000E94DF0C8093C5028C2F0E94DF0CC82F20
:101A20005C9A0E94F60C8C2FCF91089560E787E0B6
:101A30000E94040D08955C9881EE0E94DF0C809353
:101A4000C5025C9A0E94F60C0895CF935C980E94A0
:101A5000DF0C8093C50280E00E94DF0CC82F5C9AE7
:101A60000E94F60C8C2FCF91089544980E941B0D74
:101A70000E94160D6EE080E00E94040D0E94F60C9C
:101A80000895EF92FF921F93CF93DF93EC0189812A
:101A90009881981719F17B01FE0196E0899FE00D6E
:101AA000F11D11241781411730F468E970E089E7CE
:101AB00092E00E9451068981BE0196E0899F600DE7
:101AC000711D11246E5F7F4F412FC7010E94861246
:101AD00089818F5F87708983812F01C080E0DF91CA
:101AE000CF911F91FF90EF900895EF92FF920F9387
:101AF0001F93CF93DF93EC018B01F42E2981888112
:101B00008F5F877090E0422F50E08417950719F49B
:101B10002F5F2770298325E02F1530F466E870E0E9
:101B200084E692E00E945106888196E0E92E9E01AB
:101B3000E89E200D311D1124C9014F2DB8010296D8
:101B40000E9486128881FE01E89EE00DF11D11249D
:101B5000F7828F5F87708883CDB7DEB7E6E00C949D
:101B60006616EF92FF921F93CF93DF937B01C42FF2
:101B70005C9880620E94DF0C8093C50210E0D0E088
:101B8000812F012E000C990B8C179D0744F4F7014F
:101B9000E80FF91F80810E94DF0C1F5FF1CF5C9A74
:101BA0000E94F60CDF91CF911F91FF90EF90089566
:101BB000FF920F931F93CF93DF93EC01062F44986E
:101BC00080E090E00E94400681EE0E94FB0C80E0E5
:101BD00090E00E9440065C9880EA0E94DF0C8093AF
:101BE000C502F12C10E08F2D0F2C000C990B8017E3
:101BF000910744F4FE01E80FF91F80810E94DF0C79
:101C0000F394F1CF80E090E00E9440065C9A80E07F
:101C100090E00E944006449A0E94C904803480F0FB
:101C200081E892E00E9479050C0F1D1FC017D107B3
:101C300021F089910E949005F9CF0E94020607C009
:101C400085E20E9483048AE090E00E944006449866
:101C50000E94F60CCDB7DEB7E5E00C9467165C98F1
:101C600082EE0E94DF0C8093C5025C9A0E94F60C03
:101C7000089560E487E00E94040D0E942F0E65E045
:101C800081E10E94040D6FE080E00E94040D0E943B
:101C9000F60C449A0895309175032091760332171B
:101CA00039F0462FBC0185E793E00E94410D08956D
:101CB00080E008951F93CF93DF93EC01162F80915E
:101CC00043038F5F877090E02091440330E08217D8
:101CD000930731F48CE692E00E9479058FEF18C0EB
:101CE000462FBE0183E493E00E94750D809143036B
:101CF0008F5F877090E02091440330E08217930754
:101D000031F0412FBE0183E493E00E94750D80E025
:101D1000DF91CF911F910895E3E4F3E081819081F9
:101D2000891B809587700895CF93C82F0E948406E1
:101D30004091BF025091C0026FE1649F9001659F86
:101D4000300D1124820F931F9093C0028093BF0225
:101D50006C2F70E00E94EF14CF91089587E592E018
:101D60000E9479050E94EC0C109275031092760384
:101D7000E5E7F3E01782369683E0E53AF807D1F716
:101D80001092430310924403E3E4F3E01782369683
:101D900083E0E337F807D1F744983C9A8AE090E073
:101DA0000E9440065C9A549A8AE090E00E944006A5
:101DB0005A9A8AE090E00E9440060E94160D8AE03E
:101DC00090E00E94400660E081E00E94040D60E027
:101DD00084E00E94040D45E069E471E08AE00E941D
:101DE000B10D45E069E471E080E10E94B10D61E070
:101DF00082E00E94040D6AE485E00E94040D0E94C6
:101E0000840688579C4E9093C9028093C802089517
:101E1000A5E0B0E0EEE0FFE00C9441160E948406DD
:101E20008C018091C8029091C9027801E81AF90AE0
:101E30008FEF0E94FB0CD090CA028D2D90E088306D
:101E4000910508F0B8C1FC01E058FF4F0C9425152E
:101E5000F7FCC0C18FEF0E94FB0C8091CA028F5F1C
:101E60008093CA021092C7021092C6025AC00E9402
:101E7000C90487FFAFC1F090C6028AE0F81640F0AF
:101E80009BE09F1518F4E0E1FE1202C025E0D22E7F
:101E90005C988F2D0E94DF0C8093C502E12C6D2C85
:101EA000712CCE0101964C01AE2C0E2C000CBB08FF
:101EB000A614B7044CF480E00E94DF0CF401EA0D94
:101EC000FB1D8083E394F0CF5C9A0E94F60C8DEFAB
:101ED00091E00E9479058F2D0E94900580E20E947A
:101EE00083047401F70181917F010E9490058E2D7A
:101EF00088198D15B8F30E9402068091C602909150
:101F0000C70201969093C7028093C602429764F07D
:101F10001092C7021092C6028091CA028F5F80930E
:101F2000CA0208511C4F52C10C591F4F4FC1F7FC38
:101F300051C125C1F7FC4EC185E0E4E4F1E0DE01CA
:101F4000119601900D928A95E1F726C18091C50204
:101F500084FF13C08EE492E00E9479050E94160D62
:101F60000E941B0DC80102969093C9028093C8027B
:101F70008091CA028F5F8093CA028091C50285FF5B
:101F800011C084E492E00E9479050E94160DC801F8
:101F900002969093C9028093C8028091CA028F5F13
:101FA0008093CA021E141F040CF014C18AE392E04D
:101FB0000E9479050E94160D0E5F1F4F1093C902F3
:101FC0000093C8028091CA028F5FF2C0F7FC02C181
:101FD0000E94390E80E20E94940E0E5F1F4F080F80
:101FE000111DECCF8091C50284FF08C08AE292E007
:101FF0000E94790560E187E00E94040D8091C5028E
:1020000085FF08C089E192E00E94790560E287E0DF
:102010000E94040D8091C50286FF23C0CE01019667
:102020006C0185E0F60111928A95E9F78091C5026D
:102030008E70A82EB12CB594A7948A2CF3E0AF161D
:10204000E1F0FA1538F081E0A81699F092E0A916AF
:1020500091F00DC0E4E0AE1691F0F5E0AF1689F016
:1020600006C087E10E94250D80FFD8CF80C081E1A6
:1020700009C082E107C083E105C084E103C085E1B6
:1020800001C086E10E94250D982E8091C20289111F
:1020900004C08091C102881691F080E70E948304F9
:1020A0008A2D0E94880580E20E948304892D0E9467
:1020B00090050E9402069092C202A092C1025C9812
:1020C00081E60E94DF0C8093C50246013E0186E056
:1020D000680E711C560180E00E94DF0CF5018193AF
:1020E0005F01E615F705B9F75C9A0E94F60C60E40B
:1020F00087E00E94040D87E7A82E83E0B82E512CBC
:10210000F5018581853041F445E0B501C6010E94A5
:102110009012811101C05394F6E0AF0EB11C87EA12
:10212000A81683E0B80661F7552029F084E192E013
:102130000E9479051CC045E0B60185E793E00E9446
:10214000750D0E94C904803478F080E192E00E940D
:102150007905F40181914F010E949005861497043E
:10216000C1F70E94020603C084E20E948304F7FCC8
:1021700031C09091430380914403981739F10E9434
:10218000350D1ACFF7FC26C045E0BE016F5F7F4FCB
:1021900083E493E00E94410D65E0CE0101960E9428
:1021A000D80D08511C4F1093C9020093C80284E057
:1021B0008093CA020FC0F7FC0DC086E092E00E9437
:1021C00079058FEF0E94FB0C08571C4E1093C90233
:1021D0000093C8029091CA028091C402981306C06D
:1021E0009091C5028091C3029817C9F082E092E0F5
:1021F0000E9479058091CA020E94880580E20E94AF
:1022000083048091C5020E9490050E94020680917D
:10221000CA028093C4028091C5028093C3022596AE
:10222000EFE00C945D16AAE1B0E0E9E1F1E10C9475
:102230003E1639014A016A8F798F8987492E180124
:10224000FB86EA86A0E00E94C11631F480E3D80143
:102250008C9311961C92C9C06A8D798D8985A0E0F6
:102260000E94C1167CF4EA85FB853A9759F40E94D6
:102270002E1639014A016A8F798F8987492EF1E03C
:10228000FE8701C01E863D862C86388E2F8A1F86CB
:10229000188A198A1A8A1B8A1C8A1D8A1E8A5B84DC
:1022A000550C5508AA84BB84C52CD52CE52CF52CDF
:1022B000052D152D9301A4016A8D798D8985942DA5
:1022C0000E949E15E22FD32E7A018B01B82FF92F91
:1022D0002F85388949895A896B897C898D899E899E
:1022E000A1E00E94B51629833A834B835C836D83FA
:1022F0007E838F8398872E2F3D2DA701B8018B2FCA
:102300009F2FA9E00E94C11619F014F0E95A01C0EC
:10231000E05DAF89B88DED93B88FAF8BAA84BB8495
:10232000C52CD52CE52CF52C052D152D9301A401DC
:102330006A8D798D8985942D0E94A01539014A01F5
:102340006A8F798F8987492EA0E00E94C11689F093
:1023500089818F879A81988BAB81A98BBC81BA8B3D
:10236000ED81EB8BFE81FC8B8F818D8B98859E8B15
:1023700099CFBE85BB23C9F02F85388949895A89F1
:102380006B897C898D899E89A2E00E94B516E981BE
:10239000FA81E20DF31DADE2A08329833A834B83DA
:1023A0005C836D837E838F83988749815A81FA018C
:1023B000E20DF31D1082CF0120E030E041505109C1
:1023C000BA01621B730B261737077CF4EC85FD8579
:1023D00060810197FC017081AC85BD857D93BD87CF
:1023E000AC8760832F5F3F4FEBCFC1016A96E2E17C
:1023F0000C945A16A3E0B0E0E0E0F2E10C943E1633
:102400009B838A8377247394812C912C412C312CCB
:10241000212C512C612CEA81FB81FB83EA83819181
:102420008032D9F38D32C1F4EA81FB813196FB838E
:10243000EA83272D382D492D542D632D722D852D9E
:10244000962D0E942E16722E832E942E452E362EF9
:10245000272E582E692EDFCF8B3211F4FB83EA83AF
:1024600020E030E040E050E060E070E080E090E0AC
:10247000EA81FB81A191FB83EA83A983EA2FE053E0
:10248000EA3008F5EAE0AE2EB12CC12CD12CE12CBB
:10249000F12C00E010E00E94451559016A017B0112
:1024A0008C01F9814F2FFF0F550B40535109952F88
:1024B000990F990B9A01492F592F692F792F892F3D
:1024C0000E94AC16D5CFA72CB82CC92CD42CE32C49
:1024D000F22C052D162D0E9445152396E2E10C9451
:1024E0005A168A3130F4E82FF0E0E559FE4F80812A
:1024F00008958FEF089581508D3130F4E82FF0E08A
:10250000E25BFE4F808108958FEF0895FB01442325
:1025100031F02191DC012D93CD014150F8CF089588
:10252000DC01FB01442331F09D918191981B21F442
:102530004150F8CF80E00895892F0895A0E2B0E0DF
:10254000E4EAF2E10C944A168B010E94790580E2DC
:102550000E948304A8018AE0E82EF12C8E010F5F0F
:102560001F4F9A0140E050E060E070E080E090E0B2
:102570000E941311C8010E946D0582E992E00E9439
:102580007905A096E6E00C9466161092CB020895A9
:102590000E943C0497FDD4C08032910584F02091C4
:1025A000CB02203218F08CEC92E0BFC0E22FF0E0BA
:1025B000E955FC4F80832F5F2093CB0208958A302A
:1025C000910521F08D30910509F0B2C0E091CB0268
:1025D000F0E0E955FC4F1082A7EAB3E0FD018D91D0
:1025E0008032E1F38F3609F451C03CF4853669F04E
:1025F000873609F098C031960BC0823709F44DC078
:10260000833709F090C031964DC00E94001496C0E7
:1026100081918032E9F3893609F164F48436B9F0A6
:10262000873689F50E94DC0C682F880F770B8CEABF
:1026300092E062C08037F9F08637B9F08E3619F52E
:1026400060910D0170910E0187EA92E055C0609192
:10265000090170910A0181EB92E04EC06091050181
:102660007091060189EA92E047C00E949C09BC0172
:102670008FE992E041C00E94A109682F880F770B73
:1026800089E992E039C085E992E04FC061E970E0E4
:1026900082EC92E00E94510651C089EB92E00E94C8
:1026A0007905FFCF9F0191919032E1F39936A1F026
:1026B0009E3629F19436A1F5CF010E94FA1120939C
:1026C000090130930A0140930B0150930C01622FD2
:1026D000732F8EE892E010C0C90101960E94FA1192
:1026E00020930501309306014093070150930801A0
:1026F000622F732F8BE892E00E949E121FC0C901C7
:1027000001960E94FA1120930D0130930E0140931F
:102710000F0150931001622F732F89E892E0ECCFE4
:1027200085E892E002C085EB92E00E94790506C040
:102730008B31910509F4FFCF0E9490051092CB02D6
:102740000895A0E4B0E0E7EAF3E10C94441640E415
:1027500050E0BC01CE0101960E94E1162196CCAC5E
:10276000DDACEEACFFAC219721961CAE1DAE1EAECB
:102770001FAE2197FE01319620E030E0A9018E01C5
:102780000F5B1F4FAFE1B0E00E943A1521914B0162
:102790005C01820E911CA11CB11CA5019401E017E3
:1027A000F10781F789809A80AB80BC80809101011C
:1027B00090910201A0910301B0910401881699063D
:1027C000AA06BB0619F088EE92E007C0C216D3062F
:1027D000E406F50631F080ED92E00E9479058FEF76
:1027E0000AC080E4FE013196A1E0B1E001900D92B3
:1027F0008A95E1F780E0C05CDF4FECE00C94601656
:10280000EF92FF920F931F9310923D0110923E01A1
:1028100010923F0110924001E1E0F1E020E030E051
:10282000A901AFE1B0E00E943A1521917B018C0132
:10283000E20EF11C011D111DA801970101E0E13418
:10284000F00779F720933D0130933E0140933F011B
:102850005093400140E450E060E070E081E091E09E
:102860000E94F11640E450E060E072E081E091E007
:102870000E94F11681E393E00E9479051F910F9168
:10288000FF90EF90089580E090E00E94A1138111E5
:1028900003C08EE193E00BC080E092E00E94A113A0
:1028A000811103C08BE093E002C08DEF92E00E94A3
:1028B000790508950E9466060E94D00486E493E09C
:1028C0000E9479050E940A0688EC90E00E942C067E
:1028D0000E94DF010E94FD01229A579A3D9A429A76
:1028E000419A439A0E9443140E94E00988EC90E0C8
:1028F0000E942C060E947C0888EC90E00E942C0626
:102900000E94AE0E88EC90E00E942C060E94FF0A06
:1029100088EC90E00E942C060E94C51288EC90E0A2
:102920000E942C068FE393E00E9479050E948406A2
:1029300088519C4F9093D2028093D102C4E0D2E0A0
:102940000E94C8120E94080F0E94DD0B0E94E1093C
:102950008091CC02823001F13CF4882361F0813017
:1029600031F5D093CC0238C08330F1F08430F9F4E3
:102970000E94DB0C13C00E9484062091D10230918A
:10298000D202821B930B97FD27C028513C4F3093F6
:10299000D2022093D10202C00E9482088091CC0210
:1029A0008F5F8093CC0218C0C093CC0215C0809179
:1029B000CD029091CE02A091CF02B091D0020196AB
:1029C000A11DB11D8093CD029093CE02A093CF02A2
:1029D000B093D0021092CC020E940A06B1CF97FBAE
:1029E000072E16F4009407D077FD09D00E94CD166B
:1029F00007FC05D03EF4909581959F4F0895709502
:102A000061957F4F0895A1E21A2EAA1BBB1BFD0101
:102A10000DC0AA1FBB1FEE1FFF1FA217B307E407BD
:102A2000F50720F0A21BB30BE40BF50B661F771F15
:102A3000881F991F1A9469F76095709580959095F5
:102A40009B01AC01BD01CF010895EE0FFF1F059062
:102A5000F491E02D0994A29FB001B39FC001A39F00
:102A6000700D811D1124911DB29F700D811D1124C7
:102A7000911D08950E942B15A59F900DB49F900D58
:102A8000A49F800D911D11240895DF93CF931F9370
:102A90000F939A9DF02D219FF00D8B9DF00D8A9D37
:102AA000E02DF10D039FF00D029FE00DF11D4E9DF5
:102AB000E00DF11D5E9DF00D4F9DF00D7F936F9326
:102AC000BF92AF925F934F93D5010E942B158B015C
:102AD000AC01D7010E942B15EB01E80FF91FD601BD
:102AE0000E9495152F913F91D6010E942B15C60F7C
:102AF000D71FE81FF91FAF91BF910E9495152F9125
:102B00003F910E942B15C60FD71FE81FF91FD60152
:102B10000E942B15E60FF71F9801BE01CF0111246B
:102B20000F911F91CF91DF9108950E942B15460FB1
:102B3000571FC81FD91F08F431960895689401C023
:102B4000E894F92FF12B12F00C94D215A0E0B0E02C
:102B5000ECEAF5E10C944416092E059422F40E9447
:102B60002E16112392F4F0E80F26FFEFE094F09474
:102B700000951095B094C094D094A194BF0ACF0A48
:102B8000DF0AEF0AFF0A0F0B1F0B0E94DD1507FC7F
:102B90000E942E16CDB7DEB7ECE00C946016689458
:102BA00001C0E8948F929F92CF93DF930E94DD152E
:102BB000DF91CF919F908F90089588249924F401FC
:102BC000E401B0E49F93AA279A158B049C04ED05B9
:102BD000FE05CF05D007A10798F4AD2FDC2FCF2F2E
:102BE000FE2FE92D982C892E982F872F762F652F71
:102BF000542F432F322F2227B85031F7BF9127C0CF
:102C00001B2EBF91BB27220F331F441F551F661F6A
:102C1000771F881F991F881C991CEE1FFF1FCC1F50
:102C2000DD1FAA1FBB1F8A149B04EC05FD05CE0502
:102C3000DF05A007B10748F08A189B08EC09FD09D9
:102C4000CE09DF09A00BB10B21601A94E1F62EF436
:102C50009401AF01BE01CD01000C089560957095FF
:102C60008095909530954095509521953F4F4F4FC9
:102C70005F4F6F4F7F4F8F4F9F4F08952F923F921F
:102C80004F925F926F927F928F929F92AF92BF927C
:102C9000CF92DF92EF92FF920F931F93CF93DF9328
:102CA000CDB7DEB7CA1BDB0B0FB6F894DEBF0FBE85
:102CB000CDBF09942A88398848885F846E847D84D2
:102CC0008C849B84AA84B984C884DF80EE80FD80D4
:102CD0000C811B81AA81B981CE0FD11D0FB6F8944A
:102CE000DEBF0FBECDBFED0108950F93083090F009
:102CF000982F872F762F652F542F432F322F22277F
:102D00000850F4CF220F331F441F551F661F771F33
:102D1000881F991F0A95B2F70F91089597FB10F835
:102D2000169400080F93083098F00850232F342F82
:102D3000452F562F672F782F892F902DF4CF05948C
:102D400097958795779567955795479537952795E3
:102D50000A95AAF70F9108952A0D3B1D4C1D5D1D84
:102D60006E1D7F1D801F911F08950024A7FD0094F4
:102D70002A0F301D401D501D601D701D801D901DAF
:102D800008950024A7FD00942A173005400550053A
:102D900060057005800590050895AA1BBB1B51E1D5
:102DA00007C0AA1FBB1FA617B70710F0A61BB70BBB
:102DB000881F991F5A95A9F780959095BC01CD0160
:102DC0000895DC01CB01FC01F999FECF06C0F2BDEC
:102DD000E1BDF89A319600B40D9241505040B8F7D9
:102DE0000895DC01CB0103C02D910E94FC164150D7
:102DF0005040D0F70895262FF999FECF1FBA92BD03
:102E000081BD20BD0FB6F894FA9AF99A0FBE0196CB
:062E10000895F894FFCFC5
:102E1600FF2101000000000000000000000000008B
:102E2600000000000000000000000000000000009C
:102E3600000000000000000000000000000000008C
:102E4600000000000000000000000000000000007C
:102E56000000000048656C6C6F9C33D39EBC0B046D
:102E660013010F0817000D061503110A19FF0C05AB
:102E76001402100918FF0E0716FF120804140C029C
:102E8600120A1A06160E0111091905150D1D03134E
:062E96000B1B07170F00E3
:00000001FF
