:100000000C94F2000C940F010C940F010C940F014E
:100010000C940F010C940F010C940F010C947001BF
:100020000C940F010C94AF010C940F010C940F0170
:100030000C940F010C940F010C940F010C940F0100
:100040000C940F010C940F010C940F030C940F01EE
:100050000C94C8020C9457040C940F010C940F01DB
:100060000C940F010C940F01E108F308580967097B
:100070006F0982099809746D72310D0A000D0A002A
:10008000415353455254200074696D656F75740D6A
:100090000A000D0A00762000726573746172740D97
:1000A0000A0072656368617267650D0A00726563B4
:1000B00068617267650D0A00656D7074790D0A00DC
:1000C00066756C6C0D0A006368617267650D0A00E5
:1000D000706F7765720D0A000D0A00574454435340
:1000E0005220006D656469616E0D0A00626565707D
:1000F0000D0A006661696C0D0A0072656164790D14
:100100000A006F66660D0A006F6E0D0A006869745A
:10011000206F66660D0A00686974206F6E0D0A0014
:10012000766962206F66660D0A00766962206F6EDE
:100130000D0A000D0A00726164696F200067616D2D
:10014000650D0A006176725F7370695F696E69742C
:100150000D0A000D0A0072785F70775F7030200022
:100160006D61785F72740D0A000D0A005265672098
:10017000000D0A0072656365697665642000727817
:10018000206D6F64650D0A00726164696F5F696E4E
:1001900069740D0A0074780D0A0041535345525496
:1001A0002000415353455254200072780D0A0073C9
:1001B0000D0A000D0A0073746174757320000D0A36
:1001C0000069727120000D0A0070696E20006D6177
:1001D000696E0D0A000D0A7461675F737720302E17
:1001E000310D0A0011241FBECFEFD8E0DEBFCDBF16
:1001F00011E0A0E0B1E0ECEBF6E102C005900D9259
:10020000A831B107D9F721E0A8E1B1E001C01D9202
:10021000AC3BB207E1F70E94E9090C945C0B0C942B
:10022000000084B58F7084BD85B5887F85BD089535
:10023000CF93C82F0E94110180E887BD88BD84B587
:10024000836B84BD85B5887F85BD85B5C82BC5BD4D
:10025000CF9108958BB180668BB98AB180668AB9D7
:1002600008952998109280001092810008950E94AC
:100270003101E6E8F0E085EA91E0918380838081B6
:10028000918196958795969587959093890080930F
:1002900088008081918196958795969587959C0198
:1002A000220F331F820F931F90938B0080938A003D
:1002B000E0E8F0E08081806A8083808182608083D2
:1002C000E1E8F0E0808188618083808181608083C3
:1002D000089586E790E00E944D032998219A089599
:1002E0001F920F920FB60F9211242F933F934F93AB
:1002F0005F936F937F938F939F93AF932091B401FC
:100300003091B5014091B6015091B7016091B801AB
:100310007091B9018091BA019091BB01A1E00E9456
:10032000410B2093B4013093B5014093B601509333
:10033000B7016093B8017093B9018093BA019093AB
:10034000BB01AF919F918F917F916F915F914F9181
:100350003F912F910F900FBE0F901F9018951F92F5
:100360000F920FB60F9211242F933F934F935F93E9
:100370006F937F938F939F93AF93BF93EF93FF936D
:100380000E947001FF91EF91BF91AF919F918F916A
:100390007F916F915F914F913F912F910F900FBE81
:1003A0000F901F901895E0E7F0E080818E7F8083AA
:1003B0002091B4013091B5014091B6015091B7013F
:1003C0006091B8017091B9018091BA019091BB011F
:1003D000A081A160A0830895E0E7F0E080818E7F96
:1003E00080833091B4012091B5018091B601809154
:1003F000B7018091B8018091B9018091BA018091D3
:10040000BB01808181608083832F922F089582E0D9
:100410008093B0008CE78093B30085E08093B100B7
:10042000E0E7F0E08081826080830895A2E0B0E0A0
:10043000ECE1F2E00C941A0B90913C0180913D01AB
:10044000981791F0E0913C01F0E0E25CFE4F808172
:100450008A8380913C018F5F8F7389838981809328
:100460003C018A8190E002C08FEF9FEF2296E2E08C
:100470000C94360BA2E0B0E0E0E4F2E00C941A0B2E
:1004800090913C0180913D01981304C0A8950E9471
:10049000D603F6CFE0913C01F0E0E25CFE4F8081B4
:1004A0008A8380913C018F5F8F73898389818093D8
:1004B0003C018A812296E2E00C94360BA1E0B0E088
:1004C000E4E6F2E00C94190B182F80911A018F5F6B
:1004D0008F718983909119018981981303C00E94BB
:1004E000D603F8CFF89480911801811113C01093AE
:1004F000C6003091C1002091C10081E090E001C0B0
:10050000880F3A95EAF7822B8093C10081E08093AF
:10051000180109C0E0911A01F0E0E55EFE4F10837A
:10052000898180931A0178942196E3E00C94350B2D
:1005300080913D0190913C01891B8F7308958091BA
:100540001A0190911901891B8F7108950E949F02D1
:100550009FE1981B892F089580913B010895589A37
:100560001092C50087E68093C400E0ECF0E0808143
:100570008D7F8083E1ECF0E088E180838EE08093E2
:10058000C200808180688083808180648083089538
:100590001F920F920FB60F9211242F933F938F93B8
:1005A0009F93EF93FF93CF93DF931F92CDB7DEB767
:1005B00090911A0180911901981789F0E091190121
:1005C000F0E0E55EFE4F80818093C60080911901C6
:1005D0008F5F8F71898389818093190112C0109276
:1005E00018013091C1002091C10081E090E002C06B
:1005F000880F991F3A95E2F7809590958223809312
:10060000C1000F90DF91CF91FF91EF919F918F915A
:100610003F912F910F900FBE0F901F9018951F9232
:100620000F920FB60F9211248F939F93EF93FF9326
:10063000E0913D018091C600F0E0E25CFE4F8083D6
:1006400080913D018F5F8F7380933D0190913C01BC
:10065000891305C080913B018F5F80933B01FF911F
:10066000EF919F918F910F900FBE0F901F90189553
:100670000F931F93CF93DF938C01EB011C161D0684
:100680003CF4F80181918F010E945E022197F6CF20
:10069000DF91CF911F910F910895CF93DF93FC01CC
:1006A0008491EF012196882321F00E945E02FE01D1
:1006B000F7CFDF91CF9108958A3010F4805D01C0AB
:1006C000895A0E945E020895CF93C82F82958F7039
:1006D0000E945C038C2F8F700E945C03CF91089561
:1006E000CF93DF93EC018D2F82958F700E945C0376
:1006F0008D2F8F700E945C03CE0124E09695879524
:100700002A95E1F78F700E945C038C2F8F700E94F6
:100710005C03DF91CF910895CF92DF92EF92FF9229
:100720006B017C01DC01CB012CE1B695A795979577
:1007300087952A95D1F70E945C038F2D8F700E94B8
:100740005C03D701C60134E1B695A79597958795C7
:100750003A95D1F78F700E945C038E2D8F700E94A6
:100760005C03D701C6014CE0B695A7959795879590
:100770004A95D1F78F700E945C038D2D8F700E9477
:100780005C03D701C60154E0B695A7959795879568
:100790005A95D1F78F700E945C038C2D8F700E9448
:1007A0005C03FF90EF90DF90CF90089583B7816056
:1007B00083BF83B7817F83BF889583B78E7F83BFD5
:1007C0000895CF93DF93EC010E94EC01C80FD91F6D
:1007D0000E94EC019E01281B390B37FD04C0A8952F
:1007E0000E94D603F5CFDF91CF910895CF93C82F04
:1007F00088EC90E00E94E1035B9A539A1C1664F423
:100800005B9888EC90E00E94E1035B9A80E991E0BC
:100810000E94E103C150F2CF539880E293E00E941E
:10082000E10380E090E0CF910895009771F0019787
:100830001816190654F40000000000000000000023
:100840000000000000000000F2CF08958C01EB01D1
:100850008DE790E00E944D03C8010E944D03CE0138
:100860000E94700388E00E94F60388EE93E00E94E5
:10087000E103289AEDCF80B7806880BF78940E940A
:10088000070208950E94D30108950E94EC01089583
:10089000ECE7F0E09081907F908390818F70982BAF
:1008A0009083EAE7F0E080818064808308951F925E
:1008B0000F920FB60F9211242F933F934F935F9394
:1008C0006F937F938F939F93AF93BF93EF93FF9318
:1008D000809178002091790090E0922BE0910001C6
:1008E000F0E0EE0FFF1FE258FE4F9183808380916E
:1008F00000018F5F8093000180910001833048F4F4
:10090000E0910001F0E0EF5FFE4F80810E9448041B
:1009100005C080917A00877F80937A00FF91EF91E4
:10092000BF91AF919F918F917F916F915F914F9107
:100930003F912F910F900FBE0F901F90189580E45C
:1009400080937C0087E880937A00089510920001DC
:10095000EAE7F0E0808188608083E0910001F0E0C8
:10096000EF5FFE4F80810E9448040895909100013E
:1009700081E0933009F080E00895CF93C82F833051
:1009800030F064EA70E080E890E00E942604EC2FEA
:10099000F0E0EE0FFF1FE258FE4F80819181CF9172
:1009A00008958617970720F04817590728F00895EB
:1009B00084179507B8F008956817790708F0089527
:1009C00064177507B8F468177907A0F484179507BA
:1009D00078F463E170E083EE90E00E9426048FEFEC
:1009E0009FEF08956417750770F34617570710F4C3
:1009F000CA010895CB0108958F929F92AF92BF9242
:100A0000CF92DF92EF92FF92CF93DF930E94B604D2
:100A1000882309F493C080E00E94BD04EC0181E0CA
:100A20000E94BD047C0182E00E94BD04AC01B701BC
:100A3000CE010E94D1042091840130918501409122
:100A40008601509187018090880190908901A09043
:100A50008A01B0908B01FC0164E0EE0FFF1F6A95E4
:100A6000E1F7203231054105510520F569017A0190
:100A70008FEFC81AD80AE80AF80AC0928401D09207
:100A80008501E0928601F0928701C501B4010E94C0
:100A9000C70A6E0F7F1F811D911DA70196010E943D
:100AA000D70A209388013093890140938A0150939B
:100AB0008B011BC0AFE1B0E0A50194010E94FF0AC9
:100AC000DC01CB018E0F9F1FA11DB11D25E0B69546
:100AD000A795979587952A95D1F78093880190934C
:100AE0008901A0938A01B0938B01C0908801D090B6
:100AF0008901E0908A01F0908B0184E0F694E794FC
:100B0000D794C7948A95D1F7E60180918C01909192
:100B10008D018C159D0579F085E990E00E944D03CB
:100B2000C6010E94700382E990E00E944D03D092BA
:100B30008D01C0928C010E94A6040BC088E890E051
:100B40000E944D0310928E0185E080938F01CFEFBC
:100B5000DFEFCE01DF91CF91FF90EF90DF90CF904C
:100B6000BF90AF909F908F9008958BED90E00E9482
:100B70004D03809160000E94640388ED90E00E9424
:100B80004D030E949F04209A2898089580918F0118
:100B9000833009F44FC02CF48130A1F0823039F158
:100BA00006C0843009F458C0853009F46BC0289819
:100BB0000E94A60480ED90E00E944D0310928E01E9
:100BC00081E012C028980E94FC04019609F46BC0D1
:100BD00080918E018C330CF45AC087EC90E00E9417
:100BE0004D0310928E0182E080938F015CC02898A3
:100BF0000E94FC048F3F2FEF920709F454C0833604
:100C000022E0920740F080EC90E00E944D031092A9
:100C10008E0183E00AC08830924048F488EB90E06F
:100C20000E944D0310928E0184E080938F010E94F8
:100C3000A60439C0289A0E94FC049C012F3F8FEF24
:100C4000380789F190918E019C3394F0263232401E
:100C500050F58DEA90E0C3CF289A0E94FC049C01D5
:100C60002F3F8FEF3807F9F090918E019C3324F4D9
:100C70009F5F90938E0117C027323240A0F082EA26
:100C800090E0ADCF289A80918E018C3324F48F5F51
:100C900080938E0108C088E990E00E944D030E9475
:100CA0009F0410928F01A89508958CEE90E00E9409
:100CB0004D0384E00E941801089508958DE391E0AA
:100CC0000E944D030E9445040895A5E0B0E0EBE6C4
:100CD000F6E00C94160B0E9445048E010F5F1F4F27
:100CE00085E0F80111928A95E9F765E0C8010E9454
:100CF00064088823A1F086E391E00E944D037E0101
:100D0000F6E0EF0EF11CF80181918F010E9464035F
:100D10000E151F05C1F783E391E00E944D038091FA
:100D20009401813059F0339912C08AE291E00E9417
:100D30004D03459A81E08093940109C0339B07C01D
:100D400080E291E00E944D034598109294018091B9
:100D50009301813059F0319912C087E191E00E94EE
:100D60004D032A9A81E08093930109C0319B07C00B
:100D70008DE091E00E944D032A981092930180919A
:100D80009701813069F08230A9F032991CC088E067
:100D900091E00E944D030E9437015F9A81E007C0F5
:100DA00082E091E00E944D030E94310182E0809335
:100DB000970109C05F98329B06C08AEF90E00E94BD
:100DC0004D03109297012596E6E00C94320BA5E0B6
:100DD000B0E0EDEEF6E00C941A0B80919501909145
:100DE00096018F319105ACF085E0E4E0F1E0DE01A1
:100DF000119601900D928A95E1F765E0CE0101967A
:100E00000E948408882351F083EF90E00E944D03F4
:100E100005C0019690939601809395012596E2E096
:100E20000C94360BCF93C82F81E090E00E941504FC
:100E3000CEBD0DB407FEFDCF8EB5CF91089584E4ED
:100E400091E00E944D038CE284B981E58CBD089548
:100E5000CF93C9B1C2FBCC27C0F981E0C8278091EC
:100E60009901C81769F081EC91E00E944D038C2F25
:100E70000E9464038EEB91E00E944D03C0939901A0
:100E800090919B0180919A01981781F086EB91E0F7
:100E90000E944D0380919B010E94640383EB91E0CB
:100EA0000E944D0380919B0180939A01CF910895F8
:100EB0005C980E94120780939B015C9A0E9428070D
:100EC0000895CF93C62F5C9880620E94120780938A
:100ED0009B018C2F0E941207C82F5C9A0E94280742
:100EE0008C2FCF910895CF92DF92FF920F931F9393
:100EF000CF93DF936C01062F5C9881E60E94120766
:100F000080939B01F12C10E08F2D0F2C000C990B7E
:100F1000801791074CF4E601C80FD91F80E00E94AA
:100F200012078883F394F0CF5C9A0E942807DF9120
:100F3000CF911F910F91FF90DF90CF9008955C9813
:100F400081EE0E94120780939B015C9A0E94280701
:100F5000089585E991E00E944D0344980E949F07FF
:100F60006AE080E00E9461070E9428070895CF93FD
:100F700080919B0184FF0AC080E691E00E944D03AE
:100F800060E187E00E9461070E949F075C9881E111
:100F90000E94120780939B0180E00E941207C82FD5
:100FA0005C9A0E942807809198018C1769F086E569
:100FB00091E00E944D038C2F0E94640383E591E031
:100FC0000E944D03C09398018FEF0E945807CF9164
:100FD0000895EF92FF921F93CF93DF937B01C42F6D
:100FE0005C9880620E94120780939B0110E0D0E021
:100FF000812F012E000C990B8C179D0744F4F701EB
:10100000E80FF91F80810E9412071F5FF1CF5C9AE1
:101010000E942807DF91CF911F91FF90EF900895D4
:10102000EF92FF921F93CF93DF937C01C62F8FEA3D
:1010300091E00E944D0381EE0E94580780E090E00D
:101040000E9415045C9880EA0E94120780939B011D
:1010500010E0D0E0812F012E000C990B8C179D071A
:1010600044F4F701E80FF91F80810E9412071F5F07
:10107000F1CF5C9A449A8AE090E00E94150444986B
:101080000E942807DF91CF911F91FF90EF90089564
:101090005C9882EE0E94120780939B015C9A0E94EA
:1010A000280708958AEA91E00E944D030E944808AB
:1010B00065E081E10E9461076BE080E00E946107CA
:1010C0000E942807449A08950F931F93CF938C0191
:1010D000C62F653031F06AE671E082EA91E00E9445
:1010E000260490919B01892F807496FF09C06C2F74
:1010F000C8010E94730760E487E00E9461078C2F9B
:10110000CF911F910F9108950F931F93CF938C014F
:10111000C62F653031F06BE771E08AE991E00E94FB
:1011200026040E94A9076C2FC8010E9410088EEBAC
:1011300090E00E9415040E94520880E0CF911F9118
:101140000F91089588E891E00E944D030E941F07C7
:1011500044985C9A3C9A549A5A9A8AE090E00E9489
:1011600015040E94450488579C4E90939F018093DC
:101170009E0108958F929F92AF92BF92DF92EF925D
:10118000FF920F931F93CF93DF9300D000D01F9255
:10119000CDB7DEB70E9445048C0180919E019091ED
:1011A0009F017801E81AF90AD090A0018D2D90E0F6
:1011B0008730910508F0F2C0FC01EC5CFF4F0C9405
:1011C000F90AF7FCF5C00E94B7078091A0018F5F74
:1011D0008093A00110929D0110929C0180919E012C
:1011E00090919F015EC0F7FCE3C010919C011A3002
:1011F00030F01C3010F0103111F485E0D82E5C98DE
:10120000812F0E94120780939B0100E08D2C912C6E
:10121000CE0101965C01E02E002E000CFF08E814C0
:10122000F9044CF480E00E941207F501EE0DFF1D59
:1012300080830F5FF0CF5C9A0E9428078CE691E0D4
:101240000E944D03812F0E94640380E20E945E028F
:101250008501F80181918F010E946403802F8A1912
:101260008D15B8F389E691E00E944D0320919C0111
:1012700030919D012F5F3F4F30939D0120939C0142
:1012800080919E0190919F01223131050CF44DC057
:1012900010929D0110929C012091A0012F5F20933C
:1012A000A00188519C4F90939F0180939E0180C024
:1012B000F7FC7EC00E94A90780919E0190919F013A
:1012C0008C599F4F90939F0180939E0161C00E9413
:1012D000B707F7FC6DC085E0E9E0F1E007C00E94C8
:1012E000B707F7FC65C085E0EEE0F1E0DE0111969E
:1012F00001900D928A95E1F765E0CE0101960E947A
:1013000010080AC00E94B707F7FC52C08EE791E0B0
:101310000E944D030E9452088091A0018F5F80932C
:10132000A00180919E0190919F018C599F4FBBCF4E
:101330000E94B70780919B0186FF3AC084E791E045
:101340000E944D03CE0101967C0185E0F7011192C8
:101350008A95E9F765E0C7010E9473075E01F6E030
:10136000AF0EB11CF70181917F010E946403EA1462
:10137000FB04C1F781E791E00E944D0360E487E040
:101380000E9461070F5F1F4F10939F0100939E0102
:101390008091A0018F5F8093A0010AC0F7FC08C074
:1013A0000E94B7070F5F1F4F10939F0100939E018C
:1013B0000F900F900F900F900F90DF91CF911F9192
:1013C0000F91FF90EF90DF90BF90AF909F908F9024
:1013D00008959FE088E10FB6F894A8958093600087
:1013E0000FBE909360000E943B04A8950E94AF023C
:1013F00085ED91E00E944D0388EC90E00E94E103AE
:10140000A89583E00E94F603A8950E942A010E94F5
:101410006901229A579A3D9A429A419A439A0E94A8
:101420005E0688EC90E00E94E103A8950E94B50555
:1014300088EC90E00E94E103A8950E94550688EC94
:1014400090E00E94E103A8950E94A20888EC90E039
:101450000E94E103A8958EEC91E00E944D030E944A
:10146000450488519C4F9093AB018093AA010E9440
:10147000160297FD0DC08B31910509F4FFCF9C0139
:10148000215631092A31310508F480970E945E0205
:101490000E94BA080E9465068091A501823009F475
:1014A00052C02CF4882361F08130D9F057C08330CA
:1014B00009F44CC0843009F051C00E94E70648C0CE
:1014C0000E9445042091AA013091AB01821B930B2D
:1014D00097FD59C028513C4F3093AB012093AA018E
:1014E00037C093B1C6B089B1D12CE12CF12CFE2CC0
:1014F000ED2CDC2CCC24E92AC82A8091A101909102
:10150000A201A091A301B091A4018067B701A60137
:10151000406784179507A607B707D1F089EC91E0DB
:101520000E944D03C701B6010E948C0386EC91E036
:101530000E944D03C092A101D092A201E092A301AA
:10154000F092A40105C00E94C60502C00E945D067B
:101550008091A5018F5F8093A50115C08091A601A0
:101560009091A701A091A801B091A9010196A11D98
:10157000B11D8093A6019093A701A093A801B093F9
:10158000A9011092A501A8950E94D60370CFDB0196
:101590008F939F930E94FF0ABF91AF91A29F800DEE
:1015A000911DA39F900DB29F900D11240895A1E26B
:1015B0001A2EAA1BBB1BFD010DC0AA1FBB1FEE1FCD
:1015C000FF1FA217B307E407F50720F0A21BB30B18
:1015D000E40BF50B661F771F881F991F1A9469F794
:1015E00060957095809590959B01AC01BD01CF01F0
:1015F0000895EE0FFF1F0590F491E02D09940E94CD
:101600004D0BA59F900DB49F900DA49F800D911D33
:10161000112408952F923F924F925F926F927F9282
:101620008F929F92AF92BF92CF92DF92EF92FF92F2
:101630000F931F93CF93DF93CDB7DEB7CA1BDB0B9E
:101640000FB6F894DEBF0FBECDBF09942A88398843
:1016500048885F846E847D848C849B84AA84B9844A
:10166000C884DF80EE80FD800C811B81AA81B98156
:10167000CE0FD11D0FB6F894DEBF0FBECDBFED016A
:1016800008950024A7FD00942A0F301D401D501D11
:10169000601D701D801D901D0895A29FB001B39F15
:1016A000C001A39F700D811D1124911DB29F700D6B
:0C16B000811D1124911D0895F894FFCFB6
:1016BC00FF00000048656C6C6F48656C6C6F576F71
:0816CC00726C64700000000064
:00000001FF
