:100000000C94E9010C9406020C9406020C9406026E
:100010000C9406020C9406020C9406020C942A031B
:100020000C9406020C94EB020C9406020C9406024B
:100030000C9406020C9406020C9406020C94060220
:100040000C9406020C9406020C9470050C940602A3
:100050000C942A050C94DC060C9406020C940602FF
:100060000C9406020C9406026A039603960381031D
:1000700096039603810396039603810396039603E2
:1000800081039603960381039603960390039603D8
:1000900096039303A703AC03E003E003AF03E0037D
:1000A000E003AF03E003E003AF03E003E003AF03CB
:1000B000E003E003AF03E003E003BB03F103F60357
:1000C0002A042A04F9032A042A04F9032A042A0424
:1000D000F9032A042A04F9032A042A04F9032A0446
:1000E0002A040504F6080B09AD09FA09FA09DE0924
:1000F000FC09110D290D3F0D570D9D0DB40DBA0DC5
:1001000030103F10B710C710D3100A111611F41198
:100110009214CB14CB149914CB14A114CB14CB147C
:10012000CB14A814AF14CB14C314CB14CB14B61433
:10013000CB14CB14BD140D0A00746D723000746DB5
:1001400072310D0A000D0A004153534552542000EC
:10015000206D560D0A006D656469616E0074696DED
:10016000656F75740D0A00707320006F7665726696
:10017000756C6C0072657374617274006F76657271
:1001800066756C6C00757362006368617267696E96
:1001900067006469736368617267696E67006465AC
:1001A000706C657465640066756C6C006F6E0070D1
:1001B0006F77657220737461727475700D0A0062D6
:1001C0007320007669620D0A002B0D0A003F0D0AAC
:1001D00000747320006773200074782000727832F6
:1001E00020007278312000677220006361740D0A6C
:1001F00000636D640D0A002E0D0A0070696E670DB4
:100200000A0061636B0D0A006661696C0D0A002AC1
:100210000D0A006869740D0A0067616D650D0A00BA
:100220006176725F7370695F696E69740D0A00525E
:10023000656720007273200064656661756C740DDB
:100240000A0072722000726F0D0A0073656E7420CE
:100250006F6B20286C617465290D0A006D61785FF1
:10026000727420286C617465290D0A0074696D65CB
:100270006F75740D0A0073656E74206F6B0D0A0044
:100280006D61785F72740D0A006E6F20726164692F
:100290006F0D0A00726164696F2064657465637430
:1002A00065640D0A00726164696F5F696E69740D3F
:1002B0000A004153534552542000726164696F2013
:1002C00066756C6C0D0A0041535345525420004131
:1002D00053534552542000727420003F0D0A00739E
:1002E000006E006D00696400646576000D0A003FD1
:1002F0000D0A00706F77657200766F6C74616765C8
:100300000073006E006D0069640067616D650064D4
:100310006576003F0D0A007265626F6F740D0A000A
:10032000706F776572206F6666003F0D0A0075700A
:1003300067726164656420656570726F6D006565E4
:1003400070726F6D2077726F6E6720636865636B84
:1003500073756D0D0A00656570726F6D2077726F31
:100360006E67206D616769630D0A00656570726F65
:100370006D206661696C0D0A00656570726F6D2095
:100380006261636B7570204F4B0D0A00656570727A
:100390006F6D206C6F61646564204F4B0D0A0065C2
:1003A0006570726F6D20736176650D0A006D61690D
:1003B0006E0D0A00656E61626C6520494F0D0A0082
:1003C0000D0A7461675F737720302E332E310D0A6A
:1003D000000011241FBECFEFD8E0DEBFCDBF11E07B
:1003E000A0E0B1E0EAE4F2E302C005900D92A63885
:1003F000B107D9F723E0A6E8B1E001C01D92AE3BFA
:10040000B207E1F70E946B160C9423190C940000BC
:1004100084B58F7084BD85B5887F85BD16BC089571
:1004200084B58C7084BD84B5816284BD85B5807FC0
:1004300085BD85B5896085BD089583ED87BD87B588
:100440008695869588BD5D9A559A89E391E00E94CC
:10045000BA0580E20E94C40487B50E94D10586E3F4
:1004600091E00E94BA05089585B1897F85B91092FF
:1004700080001092810008951092800010928100F7
:10048000009711F1909387008093860080918600F9
:100490009091870096958795909389008093880026
:1004A00080918600909187009695879590938B0018
:1004B00080938A0080918000826B8093800080917D
:1004C000810089618093810008958EE391E00E940C
:1004D000BA0585B1897F85B984B1866084B90895EC
:1004E000109203031092F20210928B0110928A0173
:1004F0000895209103034091F20230E02F5F3F4FB7
:100500002770332750E081E02417350709F080E099
:100510000895CF93C82F0E947902882331F08091EB
:10052000F2028F5F87708093F202E0910303F0E0A4
:10053000E550FD4FC083809103038F5F87708093E8
:100540000303CF9108951092DF021092F1021092EE
:1005500089011092880108952091DF029091F102A3
:1005600081E0291380E008950E94AC0281110DC042
:10057000E091F102F0E0ED50FD4F80819091F102A9
:100580009F5F97709093F10208958FEF08951092F6
:10059000E0021092040310928701109286010895E0
:1005A0002091E0029091040381E0291380E00895F6
:1005B0000E94D00281110DC0E0910403F0E0EF51E0
:1005C000FD4F8081909104039F5F97709093040387
:1005D00008958FEF08951F920F920FB60F92112476
:1005E0002F933F934F935F936F937F938F939F933B
:1005F000AF932091E9023091EA024091EB025091D1
:10060000EC026091ED027091EE028091EF02909108
:10061000F002A1E00E94C0182093E9023093EA02A0
:100620004093EB025093EC026093ED027093EE0264
:100630008093EF029093F002AF919F918F917F9101
:100640006F915F914F913F912F910F900FBE0F903F
:100650001F9018951F920F920FB60F9211242F938F
:100660003F934F935F936F937F938F939F93AF933A
:10067000BF93EF93FF932091E9023091EA024091FA
:10068000EB025091EC026091ED027091EE028091CC
:10069000EF029091F002A1E00E94C0182093E902BD
:1006A0003093EA024093EB025093EC026093ED0228
:1006B0007093EE028093EF029093F002E0918B0131
:1006C0008E2F90E08631910588F5FC01EC5CFF4FA0
:1006D0000C943F17909103038091F202981759F1FF
:1006E0000E941002E091F202F0E0E550FD4F90818F
:1006F0008091F2028F5F87708093F20290938A015B
:1007000015C080918A0180FF03C00E94080202C0C8
:100710000E94100280918A01869580938A0106C00A
:100720000E94080203C010928B0105C080918B01CA
:100730008F5F80938B01E09189018E2F90E084314F
:100740009105F0F5FC01E65BFF4F0C943F173399E0
:100750003CC01092880134C0339B32C02EC08091BF
:1007600088018695339902C090E001C090E1892B01
:100770008093880125C0339B20C0409188018091DF
:10078000DF022091F10290E001968770992730E016
:100790008217930731F48091F1028F5F8770809305
:1007A000F102E091DF02F0E0ED50FD4F40838091D7
:1007B000DF028F5F87708093DF021092890105C08E
:1007C000809189018F5F80938901E09187018E2F4D
:1007D00090E084319105F0F5FC01E25AFF4F0C9452
:1007E0003F1731993CC01092860134C0319B32C012
:1007F0002EC0809186018695319902C090E001C09B
:1008000090E8892B8093860125C0319B20C04091C0
:1008100086018091E0022091040390E001968770A8
:10082000992730E08217930731F4809104038F5F9A
:10083000877080930403E091E002F0E0EF51FD4FF8
:1008400040838091E0028F5F87708093E002109276
:10085000870105C0809187018F5F80938701FF9199
:10086000EF91BF91AF919F918F917F916F915F9128
:100870004F913F912F910F900FBE0F901F901895A1
:10088000F8942091E9023091EA024091EB025091F4
:10089000EC026091ED027091EE028091EF02909176
:1008A000F00278940895F8943091E9022091EA02D8
:1008B0008091EB028091EC028091ED028091EE023A
:1008C0008091EF028091F0027894832F922F089507
:1008D0000E9470020E94A3020E94C70282E08093DD
:1008E000B0008CE78093B30085E08093B100E0E72F
:1008F000F0E08081826080830895A2E0B0E0E3E8C8
:10090000F4E00C94591890919002809191029817FC
:1009100091F0E0919002F0E0EE56FD4F80818A83E5
:10092000809190028F5F8770898389818093900284
:100930008A8190E002C08FEF9FEF2296E2E00C9454
:100940007518A2E0B0E0E7EAF4E00C945918909131
:10095000900280919102981303C00E944B06F7CF3A
:10096000E0919002F0E0EE56FD4F80818A83809105
:1009700090028F5F877089838981809390028A813A
:100980002296E2E00C947518A1E0B0E0EAECF4E005
:100990000C945818182F80918E018F5F8983909145
:1009A0008D018981981303C00E944B06F8CFF894FB
:1009B00080918C01811113C01093C6003091C10049
:1009C0002091C10081E090E001C0880F3A95EAF7DC
:1009D000822B8093C10081E080938C0109C0E0915B
:1009E0008E01F0E0E157FE4F1083898180938E01E4
:1009F00078942196E3E00C94741880919102909180
:100A00009002891B8770089580918E0190918D01CD
:100A1000891B08950E9404058095089580918F0296
:100A20000895589AE0ECF0E0808182608083109213
:100A3000C5008FEC8093C400E1ECF0E088E1808396
:100A40008EE08093C2008081806880838081806492
:100A5000808308951F920F920FB60F9211242F9347
:100A60003F938F939F93EF93FF93CF93DF931F92C7
:100A7000CDB7DEB790918E0180918D01981781F0EE
:100A8000E0918D01F0E0E157FE4F80818093C60038
:100A900080918D018F5F8983898180938D0112C040
:100AA00010928C013091C1002091C10081E090E052
:100AB00002C0880F991F3A95E2F78095909582239E
:100AC0008093C1000F90DF91CF91FF91EF919F91A3
:100AD0008F913F912F910F900FBE0F901F901895FF
:100AE0001F920F920FB60F9211248F939F93EF9343
:100AF000FF93E09191028091C600F0E0EE56FD4F29
:100B00008083809191028F5F877080939102909192
:100B10009002891305C080918F028F5F80938F02AE
:100B2000FF91EF919F918F910F900FBE0F901F90AB
:100B300018950F931F93CF93DF938C01EB011C1635
:100B40001D063CF4F80181918F010E94C404219795
:100B5000F6CFDF91CF911F910F910895CF93DF933F
:100B6000EC018991882319F00E94C404FACFDF9127
:100B7000CF910895CF93DF93FC018491EF012196EB
:100B8000882321F00E94C404FE01F7CFDF91CF91AA
:100B900008958A3010F4805D01C0895A0E94C4040F
:100BA0000895CF93C82F82958F700E94C9058C2F0E
:100BB0008F700E94C905CF910895CF93DF93EC0108
:100BC0008D2F82958F700E94C9058D2F8F700E9486
:100BD000C905CE0124E0969587952A95E1F78F7097
:100BE0000E94C9058C2F8F700E94C905DF91CF919B
:100BF0000895CF92DF92EF92FF926B017C01DC01AE
:100C0000CB012CE1B695A795979587952A95D1F7B5
:100C10000E94C9058F2D8F700E94C905D701C6019A
:100C200034E1B695A795979587953A95D1F78F704A
:100C30000E94C9058E2D8F700E94C905D701C6017B
:100C40004CE0B695A795979587954A95D1F78F7003
:100C50000E94C9058D2D8F700E94C905D701C6015C
:100C600054E0B695A795979587955A95D1F78F70CB
:100C70000E94C9058C2D8F700E94C905FF90EF90CE
:100C8000DF90CF90089585E491E00E94BA05089521
:100C900080E090E0089580919A0290919B020097E5
:100CA00039F0A895019790939B0280939A0201C016
:100CB000289A83B7816083BF83B7817F83BF88957C
:100CC00083B78E7F83BF08958FEF9FEF90939B0232
:100CD00080939A020E944B060895CF93DF93EC0114
:100CE0000E945304C80FD91F0E9453049E01281B61
:100CF000390B37FD03C00E944B06F6CFDF91CF9131
:100D00000895009771F001971816190654F4000021
:100D100000000000000000000000000000000000D3
:100D2000F2CF08958C01EB010E944306C8010E9496
:100D3000BA0580E20E94C404CE010E94DD050E9433
:100D4000430688EE93E00E946D06289AEDCF9FE05F
:100D500088E10FB6F894A895809360000FBE909339
:100D6000600080B7806880BF78940E9468042898EB
:100D7000209A8FEF9FEF90939B0280939A020E949C
:100D80004B0608950E94400408950E94530408955C
:100D90000E944004B901CA010895ECE7F0E0908197
:100DA000907F908390818F70982B9083EAE7F0E09A
:100DB00080818064808308951F920F920FB60F92F6
:100DC00011242F933F934F935F936F937F938F9350
:100DD0009F93AF93BF93EF93FF93809178002091FF
:100DE000790090E0922BE0910001F0E0EE0FFF1F00
:100DF000E456FD4F91838083809100018F5F809343
:100E0000000180910001833048F4E0910001F0E09E
:100E1000EE5BFE4F80810E94CD0605C080917A0076
:100E2000877F80937A00FF91EF91BF91AF919F915F
:100E30008F917F916F915F914F913F912F910F9083
:100E40000FBE0F901F90189581E080937E0080EC7C
:100E500080937C0087E880937A00089510920001C7
:100E6000EAE7F0E0808188608083E0910001F0E0B3
:100E7000EE5BFE4F80810E94CD06089590910001A7
:100E800081E0933009F080E00895CF93C82F83303C
:100E900030F067EA70E088E491E00E949206EC2F5F
:100EA000F0E0EE0FFF1FE456FD4F80819181CF915E
:100EB0000895A0E2B0E0EFE5F7E00C9453186C0160
:100EC0004091AE025091AF028AE0E82EF12C8E01E3
:100ED0000F5F1F4F9A0140E050E060E070E080E05B
:100EE00090E00E948A12C6010E94BA0580E20E9428
:100EF000C404C8010E94AE0580E591E00E94BA05D5
:100F00008091AE029091AF029093AC028093AB02BD
:100F1000A096E8E00C946F18A5E0B0E0E2E9F7E0F5
:100F20000C9449180E943E07882309F409C180E007
:100F30000E9445079C838B8381E00E9445074C01FA
:100F400082E00E9445072B813C812815390528F055
:100F50008217930708F406C11CC02B813C81281717
:100F60003907B8F48816990608F002C12B813C8134
:100F70008216930608F000C12817390740F467EA83
:100F800070E086E591E00E9492068FEF9FEF9C83D0
:100F90008B830E942E0720911601309117014091FA
:100FA000180150911901AB81BC810E944517209115
:100FB000A20229831B012C01612C712C43012034D6
:100FC00008F050C02F5F29832093A202422F50E0E7
:100FD00041505109952F990F990BA090A302B09001
:100FE000A402C090A502D090A602E090A702F090C3
:100FF000A8020091A9021091AA029A01492F592F23
:10100000692F792F892F0E9450177901142F5A8345
:10101000B62FA72FF82FE92F9101A20160E070E011
:1010200080E090E006E00E94801859016A01762E67
:10103000872E082F992E9701412F5A816B2F7A2FD7
:101040008F2F9E2FE72CF82C192D0E94B718A980FE
:10105000B12CC12CD12CE12CF12C00E010E00E942D
:10106000DC173DC08FE3A82EB12CC12CD12CE12C74
:10107000F12C00E010E02091A3023091A4024091F5
:10108000A5025091A6026091A7027091A8028091DA
:10109000A9029091AA020E94501729833A834D8396
:1010A0005B83B62FA72FF82FE92F9101A20160E0F3
:1010B00070E080E090E006E00E94801859016A012B
:1010C0007B018C0129813A814D815B816B2F7A2FC5
:1010D0008F2F9E2F0E94B71806E00E949B18209326
:1010E000A3023093A4024093A5025093A6026093FA
:1010F000A7027093A8028093A9029093AA0220915C
:10110000A3023091A4024091A5025091A6026091E1
:10111000A7027091A8028091A9029091AA0206E00C
:101120000E949B18B901CA0128EE33E040E050E06C
:101130000E941D17C9013093AF022093AE0224C054
:101140008DE591E00E94BA0564E670E08FEF9FE3C1
:101150000E94400A1092B00286E08093B1028FEFA5
:101160009FEF12C02B813C818216930640F011CF75
:101170008815990508F40BCF9C828B820ACF8816BC
:10118000990608F4F3CEF8CF2596E2E10C946518A1
:101190000E94240728985B98539A08954F925F9273
:1011A0006F927F928F929F92AF92BF92CF92DF9277
:1011B000EF92FF92E091B1028E2FEE0F990BAA0BE6
:1011C000BB0BFC013197E730F10520F4EE58FF4FDF
:1011D0000C943F17289853980E942E078FEA91E0AD
:1011E0000E94BA051092B00281E012C00E948C07E2
:1011F000019609F415C18091B0028E310CF4EBC058
:101200008CEA91E00E94590728981092B00282E07F
:101210008093B10205C10E948C077C018FEFE81614
:10122000F80609F4FDC029E6E21620E1F20698F579
:101230004701A12CB12C80911A0190911B01A09122
:101240001C01B0911D0188159905AA05BB0568F51B
:101250008091160190911701A0911801B091190188
:10126000BC01CD0169517C4F8F4F9F4F28EE33E079
:1012700040E050E00E941D178091AB029091AC02BB
:1012800029013A01480E591E611C711C4814590469
:101290006A047B0450F487EA91E00E94590753984E
:1012A000289A1092B00283E014C028EBE2162BE0DB
:1012B000F20690F45398289A8EE991E00E9459071B
:1012C00064EF71E08FEF9FE30E94400A1092B0023A
:1012D00085E08093B1023EC0C090AE02D090AF02D4
:1012E000E12CF12C8091160190911701A091180129
:1012F000B0911901BC01CD0169517C4F8F4F9F4FB7
:1013000028EE33E040E050E00E941D178091AB02D0
:101310009091AC02A0E0B0E046015701820E931E0E
:10132000A41EB51E88169906AA06BB0620F453987B
:1013300082E991E00DC0820F931FA41FB51F8C1589
:101340009D05AE05BF0530F45B98539A89E891E09E
:101350000E9459070E942E0763C0289A0E948C079A
:10136000AC014F3F8FEF580709F45AC0413321E1D8
:10137000520758F085E891E00E9459075B9A539A0A
:101380008CE38093B00284E043CF9091B0029C3311
:1013900024F49F5F9093B00243C02091AB02309140
:1013A000AC022E5C3F4F24173507D0F55B98539A5B
:1013B0008CE791E00E94590787E02ACF289A809114
:1013C000B0028A3064F464E670E08FEF9FE30E941D
:1013D000400A8091B0028F5F8093B00221C084E701
:1013E00091E00E9459075B98539A0E94240710923B
:1013F000B10216C0289A14C0289A8BE691E00E9488
:10140000590764E873E08FEF9FE30E94400A5E98FB
:1014100045985F98539A5B9902C05B9A01C05B98AC
:101420009091B1028091AD02981771F087E691E03A
:101430000E94BA058091B1020E94C9050E9443062C
:101440008091B1028093AD020E946406FF90EF90FC
:10145000DF90CF90BF90AF909F908F907F906F90D4
:101460005F904F9008958091AE029091AF020895E1
:101470008091B10208951092050310920603089519
:10148000AC01209105038091060330E02F5F3F4FB0
:101490002F70332790E02817390731F49091060315
:1014A0009F5F9F7090930603E091050384E0E89F9F
:1014B000F0011124E95FFC4F51834083E091050363
:1014C00084E0E89FF0011124E95FFC4F738362839D
:1014D000809105038F5F8F7080930503089580913D
:1014E000060390910503891B80958F7008950895D8
:1014F000CF93DF938091B502813071F19091050314
:1015000080910603981709F45FC0C0910603D0E0EC
:10151000809106038F5F8F70809306030E94C5063B
:10152000FE01EE0FFF1FEE0FFF1FE95FFC4F228150
:101530003381820F931F9093B4028093B302808112
:101540009181009719F00E943C0202C00E9434026F
:1015500081E08093B50238C00E94C5062091B30295
:101560003091B402821B930B97FD2EC0909105031E
:1015700080910603981721F1C0910603D0E0809175
:1015800006038F5F8F70809306030E94C506FE01DD
:10159000EE0FFF1FEE0FFF1FE95FFC4F228133812B
:1015A000820F931F9093B4028093B3028081918144
:1015B000009719F00E943C0207C00E94340204C048
:1015C0000E9434021092B5029091B5028091B2024D
:1015D000981771F08FEB91E00E94BA058091B502E7
:1015E0000E94C9050E9443068091B5028093B20211
:1015F0008091B602811109C08091B702882341F021
:101600005E9881E08093B60203C05E9A1092B602A3
:10161000DF91CF91089581E08093B70208951092F1
:10162000B70208950E940B0B45981092BE0283ECFE
:1016300091E00E94BA055F9A0E94C5068854944FB3
:10164000092E000CAA0BBB0B8093BF029093C00223
:10165000A093C102B093C20281E08093C7020895B3
:1016600062E370E08FEF93E00E94400A64E670E06E
:101670008FEF9FE00E94400A68EC70E08FEF9FE3DD
:101680000E94400A60E273E08FEF9FEF0E94400AE1
:1016900062E370E080E090E00E94400A0895A5E0D7
:1016A000B0E0E5E5FBE00C945718082F0E94F21318
:1016B000182F802F0E94D10580E20E94C404812F40
:1016C0000E94D1051F3F29F48DEC91E00E94BA05DC
:1016D0004AC089EC91E00E94BA0581E48983409177
:1016E000C3025091C4026091C5027091C6024A8340
:1016F00020910A0180910E018F73922F9295990F7C
:10170000990F907C982B9B8391E0213009F490E015
:101710009295990F990F907C892B8C831D834F5F35
:101720005F4F6F4F7F4F4093C3025093C40260934B
:10173000C5027093C60265E0CE0101960E94680F53
:1017400080910A0190910B01A0910C01B0910D01C3
:10175000892B8A2B8B2B39F40E940B0B0E94300BA8
:1017600081E08093BE022596E4E00C94731889E131
:1017700092E00E94BA050E94C506092E000CAA0B31
:10178000BB0B8093BF029093C002A093C102B093A1
:10179000C2020895A5E0B0E0E0EDFBE00C94531820
:1017A000FC0112811F73C12ED12CE12CF12C409130
:1017B0000E0150910F016091100170911101C4163A
:1017C000D506E606F70699F5018183E192E00E94CD
:1017D000BA050E940B0B81E689830A8320910A01D6
:1017E00080910E01322F3295330F330F307C982FBA
:1017F0009F73932B9B8391E0213009F490E09295A5
:10180000990F990F907C892B8C831D8365E0CE0105
:1018100001960E94680F882321F088E092E00E94E0
:10182000BA050E94300B81E08093BE0204C08FE0B5
:1018300092E00E94BA052596E8E00C946F18CF92CA
:10184000DF92EF92FF92FC01248140910E015091B2
:101850000F01609110017091110182818F7390E0EE
:10186000A0E0B0E06A017B01FFE3CF22DD24EE249B
:10187000FF248C159D05AE05BF05C1F482E092E002
:101880000E94BA0580910A0190910B01A0910C0170
:10189000B0910D01892B8A2B8B2B01F10E940B0B30
:1018A0000E94300B81E08093BE0218C042274F7324
:1018B000552766277727452B462B472B59F48BEF67
:1018C00091E00E94BA0562E370E08FEF93E00E941E
:1018D000400A04C087EF91E00E94BA05FF90EF90A4
:1018E000DF90CF900895FC0120812F71213011F4F9
:1018F0000E94CA0B0895FC0190819F71913021F4E0
:10190000CF010E941F0C089581EF91E00E94BA055B
:101910000895FC019081929596959770923031F0E0
:10192000933041F4CF010E947B0C0895CF010E94B7
:10193000730C08958BEE91E00E94BA050895A5E01E
:10194000B0E0E5EAFCE00C9449180E94C8066B017F
:101950007C018091BF029091C002A091C102B09120
:10196000C20226013701481A590A6A0A7B0A86B15F
:101970008470382ECE0101964C0185E0F40111925D
:101980008A95E9F765E0C4010E943E0F282E88235E
:10199000B9F087EE91E00E94BA0584015E01F6E09D
:1019A000AF0EB11CF80181918F010E94D1050A157B
:1019B0001B05C1F70E944306622DC4010E94890CD9
:1019C0000E94AC0281110AC00E94B402182F82EE5C
:1019D00091E00E94BA05812F0E944F0B0E94D00215
:1019E00081110AC00E94D802182F8DED91E00E944B
:1019F000BA05812F0E944F0BE091C7028E2FEE0F88
:101A0000990BAA0BBB0BFC013197E730F10530F4C1
:101A1000E758FF4F8091BE020C943F170E940B0BBA
:101A200008C0882319F00E94120BA8C077FCA6C03A
:101A3000459AD701C6018854944FAF4FBF4F80934A
:101A4000BF029093C002A093C102B093C20282E091
:101A50002BC08111E8CF77FC91C00E940F0BD701FA
:101A6000C6018854944FAF4FBF4F8093BF029093ED
:101A7000C002A093C102B093C20283E015C08111DD
:101A8000D2CF77FC7BC00E940F0BD701C6018854D0
:101A9000944FAF4FBF4F8093BF029093C002A0936B
:101AA000C102B093C20284E08093C70267C0811173
:101AB000BACF332009F43FC080910E010E94E81391
:101AC000182F89ED91E00E94BA05812F0E94D1055F
:101AD00080E20E94C40480910E010E94D1050E9400
:101AE0004306812F0E9489025F980E940B0B62E3DC
:101AF00070E08FEF9FE30E94400A62E370E08FEF97
:101B00009FE00E94400A62E370E08FEF9FE30E9433
:101B1000400A85E08093C702D701C6018C599F4FC8
:101B2000AF4FBF4F8093BF029093C002A093C102FA
:101B3000B093C20223C05F9A21C0811174CF77FC99
:101B40001DC00E940F0B5F9AD701C6018C599F4F91
:101B5000AF4FBF4F8093BF029093C002A093C102CA
:101B6000B093C20286E0A0CF81115DCF311004C0D6
:101B700087E09ACF811157CF77FE95CF9091C7021A
:101B80008091BD02981771F085ED91E00E94BA0531
:101B90008091C7020E94C9050E9443068091C70236
:101BA0008093BD028091BC023816A1F081ED91E0D6
:101BB0000E94BA05832D0E94C9050E9443063092F7
:101BC000BC02C092B802D092B902E092BA02F0927E
:101BD000BB0216C03320A1F08091B8029091B902E7
:101BE000A091BA02B091BB02C81AD90AEA0AFB0A4C
:101BF000F1E7CF16F7E1DF06E104F1040CF0289AD3
:101C00002596E2E10C94651808958091C702089525
:101C1000CF93C82F81E090E00E948106CEBD0DB425
:101C200007FEFDCF8EB5CF91089580E292E00E942D
:101C3000BA0584B18C6284B980E58CBD089580E0DA
:101C400090E00E94810608955C980E94080E80939F
:101C5000D1025C9A0E941F0E0895CF93C62F5C9804
:101C600080620E94080E8093D1028C2F0E94080E81
:101C7000C82F5C9A0E941F0E8C2FCF91089560E7A9
:101C800087E00E942D0E08955C9881EE0E94080E58
:101C90008093D1025C9A0E941F0E0895CF935C98A6
:101CA0000E94080E8093D10280E00E94080EC82F87
:101CB0005C9A0E941F0E8C2FCF91089544980E9429
:101CC000440E0E943F0E6EE080E00E942D0E0E94A6
:101CD0001F0E0895FF920F931F93CF93DF93EC0194
:101CE0008B01F42E298188818F5F877090E0422FCD
:101CF00050E08417950719F42F5F277029832A81F4
:101D0000422F50E08417950719F42F5F27702A831C
:101D100025E02F1530F460EB70E082EB92E00E943A
:101D2000920688819E0145E0849F200D311D11247B
:101D3000C9014F2DB80103960E94FD1388818F5F62
:101D400087708883CDB7DEB7E5E00C947218EF9208
:101D5000FF921F93CF93DF937B01C42F5C98806227
:101D60000E94080E8093D10210E0D0E0812F012E56
:101D7000000C990B8C179D0744F4F701E80FF91F2D
:101D800080810E94080E1F5FF1CF5C9A0E941F0E97
:101D9000DF91CF911F91FF90EF900895FF920F93E5
:101DA0001F93CF93DF93EC01062F449880E090E0DF
:101DB0000E94810681EE0E94240E80E090E00E9445
:101DC00081065C9880EA0E94080E8093D102F12C73
:101DD00010E08F2D0F2C000C990B8017910744F405
:101DE000FE01E80FF91F80810E94080EF394F1CFE5
:101DF00080E090E00E9481065C9A80E090E00E9482
:101E00008106449A0E940A05803480F087ED92E0B2
:101E10000E94BA050C0F1D1FC017D10721F0899130
:101E20000E94D105F9CF0E94430607C085E20E94B7
:101E3000C4048AE090E00E94810644980E941F0E2C
:101E4000CDB7DEB7E5E00C94721860E487E00E943D
:101E50002D0E5C9882EE0E94080E8093D1025C9A4F
:101E60000E941F0E65E081E10E942D0E6FE080E070
:101E70000E942D0E0E941F0E449A08950F931F93E7
:101E8000CF938C01C62F653031F068E673E08FEC9C
:101E900092E00E949206609173038091720386170C
:101EA00091F085E0689FB00111246B587C4F4C2F56
:101EB000C8010E94FD13809173038F5F8770809328
:101EC00073038C2F01C080E0CF911F910F91089573
:101ED0001F93CF93DF93EC01162F653031F069E744
:101EE00073E087EC92E00E949206809147038F5F37
:101EF000877090E02091480330E08217930731F417
:101F00008AEB92E00E94BA058FEF18C0412FBE0104
:101F100087E493E00E946A0E809147038F5F877089
:101F200090E02091480330E08217930731F0412F71
:101F3000BE0187E493E00E946A0E80E0DF91CF91BA
:101F40001F910895E7E4F3E081819081891B8095DA
:101F500087700895CF93C82F0E94C5064091CB0289
:101F60005091CC026FE1649F9001659F300D112468
:101F7000820F931F9093CC028093CB026C2F70E062
:101F80000E940917CF9108950E94150E85EA92E0EC
:101F90000E94BA05E2E7F3E0108211821282E7E4C0
:101FA000F3E010821182128244983C9A8AE090E019
:101FB0000E9481065C9A549A8AE090E00E94810611
:101FC0005A9A8AE090E00E9481060E943F0E8AE0C1
:101FD00090E00E94810645E06AE471E08AE00E9498
:101FE000A70E45E06AE471E080E10E94A70E61E07F
:101FF00082E00E942D0E6AE485E00E942D0E60E0D2
:1020000081E00E942D0E60E084E00E942D0E0E946F
:10201000C50688579C4E9093D5028093D4020895AC
:10202000A5E0B0E0E6E1F0E10C944C180E94C50692
:102030008C018091D4029091D5027801E81AF90AB6
:102040008FEF0E94240ED090D6028D2D90E0883024
:10205000910508F0EFC1FC01E058FF4F0C943F17C9
:10206000F7FCF7C18FEF0E94240E8091D6028F5F9C
:102070008093D6021092D3021092D20272C00E94B4
:102080000A0587FFE6C1F090D20280E1F81609F454
:1020900006C28F1548F099E09F1508F002C2EAE0E9
:1020A000FE1609F4FCC129C0F7E1FF1609F4F9C1D5
:1020B000FF1528F081E1F81609F4F3C11EC084EE83
:1020C0008F0D8230D0F4EDC15C9A0E941F0E8FE21A
:1020D00092E00E94BA058F2D0E94D10580E20E94F5
:1020E000C4047401F70181917F010E94D1058E2DF6
:1020F00088198D15B8F30E94430689819091C80212
:10210000911111C0882379F08F3F69F08091D2023C
:102110009091D3020A973CF484E992E00E94BA05B8
:1021200081E08093C8028091D2029091D3020196FF
:102130009093D3028093D2028097B4F01092D3028E
:102140001092D2028091C802811106C089E892E003
:102150000E94BA058FEF18C08091D6028F5F8093DE
:10216000D60208511C4F71C10C591F4F6EC1F7FCAC
:1021700070C10E945E0E0E5F1F4F1093D502009338
:10218000D4028091D6028F5F8093D60262C1F7FCA1
:1021900060C185E0E5E4F1E0DE01119601900D9269
:1021A0008A95E1F73AC18091D10284FF13C080E89B
:1021B00092E00E94BA050E943F0E0E94440EC801A0
:1021C00002969093D5028093D4028091D6028F5FBD
:1021D0008093D6028091D10285FF11C086E792E0FC
:1021E0000E94BA050E943F0EC80102969093D50244
:1021F0008093D4028091D6028F5F8093D6021E1402
:102200001F040CF026C18CE692E00E94BA050E94E1
:102210003F0EB1CFF7FC1DC10E94250F80E20E9446
:10222000AA0F0E5F1F4F080F111DA7CF8091D1027B
:1022300084FF08C08CE592E00E94BA0560E187E067
:102240000E942D0E8091D10285FF08C08BE492E0A0
:102250000E94BA0560E287E00E942D0E8091D102B3
:1022600086FF23C0CE0101966C0185E0F601119234
:102270008A95E9F78091D1028E70A82EB12CB59481
:10228000A7948A2CF3E0AF16E1F0FA1538F081E05C
:10229000A81699F092E0A91691F00DC0E4E0AE16F0
:1022A00091F0F5E0AF1689F006C087E10E944E0E6E
:1022B00080FFD8CF90C081E109C082E107C083E1EF
:1022C00005C084E103C085E101C086E10E944E0E95
:1022D000982E8091CE02891104C08091CD0288167B
:1022E00091F080E70E94C4048A2D0E94C90580E213
:1022F0000E94C404892D0E94D1050E944306909239
:10230000CE02A092CD025C9881E60E94080E8093D6
:10231000D10256013E0186E0680E711C460180E044
:102320000E94080EF40181934F016E167F06B9F7E3
:102330005C9A0E941F0E60E487E00E942D0E909030
:102340007403812C95E0592E80917203981689F0C0
:10235000599CB00111246B587C4F45E0C6010E9486
:102360000714811101C0839481E0890D8770982E34
:10237000EBCF882061F080910101882339F186E458
:1023800092E00E94BA058091010181501DC045E094
:10239000B60182E793E00E946A0E0E940A0580342B
:1023A00078F082E492E00E94BA05F50181915F0124
:1023B0000E94D105A614B704C1F70E94430603C0CA
:1023C00084E20E94C4048FEF809301018091CA02CD
:1023D0008F5F8093CA02F7FC3CC0909147038091C5
:1023E00048039813C6CE31C0F7FC33C06091480350
:1023F00080914703861789F0F5E06F9FB0011124A3
:10240000665B7C4F45E0CE0101960E94FD138091F2
:1024100048038F5F87708093480365E0CE01019683
:102420000E94CE0E08511C4F1093D5020093D40287
:1024300084E0AACEF7FC0DC088E392E00E94BA05C2
:102440008FEF0E94240E08571C4E1093D502009364
:10245000D4029091D6028091D002981306C0909138
:10246000D1028091CF029817C9F184E392E00E94D3
:10247000BA058091D6020E94C90580E20E94C40478
:102480008091D1020E94D1050E9443068091D6021C
:102490008093D0028091D1028093CF021FC085E04B
:1024A000D82E5C988F2D0E94080E8093D102E12CCB
:1024B0006D2C712CCE0101964C01AE2C0E2C000C13
:1024C000BB08A614B7040CF0FFCD80E00E94080EF4
:1024D000F401EA0DFB1D8083E394EFCF2596EFE036
:1024E0000C9468188091CA029091C902891719F05A
:1024F0008093C90208959091720380917303981399
:1025000008C080917403981721F08F5F87708093C3
:1025100074030895AAE1B0E0E0E9F2E10C944918EF
:1025200039014A016A8F798F8987492E1801FB8604
:10253000EA86A0E00E94CC1831F480E3D8018C93A5
:1025400011961C92C9C06A8D798D8985A0E00E9480
:10255000CC187CF4EA85FB853A9759F40E94391827
:1025600039014A016A8F798F8987492EF1E0FE8708
:1025700001C01E863D862C86388E2F8A1F86188ABB
:10258000198A1A8A1B8A1C8A1D8A1E8A5B84550C2A
:102590005508AA84BB84C52CD52CE52CF52C052D1B
:1025A000152D9301A4016A8D798D8985942D0E9442
:1025B000A917E22FD32E7A018B01B82FF92F2F857F
:1025C000388949895A896B897C898D899E89A1E0DE
:1025D0000E94C01829833A834B835C836D837E837A
:1025E0008F8398872E2F3D2DA701B8018B2F9F2F0A
:1025F000A9E00E94CC1819F014F0E95A01C0E05D7E
:10260000AF89B88DED93B88FAF8BAA84BB84C52CEE
:10261000D52CE52CF52C052D152D9301A4016A8DE3
:10262000798D8985942D0E94AB1739014A016A8FF3
:10263000798F8987492EA0E00E94CC1889F0898182
:102640008F879A81988BAB81A98BBC81BA8BED81E6
:10265000EB8BFE81FC8B8F818D8B98859E8B99CF28
:10266000BE85BB23C9F02F85388949895A896B8972
:102670007C898D899E89A2E00E94C018E981FA8137
:10268000E20DF31DADE2A08329833A834B835C8383
:102690006D837E838F83988749815A81FA01E20D89
:1026A000F31D1082CF0120E030E041505109BA0102
:1026B000621B730B261737077CF4EC85FD85608160
:1026C0000197FC017081AC85BD857D93BD87AC878A
:1026D00060832F5F3F4FEBCFC1016A96E2E10C941C
:1026E0006518A3E0B0E0E7E7F3E10C9449189B8399
:1026F0008A8377247394812C912C412C312C212CAA
:10270000512C612CEA81FB81FB83EA838191803229
:10271000D9F38D32C1F4EA81FB813196FB83EA83E0
:10272000272D382D492D542D632D722D852D962D55
:102730000E943918722E832E942E452E362E272E67
:10274000582E692EDFCF8B3211F4FB83EA8320E011
:1027500030E040E050E060E070E080E090E0EA814E
:10276000FB81A191FB83EA83A983EA2FE053EA303E
:1027700008F5EAE0AE2EB12CC12CD12CE12CF12CC5
:1027800000E010E00E94501759016A017B018C01A2
:10279000F9814F2FFF0F550B40535109952F990F7A
:1027A000990B9A01492F592F692F792F892F0E9450
:1027B000B718D5CFA72CB82CC92CD42CE32CF22CCD
:1027C000052D162D0E9450172396E2E10C946518F2
:1027D0008A3130F4E82FF0E0E459FE4F808108950B
:1027E0008FEF089581508D3130F4E82FF0E0E15BF8
:1027F000FE4F808108958FEF0895FB01442331F04F
:102800002191DC012D93CD014150F8CF0895DC01D9
:10281000FB01442331F09D918191981B21F441509B
:10282000F8CF80E00895892F0895A0E2B0E0EBE1B1
:10283000F4E10C9455188B010E94BA0580E20E94C5
:10284000C404A8018AE0E82EF12C8E010F5F1F4F0F
:102850009A0140E050E060E070E080E090E00E948B
:102860008A12C8010E94AE058CEE92E00E94BA0561
:10287000A096E6E00C9471181092D70208950E9479
:102880007D0497FD0FC18032910584F02091D7021D
:10289000203218F08AE293E0FAC0E22FF0E0E3562B
:1028A000FC4F80832F5F2093D70208958A309105D3
:1028B00021F08D30910509F0EDC0E091D702F0E0F4
:1028C000E356FC4F1082ADE9B3E0FD018D918032FB
:1028D000E1F38F3609F462C044F4853671F087362F
:1028E00009F0D3C0DF0111960BC0823709F45DC037
:1028F000833709F0CAC031965DC00E941116D0C05E
:10290000ED91E032E9F38E2FEE0F990BAA0BBB0B82
:10291000FC01E456F109E331F105E8F5E857FF4F12
:102920000C943F1760910A0170910B018FE093E0C6
:1029300095C00E94050E682F880F770B8AE093E000
:102940008DC0609106017091070187E093E086C019
:10295000609116017091170185E093E07FC060914E
:102960000E0170910F0183E093E078C060911A012D
:1029700070911B0181E093E071C00E94330ABC0199
:1029800089EF92E06BC00E94380A682F880F770B9E
:1029900083EF92E063C08FEE92E079C06FE970E060
:1029A00080E293E00E9492067BC087E193E00E9460
:1029B000BA05FFCF9F0191919032E1F39D36F1F17D
:1029C000B4F4943651F1993609F05CC0C90101960E
:1029D0000E94711320930601309307014093080170
:1029E00050930901622F732F85EE92E037C09E3617
:1029F000C1F1933709F046C0C90101960E947113D5
:102A000020931A0130931B0140931C0150931D0128
:102A1000622F732F8FED92E021C0C90101960E94B1
:102A2000711320930A0130930B0140930C015093D2
:102A30000D01622F732F88EE92E010C0C90101963C
:102A40000E947113209316013093170140931801CF
:102A500050931901622F732F83EE92E00E94151498
:102A60001FC0C90101960E94711320930E0130937B
:102A70000F014093100150931101622F732F81EECB
:102A800092E0ECCF8BED92E002C083E193E00E94F4
:102A9000BA0506C08B31910509F4FFCF0E94D1051C
:102AA0001092D7020895A0E4B0E0E9E5F5E10C94B6
:102AB0004F1840E450E0BC01CE0101960E94FB1883
:102AC00089819A81AB81BC818E010F5B1F4F81325E
:102AD0009140A105B10509F055C02196CCACDDAC03
:102AE000EEACFFAC219721961CAE1DAE1EAE1FAE04
:102AF0002197FE01319620E030E0A901AFE1B0E07E
:102B00000E94451721914B015C01820E911CA11C72
:102B1000B11CA5019401E017F10781F7C814D9048D
:102B2000EA04FB0479F582E291E0A0E0B0E0898359
:102B30009A83AB83BC8384E090E1A0E0B0E0898F0E
:102B40009A8FAB8FBC8FFE01319620E030E0A90157
:102B5000AFE1B0E00E94451721915B016C01A20E2C
:102B6000B11CC11CD11CA6019501E017F10781F72A
:102B70002196ACAEBDAECEAEDFAE21978EE293E035
:102B80000E94BA052196CCACDDACEEACFFAC21972F
:102B900021961CAE1DAE1EAE1FAE2197FE013196D2
:102BA00020E030E0A901AFE1B0E00E94451721919B
:102BB0004B015C01820E911CA11CB11CA50194016A
:102BC000E017F10781F789809A80AB80BC80809103
:102BD000020190910301A0910401B09105018816B2
:102BE0009906AA06BB0619F086E593E007C0C2164F
:102BF000D306E406F50631F08EE393E00E94BA05B1
:102C00008FEF0AC080E4FE013196A2E0B1E00190AE
:102C10000D928A95E1F780E0C05CDF4FECE00C9408
:102C20006B18EF92FF920F931F9310923E01109238
:102C30003F011092400110924101E2E0F1E020E0FA
:102C400030E0A901AFE1B0E00E94451721917B017E
:102C50008C01E20EF11C011D111DA801970101E07C
:102C6000E234F00779F720933E0130933F0140931F
:102C700040015093410140E450E060E070E082E0A8
:102C800091E00E940B1940E450E060E072E082E0C5
:102C900091E00E940B198FE993E00E94BA051F9101
:102CA0000F91FF90EF90089580E090E00E945315FF
:102CB000811103C08CE893E00BC080E092E00E9499
:102CC0005315811103C089E793E002C08BE693E0BE
:102CD0000E94BA0508950E94A7060E94110580EC83
:102CE00093E00E94BA0584E690E00E946D060E947F
:102CF0001D020E94650284EB93E00E94BA0584E6FF
:102D000090E00E946D06569A579A3D9A429A419ACF
:102D1000439A84E690E00E946D060E9454160E9439
:102D2000770A84E690E00E946D060E94C80884E657
:102D300090E00E946D060E94C40F84E690E00E941D
:102D40006D060E94B70B84E690E00E946D060E941B
:102D50003C1484E690E00E946D068DEA93E00E94A8
:102D6000BA050E94C50688519C4F9093DE0280935D
:102D7000DD02C2E00E943F140E9410100E949F0CCE
:102D80000E94780A8091D802823001F13CF48823B5
:102D900061F0813031F5C093D80238C08330F1F052
:102DA0008430F9F40E94040E13C00E94C5062091DD
:102DB000DD023091DE02821B930B97FD27C0285164
:102DC0003C4F3093DE022093DD0202C00E94CE0809
:102DD0008091D8028F5F8093D80218C00E9472122F
:102DE000F7CF8091D9029091DA02A091DB02B091E5
:102DF000DC020196A11DB11D8093D9029093DA02E5
:102E0000A093DB02B093DC021092D8020E944B0622
:102E1000B1CF97FB072E16F4009407D077FD09D0A9
:102E20000E94D81807FC05D03EF4909581959F4FDD
:102E30000895709561957F4F0895A1E21A2EAA1BFF
:102E4000BB1BFD010DC0AA1FBB1FEE1FFF1FA2175A
:102E5000B307E407F50720F0A21BB30BE40BF50B57
:102E6000661F771F881F991F1A9469F760957095E0
:102E7000809590959B01AC01BD01CF010895EE0FA7
:102E8000FF1F0590F491E02D09940E94EC18A59F76
:102E9000900DB49F900DA49F800D911D1124089555
:102EA000DF93CF931F930F939A9DF02D219FF00DE9
:102EB0008B9DF00D8A9DE02DF10D039FF00D029F7B
:102EC000E00DF11D4E9DE00DF11D5E9DF00D4F9D3D
:102ED000F00D7F936F93BF92AF925F934F93D501A5
:102EE0000E94EC188B01AC01D7010E94EC18EB0199
:102EF000E80FF91FD6010E94A0172F913F91D6012C
:102F00000E94EC18C60FD71FE81FF91FAF91BF91A1
:102F10000E94A0172F913F910E94EC18C60FD71F57
:102F2000E81FF91FD6010E94EC18E60FF71F980161
:102F3000BE01CF0111240F911F91CF91DF91089510
:102F40000E94EC18460F571FC81FD91F08F431966E
:102F50000895689401C0E894F92FF12B12F00C94B5
:102F6000DD17A0E0B0E0E7EBF7E10C944F18092E75
:102F7000059422F40E943918112392F4F0E80F26E8
:102F8000FFEFE094F09400951095B094C094D09425
:102F9000A194BF0ACF0ADF0AEF0AFF0A0F0B1F0B2B
:102FA0000E94E81707FC0E943918CDB7DEB7ECE0A5
:102FB0000C946B18689401C0E8948F929F92CF9301
:102FC000DF930E94E817DF91CF919F908F90089533
:102FD00088249924F401E401B0E49F93AA279A1568
:102FE0008B049C04ED05FE05CF05D007A10798F4DE
:102FF000AD2FDC2FCF2FFE2FE92D982C892E982F67
:10300000872F762F652F542F432F322F2227B8502A
:1030100031F7BF9127C01B2EBF91BB27220F331F53
:10302000441F551F661F771F881F991F881C991CF6
:10303000EE1FFF1FCC1FDD1FAA1FBB1F8A149B049E
:10304000EC05FD05CE05DF05A007B10748F08A189D
:103050009B08EC09FD09CE09DF09A00BB10B21602B
:103060001A94E1F62EF49401AF01BE01CD01000CDB
:103070000895609570958095909530954095509500
:1030800021953F4F4F4F5F4F6F4F7F4F8F4F9F4F58
:1030900008952F923F924F925F926F927F928F92FC
:1030A0009F92AF92BF92CF92DF92EF92FF920F93D7
:1030B0001F93CF93DF93CDB7DEB7CA1BDB0B0FB6E1
:1030C000F894DEBF0FBECDBF09942A88398848889E
:1030D0005F846E847D848C849B84AA84B984C88434
:1030E000DF80EE80FD800C811B81AA81B981CE0F2B
:1030F000D11D0FB6F894DEBF0FBECDBFED01089510
:103100000F93083090F0982F872F762F652F542F2C
:10311000432F322F22270850F4CF220F331F441F92
:10312000551F661F771F881F991F0A95B2F70F91C9
:10313000089597FB10F8169400080F93083098F044
:103140000850232F342F452F562F672F782F892F84
:10315000902DF4CF0594979587957795679557951A
:103160004795379527950A95AAF70F9108952A0D47
:103170003B1D4C1D5D1D6E1D7F1D801F911F089501
:103180000024A7FD00942A0F301D401D501D601D16
:10319000701D801D901D08950024A7FD00942A171E
:1031A00030054005500560057005800590050895BF
:1031B000AA1BBB1B51E107C0AA1FBB1FA617B7075D
:1031C00010F0A61BB70B881F991F5A95A9F7809579
:1031D0009095BC01CD010895A29FB001B39FC0019D
:1031E000A39F700D811D1124911DB29F700D811D33
:1031F0001124911D0895DC01CB01FC01F999FECF4A
:1032000006C0F2BDE1BDF89A319600B40D9241506E
:103210005040B8F70895DC01CB0103C02D910E9406
:10322000161941505040D0F70895262FF999FECF36
:103230001FBA92BD81BD20BD0FB6F894FA9AF99AD3
:0A3240000FBE01960895F894FFCF29
:10324A00FFFF220100000000000000000000000053
:10325A00000000000000C116000004100000000079
:10326A000000000000000000000000000000000054
:10327A000000000000000000000000000000000044
:10328A00000000000048656C6C6F9C33D39EBC0B39
:10329A000413010F0817000D061503110A19FF0C74
:1032AA00051402100918FF0E0716FF120804140C61
:1032BA0002120A1A06160E0111091905150D1D0327
:0632CA00130B1B07170F98
:00000001FF
