:100000000C94C3010C94E0010C94E0010C94E00109
:100010000C94E0010C94E0010C94E0010C94F202C9
:100020000C94E0010C94B3020C94E0010C94E001F8
:100030000C94E0010C94E0010C94E0010C94E001BC
:100040000C94E0010C94E0010C9466050C94E00122
:100050000C941F050C94E7060C94E0010C94E0014D
:100060000C94E0010C94E001320367036703520330
:100070006703670352036703670367036703670345
:10008000520367036703520367036703520367035F
:10009000670352036703670352036703670352034F
:1000A00067036703610367036703640379037E03E0
:1000B000BB03BB038103BB03BB038103BB03BB03C4
:1000C0008103BB03BB038103BB03BB038103BB03EE
:1000D000BB038103BB03BB038103BB03BB038103DE
:1000E000BB03BB039603CD03D2030F040F04D50358
:1000F0000F040F04D5030F040F04D5030F040F04DE
:10010000D5030F040F04D5030F040F04D5030F0408
:100110000F04D5030F040F04D5030F040F04EA03E3
:10012000F40B020C630C6A0C7D0CB40CB90C290D99
:10013000746D72310D0A000D0A004153534552543B
:10014000200074696D656F75740D0A00206D560D81
:100150000A00706F7765722000706F776572207289
:100160006573746172740D0A00706F776572206335
:1001700068617267696E670D0A00706F776572203B
:100180006368617267696E670D0A00706F776572E8
:10019000206465706C657465640D0A00706F776526
:1001A000722066756C6C0D0A00706F776572206343
:1001B00068617267696E670D0A00706F77657220FB
:1001C000737461727475700D0A000D0A00574454FF
:1001D00043535220006D656469616E0D0A006265CB
:1001E00065700D0A006661696C0D0A0072656164D4
:1001F000790D0A006F66660D0A006F6E0D0A000D1C
:100200000A0072783220000D0A0072783120000D49
:100210000A00726164696F200067616D650D0A00F4
:100220006176725F7370695F696E69740D0A000DA3
:100230000A0072785F70775F703020000D0A0052FC
:100240006567200064656661756C740D0A000D0AAF
:10025000007265636569766564200073656E74205D
:100260006F6B20286C617465290D0A006D61785FE1
:10027000727420286C617465290D0A0074696D65BB
:100280006F75740D0A0073656E74206F6B0D0A0034
:100290006D61785F72740D0A00726164696F5F69E5
:1002A0006E69740D0A000D0A0073656E64696E67ED
:1002B000200041535345525420004153534552545A
:1002C00020003F0D0A00206D560D0A00766F6C74F9
:1002D00061676520007265626F6F740D0A00706F50
:1002E000776572206F6666004F4B0D0A000D0A009D
:1002F000494420003F0D0A00656570726F6D2077DC
:10030000726F6E6720636865636B73756D0D0A00AD
:10031000656570726F6D2077726F6E67206D6167B3
:1003200069630D0A00656570726F6D206661696CA6
:100330000D0A00656570726F6D206261636B757088
:10034000204F4B0D0A00656570726F6D206C6F61F8
:10035000646564204F4B0D0A00656570726F6D20F7
:10036000736176650D0A000D0A0070696E20006DDC
:1003700061696E0D0A000D0A7461675F7377203042
:100380002E310D0A000011241FBECFEFD8E0DEBFD2
:10039000CDBF11E0A0E0B1E0E2ECF5E202C00590D3
:1003A0000D92AE34B107D9F722E0AEE4B1E001C05E
:1003B0001D92AE38B207E1F70E945E100C94DF1276
:1003C0000C94000084B58F7084BD85B5887F85BD91
:1003D0000895CF93C82F0E94E20180E887BD88BDB1
:1003E00084B5836B84BD85B5887F85BD85B5C82BF5
:1003F000C5BDCF9108958BB180668BB98AB18066F7
:100400008AB90895E0E8F0E08081826A8083E1E8BB
:10041000F0E08081896180830895109280001092BD
:100420008100089580E391E00E94B0052998219A07
:10043000E6E8F0E085EA91E0918380838081918114
:1004400096958795969587959093890080938800D7
:100450008081918196958795969587959C01220F2D
:10046000331F820F931F90938B0080938A0008950F
:10047000109217021092060210925301109252012C
:100480000895209117024091060230E02F5F3F4F00
:100490002770332750E081E02417350709F080E00A
:1004A0000895CF93C82F0E944102882331F0809194
:1004B00006028F5F877080930602E0911702F0E0DA
:1004C000E15FFD4FC083809117028F5F877080933B
:1004D0001702CF9108951092F30110920502109225
:1004E00051011092500108952091F301909105025D
:1004F00081E0291380E008950E94740281110DC0EB
:10050000E0910502F0E0E95FFD4F808190910502E6
:100510009F5F97709093050208958FEF0895109252
:10052000F4011092180210924F0110924E0108959A
:100530002091F4019091180281E0291380E0089540
:100540000E94980281110DC0E0911802F0E0EB507A
:10055000FE4F8081909118029F5F977090931802D0
:1005600008958FEF08951F920F920FB60F921124E6
:100570002F933F934F935F936F937F938F939F93AB
:10058000AF932091FD013091FE014091FF01509108
:100590000002609101027091020280910302909129
:1005A0000402A1E00E9490122093FD013093FE010D
:1005B0004093FF0150930002609301027093020286
:1005C0008093030290930402AF919F918F917F914A
:1005D0006F915F914F913F912F910F900FBE0F90B0
:1005E0001F9018951F920F920FB60F9211242F9300
:1005F0003F934F935F936F937F938F939F93AF93AB
:10060000BF93EF93FF932091FD013091FE01409144
:10061000FF015091000260910102709102028091ED
:10062000030290910402A1E00E9490122093FD0128
:100630003093FE014093FF0150930002609301024A
:10064000709302028093030290930402E09153019D
:100650008E2F90E082329105D0F5FC01EC5CFF4FCB
:100660000C94281190911702809106029817A1F11D
:100670000E9402029091170280910602981771F071
:10068000E0910602F0E0E15FFD4F9081809106026B
:100690008F5F877080930602892F01C08FEF809350
:1006A00052011AC08091520180FF03C00E940D02C6
:1006B00002C00E94020280915201869580935201ED
:1006C00006C00E940D0203C01092530105C0809124
:1006D00053018F5F80935301E09151018E2F90E081
:1006E0008D31910508F047C0FC01EA5AFF4F0C9488
:1006F0002811339B45C0109250013DC033993BC037
:1007000037C0809150018695282F30E0339B03C07D
:1007100040E050E002C040E850E060915001CA0162
:10072000822B932B862B8093500125C0339920C0B8
:10073000409150018091F3012091050290E00196D3
:100740008770992730E08217930731F48091050272
:100750008F5F877080930502E091F301F0E0E95F1D
:10076000FD4F40838091F3018F5F87708093F30189
:100770001092510105C0809151018F5F809351010A
:10078000E0914F018E2F90E08D31910508F047C028
:10079000FC01ED58FF4F0C942811319B45C010927D
:1007A0004E013DC031993BC037C080914E018695C6
:1007B000282F30E0319B03C040E050E002C040E809
:1007C00050E060914E01CA01822B932B862B8093BF
:1007D0004E0125C0319920C040914E018091F40115
:1007E0002091180290E001968770992730E08217D7
:1007F000930731F4809118028F5F877080931802FD
:10080000E091F401F0E0EB50FE4F40838091F40161
:100810008F5F87708093F40110924F0105C0809123
:100820004F018F5F80934F01FF91EF91BF91AF9187
:100830009F918F917F916F915F914F913F912F91F8
:100840000F900FBE0F901F901895E0E7F0E08081A9
:100850008E7F80832091FD013091FE014091FF0148
:100860005091000260910102709102028091030296
:1008700090910402A081A160A0830895E0E7F0E0D8
:1008800080818E7F80833091FD012091FE018091D7
:10089000FF0180910002809101028091020280910B
:1008A000030280910402808181608083832F922FD4
:1008B00008950E9438020E946B020E948F0282E01B
:1008C0008093B0008CE78093B30085E08093B10003
:1008D000E0E7F0E08081826080830895A2E0B0E0EC
:1008E000E4E7F4E00C944212909198018091990110
:1008F000981791F0E0919801F0E0E656FE4F808164
:100900008A83809198018F5F8F7189838981809319
:1009100098018A8190E002C08FEF9FEF2296E2E07B
:100920000C945E12A2E0B0E0E8E9F4E00C9442120C
:100930009091980180919901981303C00E94390603
:10094000F7CFE0919801F0E0E656FE4F80818A8370
:10095000809198018F5F8F7189838981809398013D
:100960008A812296E2E00C945E12A1E0B0E0EBEB0B
:10097000F4E00C944112182F809156018F5F8F7311
:100980008983909155018981981303C00E9439068B
:10099000F8CFF89480915401811113C01093C600D0
:1009A0003091C1002091C10081E090E001C0880F2A
:1009B0003A95EAF7822B8093C10081E0809354013D
:1009C00009C0E0915601F0E0E95AFE4F1083898199
:1009D0008093560178942196E3E00C945D12809107
:1009E000990190919801891B8F710895809156010A
:1009F00090915501891B8F7308950E94F6049FE31F
:100A0000981B892F0895809197010895589A109204
:100A1000C50087E68093C400E0ECF0E080818D7F24
:100A20008083E1ECF0E088E180838EE08093C20077
:100A300080818068808380818064808308951F9294
:100A40000F920FB60F9211242F933F938F939F9382
:100A5000EF93FF93CF93DF931F92CDB7DEB79091C3
:100A6000560180915501981789F0E0915501F0E009
:100A7000E95AFE4F80818093C600809155018F5FB7
:100A80008F73898389818093550112C0109254011C
:100A90003091C1002091C10081E090E002C0880F38
:100AA000991F3A95E2F78095909582238093C10033
:100AB0000F90DF91CF91FF91EF919F918F913F9197
:100AC0002F910F900FBE0F901F9018951F920F92AD
:100AD0000FB60F9211248F939F93EF93FF93E091A2
:100AE00099018091C600F0E0E656FE4F8083809128
:100AF00099018F5F8F71809399019091980189136B
:100B000005C0809197018F5F80939701FF91EF91CE
:100B10009F918F910F900FBE0F901F9018950F937C
:100B20001F93CF93DF938C01EB011C161D063CF441
:100B3000F80181918F010E94B5042197F6CFDF91D2
:100B4000CF911F910F910895CF93DF93EC0189917D
:100B5000882319F00E94B504FACFDF91CF91089550
:100B6000CF93DF93FC018491EF012196882321F03C
:100B70000E94B504FE01F7CFDF91CF9108958A302E
:100B800010F4805D01C0895A0E94B5040895CF9386
:100B9000C82F82958F700E94BF058C2F8F700E9486
:100BA000BF05CF910895CF93DF93EC018D2F8295F0
:100BB0008F700E94BF058D2F8F700E94BF05CE01E0
:100BC00024E0969587952A95E1F78F700E94BF05DE
:100BD0008C2F8F700E94BF05DF91CF910895CF9227
:100BE000DF92EF92FF926B017C01DC01CB012CE1E3
:100BF000B695A795979587952A95D1F70E94BF0539
:100C00008F2D8F700E94BF05D701C60134E1B695C4
:100C1000A795979587953A95D1F78F700E94BF0554
:100C20008E2D8F700E94BF05D701C6014CE0B6958E
:100C3000A795979587954A95D1F78F700E94BF0524
:100C40008D2D8F700E94BF05D701C60154E0B69567
:100C5000A795979587955A95D1F78F700E94BF05F4
:100C60008C2D8F700E94BF05FF90EF90DF90CF908A
:100C700008958091BA019091BB01009739F0A89531
:100C800001979093BB018093BA0101C0289A83B762
:100C9000816083BF83B7817F83BF889583B78E7F51
:100CA00083BF08958FEF9FEF9093BB018093BA01AC
:100CB0000E9439060895CF93DF93EC010E943E0411
:100CC000C80FD91F0E943E049E01281B390B37FD17
:100CD00003C00E943906F6CFDF91CF910895CF93DC
:100CE000C82F88EC90E00E945B065B9A539A1C1612
:100CF00064F45B9888EC90E00E945B065B9A80E964
:100D000091E00E945B06C150F2CF539880E293E0DD
:100D10000E945B0680E090E0CF910895009771F00B
:100D200001971816190654F4000000000000000096
:100D300000000000000000000000F2CF08958C01C8
:100D4000EB0187E391E00E94B005C8010E94B00565
:100D500080E20E94B504CE010E94D30588E00E9483
:100D60006F0688EE93E00E945B06289AEACF9FE028
:100D700088E10FB6F894A895809360000FBE909319
:100D8000600080B7806880BF78940E9459042898DA
:100D9000209A8FEF9FEF9093BB018093BA010E943E
:100DA000390608950E94250408950E943E0408957E
:100DB000ECE7F0E09081907F908390818F70982B8A
:100DC0009083EAE7F0E080818064808308951F9239
:100DD0000F920FB60F9211242F933F934F935F936F
:100DE0006F937F938F939F93AF93BF93EF93FF93F3
:100DF000809178002091790090E0922BE0910001A1
:100E0000F0E0EE0FFF1FE454FE4F9183808380914A
:100E100000018F5F8093000180910001833048F4CE
:100E2000E0910001F0E0EF5BFE4F80810E94D80668
:100E300005C080917A00877F80937A00FF91EF91BF
:100E4000BF91AF919F918F917F916F915F914F91E2
:100E50003F912F910F900FBE0F901F90189580EC2F
:100E600080937C0087E880937A00089510920001B7
:100E7000EAE7F0E0808188608083E0910001F0E0A3
:100E8000EF5BFE4F80810E94D8060895909100018B
:100E900081E0933009F080E00895CF93C82F83302C
:100EA00030F06AEA70E08AE391E00E949F06EC2F3E
:100EB000F0E0EE0FFF1FE454FE4F80819181CF914F
:100EC00008958617970720F04817590728F00895C6
:100ED00084179507B8F008956817790708F0089502
:100EE00064177507B8F468177907A0F48417950795
:100EF00078F463E170E085ED91E00E949F068FEF4A
:100F00009FEF08956417750770F34617570710F49D
:100F1000CA010895CB010895A8E2B0E0E2E9F7E044
:100F20000C9432120E944607882309F4D8C080E04E
:100F30000E944D077C0181E00E944D076C0182E018
:100F40000E944D07AC01B601C7010E9461072091C4
:100F5000C2013091C3014091C4015091C501C090BC
:100F6000C601D090C701E090C801F090C901FC0112
:100F700066E0EE0FFF1F6A95E1F720343105410569
:100F80005105E8F529013A016FEF461A560A660A3B
:100F9000760A4092C2015092C3016092C4017092DD
:100FA000C501C701B6010E94F6104B015C019F010B
:100FB00040E050E060E070E0CB01E9A33AA34BA32E
:100FC0005CA36DA37EA38FA398A79401A50160E005
:100FD00070E080E090E0A9A0BAA0C12CD12CE12C57
:100FE000F12C00E010E00E94871212012301612C15
:100FF000712C4301510162010E94C51121C0AFE370
:10100000B0E0A70196010E942E111B012C01612C5A
:10101000712C43019F01E9A33AA39B01A20160E067
:1010200070E080E090E0A9A0BAA0C12CD12CE12C06
:10103000F12C00E010E00E94871206E00E946B1283
:101040002093C6013093C7014093C8015093C90152
:101050008091C6019091C701A091C801B091C901CA
:1010600026E0B695A795979587952A95D1F79C0187
:10107000AD0144275527A1ECB6E10E942E1128EEC0
:1010800033E040E050E00E94061149015A0180918E
:10109000CA019091CB0128173907E9F08AE0E82EC0
:1010A000F12C8E010F5F1F4F40E050E060E070E0D8
:1010B00080E090E00E94540D82E591E00E94B0052E
:1010C000C8010E94A4058CE491E00E94B0059092B2
:1010D000CB018092CA010E943607C4010BC082E492
:1010E00091E00E94B0051092CC0185E08093CD0183
:1010F0008FEF9FEFA896E2E10C944E128DEC91E0F9
:101100000E94B005809160000E94C7058AEC91E0C2
:101110000E94B0050E942F0708958091CD01833071
:1011200009F44FC02CF48130A1F0823039F106C0AF
:10113000843009F458C0853009F46BC028980E94A7
:1011400036078AEB91E00E94B0051092CC0181E055
:1011500012C028980E948C07019609F46BC08091F8
:10116000CC018C330CF45AC089EA91E00E94B0059E
:101170001092CC0182E08093CD015CC028980E943F
:101180008C078F3F2FEF920709F454C0833D2FE067
:10119000920740F08CE991E00E94B0051092CC01DA
:1011A00083E00AC08C319C4048F48BE891E00E94B7
:1011B000B0051092CC0184E08093CD010E943607E7
:1011C00039C0289A0E948C079C012F3F8FEF380767
:1011D00089F19091CC019C3394F028343D4050F536
:1011E0008AE791E0C3CF289A0E948C079C012F3F89
:1011F0008FEF3807F9F09091CC019C3324F49F5F76
:101200009093CC0117C029343D40A0F089E691E0CD
:10121000ADCF289A8091CC018C3324F48F5F8093DA
:10122000CC0108C089E591E00E94B0050E942F071B
:101230001092CD010E94520608958091CA019091AA
:10124000CB0108958EED91E00E94B00584E00E94EC
:10125000E9010895089589E192E00E94B0050E9495
:10126000D5060895A5E0B0E0E8E3F9E00C943E125D
:101270000E94D5060E94FD04803208F46AC08E01E7
:101280000F5F1F4F85E0F80111928A95E9F765E03D
:10129000C8010E947D0B8823A1F082E192E00E94A8
:1012A000B0057E01F6E0EF0EF11CF80181918F018F
:1012B0000E94C7050E151F05C1F78FE092E00E943E
:1012C000B0050E94740281110EC00E947C02182F8A
:1012D0008AE092E00E94B005812F0E94C70587E056
:1012E00092E00E94B0050E94980281110EC00E94F7
:1012F000A002182F82E092E00E94B005812F0E9488
:10130000C7058FEF91E00E94B0058091D701813031
:1013100069F08230A9F032991CC08AEF91E00E94F6
:10132000B0055F9A459A2A9A81E007C084EF91E060
:101330000E94B0052A98459882E08093D70109C0A1
:10134000329B07C08CEE91E00E94B0055F9810922E
:10135000D7012596E6E00C945A12A5E0B0E0E3EB45
:10136000F9E00C9442128CEC0E9451028091D5015C
:101370009091D6018B30910584F119828091D10131
:101380009091D2012091D3013091D4013A832B83E3
:101390009C838D8365E0CE0101960E948C0B88238F
:1013A00021F085EE91E00E94B0058091D1019091ED
:1013B000D201A091D301B091D4010196A11DB11D1C
:1013C0008093D1019093D201A093D301B093D40123
:1013D0001092D6011092D50105C001969093D601C6
:1013E0008093D5012596E2E00C945E12CF93C82F2E
:1013F00081E090E00E948E06CEBD0DB407FEFDCFC9
:101400008EB5CF91089580E292E00E94B00584B13C
:101410008C6284B981E58CBD089580E090E00E94E3
:101420008E060895CF93C62F5C9880620E94F609BD
:101430008093D9018C2F0E94F609C82F5C9A0E94D4
:101440000D0A8C2FCF91089560E787E00E94120A61
:1014500008955C9881EE0E94F6098093D9015C9A08
:101460000E940D0A089544980E94290A0E94240AA5
:101470006AE080E00E94120A0E940D0A0895CF934C
:101480005C9881E10E94F6098093D90180E00E9476
:10149000F609C82F5C9A0E940D0A8091D8018C171A
:1014A00069F082E392E00E94B0058C2F0E94C7058C
:1014B0008FE292E00E94B005C093D801CF910895C9
:1014C000FC01108211820895FC0120812F5F27709A
:1014D00030E0418150E081E02417350709F080E0D9
:1014E0000895FF920F931F93CF93DF93EC018B012D
:1014F000F42E0E94640A882321F089818F5F87700F
:10150000898385E0F81631F068E770E08AEB92E0B5
:101510000E949F068881FE0195E0899FE00DF11DE4
:1015200011243296D801CF0105962D912193E81709
:10153000F907D9F788818F5F87708883CDB7DEB7C9
:10154000E5E00C945B12FC0181E02081918129137C
:1015500080E00895EF92FF921F93CF93DF93EC0109
:101560007B01142F988189819817F1F0453031F073
:101570006DE870E082EB92E00E949F068981FE0197
:1015800095E0899FE00DF11D11243296112331F071
:101590008191D7018D937D011150F8CF89818F5FA3
:1015A0008770898385E001C080E0DF91CF911F9132
:1015B000FF90EF900895EF92FF921F93CF93DF93E8
:1015C0007B01C42F5C9880620E94F6098093D90148
:1015D00010E0D0E0812F012E000C990B8C179D0795
:1015E00044F4F701E80FF91F80810E94F6091F5F9C
:1015F000F1CF5C9A0E940D0ADF91CF911F91FF906D
:10160000EF900895FF920F931F93CF93DF93EC0118
:10161000062F449880E090E00E948E065C9881EE50
:101620000E94F6098093D9015C9A0E940D0A80E01D
:1016300090E00E948E065C9880EA0E94F6098093F2
:10164000D901F12C10E08F2D0F2C000C990B801775
:10165000910744F4FE01E80FF91F80810E94F6090A
:10166000F394F1CF80E090E00E948E065C9A80E0D7
:1016700090E00E948E06449A0E94FD04803290F011
:1016800089EA92E00E94B0050C0F1D1FC017D10718
:1016900021F089910E94C705F9CF86EA92E00E9465
:1016A000B00507C083E20E94B5048AE090E00E9482
:1016B0008E0644980E940D0ACDB7DEB7E5E00C9483
:1016C0005B125C9882EE0E94F6098093D9015C9AC5
:1016D0000E940D0A089560E487E00E94120A0E94A9
:1016E000610B65E081E10E94120A6BE080E00E94DC
:1016F000120A0E940D0A449A0895309143022091E3
:101700004402321739F0462FBC0183E492E00E9474
:10171000AA0A089580E008950F931F93CF93DF9353
:101720008C01D62F89E192E00E94640AC82F8111B2
:1017300007C04D2FB80189E192E00E94710A01C0F3
:10174000CFEF8C2FDF91CF911F910F91089589E9F1
:1017500092E00E94B0050E94030AE3E4F2E01082E6
:101760001182E9E1F2E01082118244983C9A8AE009
:1017700090E00E948E065C9A549A8AE090E00E9463
:101780008E065A9A8AE090E00E948E060E94240AF1
:101790008AE090E00E948E060E94D50688579C4EF3
:1017A0009093DD018093DC010895A5E0B0E0EBEDBE
:1017B000FBE00C9436120E94D5068C018091DC016E
:1017C0009091DD017801E81AF90A0E943F0AD09051
:1017D000DE018D2D90E08830910508F053C1FC01A9
:1017E000E057FF4F0C942811F7FC5AC10E943F0AA2
:1017F0008091DE018F5F8093DE011092DB011092F9
:10180000DA0148C10E94FD04803208F449C1F09019
:10181000DA018AE0F81640F09BE09F1518F4E0E149
:10182000FE1202C085E0D82E5C988F2D0E94F6092A
:101830008093D901E12C6D2C712CCE0101964C01C5
:10184000AE2C0E2C000CBB08A614B7044CF480E0A0
:101850000E94F609F401EA0DFB1D8083E394F0CFAA
:101860005C9A0E940D0A8FE392E00E94B0058F2DD2
:101870000E94C70580E20E94B5047401F7018191BE
:101880007F010E94C7058E2D88198D15B8F38CE352
:1018900092E00E94B0058091DA019091DB010196FF
:1018A0009093DB018093DA01429754F01092DB01B0
:1018B0001092DA018091DE018F5F8093DE01EAC031
:1018C0000C591F4FE9C0F7FCEBC00E94330A0C59BA
:1018D0001F4FB7C0F7FCE4C085E0E4E4F1E0DE01AF
:1018E000119601900D928A95E1F765E0CE0101967F
:1018F0000E94020B08571C4EA4C08091D90184FF9E
:1019000013C080E992E00E94B0050E94240A0E9460
:10191000290AC80144969093DD018093DC018091EF
:10192000DE018F5F8093DE018091D90185FF11C0B8
:1019300086E892E00E94B0050E94240AC8014496FD
:101940009093DD018093DC018091DE018F5F8093B5
:10195000DE011E141F040CF0A3C08CE792E00E946D
:10196000B0050E94240A6BC0F7FC9AC00E946B0B62
:1019700066C08091D90184FF08C08CE692E00E9485
:10198000B00560E187E00E94120A8091D90185FFCD
:1019900008C08BE592E00E94B00560E287E00E94FB
:1019A000120A8091D90186FF42C0CE0101967C01C6
:1019B00085E0F70111928A95E9F75C9881E60E942B
:1019C000F6098093D90157014E01F6E08F0E911C64
:1019D000670180E00E94F609F60181936F01E81526
:1019E000F905B9F75C9A0E940D0A0E94FD04803245
:1019F00088F081E592E00E94B005F50181915F01D8
:101A00000E94C705A814B904C1F78EE492E00E94B1
:101A1000B00503C083E20E94B50460E487E00E9441
:101A2000120A45E0B70183E492E00E94710A9091A6
:101A3000190280911A02981799F10E94330A0C5EDC
:101A40001F4F1093DD010093DC018091DE018F5F59
:101A500016C0F7FC25C045E0BE016F5F7F4F89E1EE
:101A600092E00E94AA0A65E0CE0101960E94020B54
:101A700008571C4E1093DD010093DC0184E0809335
:101A8000DE010EC0F7FC0CC084E492E00E94B005B9
:101A90000E943F0A08511C4F1093DD010093DC01A6
:101AA0002596EEE00C945212AAE1B0E0EAE5FDE0E2
:101AB0000C94321239014A016A8F798F8987492E35
:101AC0001801FB86EA86A0E00E949C1231F480E3B4
:101AD000D8018C9311961C92C9C06A8D798D898525
:101AE000A0E00E949C127CF4EA85FB853A9759F4A9
:101AF0000E94221239014A016A8F798F8987492E03
:101B0000F1E0FE8701C01E863D862C86388E2F8A26
:101B10001F86188A198A1A8A1B8A1C8A1D8A1E8A9D
:101B20005B84550C5508AA84BB84C52CD52CE52CA8
:101B3000F52C052D152D9301A4016A8D798D8985CC
:101B4000942D0E949211E22FD32E7A018B01B82F8F
:101B5000F92F2F85388949895A896B897C898D8924
:101B60009E89A1E00E94901229833A834B835C8373
:101B70006D837E838F8398872E2F3D2DA701B8011B
:101B80008B2F9F2FA9E00E949C1219F014F0E95AA4
:101B900001C0E05DAF89B88DED93B88FAF8BAA849B
:101BA000BB84C52CD52CE52CF52C052D152D9301CA
:101BB000A4016A8D798D8985942D0E949411390133
:101BC0004A016A8F798F8987492EA0E00E949C1272
:101BD00089F089818F879A81988BAB81A98BBC8191
:101BE000BA8BED81EB8BFE81FC8B8F818D8B988581
:101BF0009E8B99CFBE85BB23C9F02F853889498933
:101C00005A896B897C898D899E89A2E00E949012F5
:101C1000E981FA81E20DF31DADE2A08329833A83C5
:101C20004B835C836D837E838F83988749815A8140
:101C3000FA01E20DF31D1082CF0120E030E04150A7
:101C40005109BA01621B730B261737077CF4EC8528
:101C5000FD8560810197FC017081AC85BD857D9318
:101C6000BD87AC8760832F5F3F4FEBCFC1016A9682
:101C7000E2E10C944E12A3E0B0E0E1E4FEE00C944B
:101C800032129B838A8377247394812C912C412C6C
:101C9000312C212C512C612CEA81FB81FB83EA83BE
:101CA00081918032D9F38D32C1F4EA81FB81319682
:101CB000FB83EA83272D382D492D542D632D722D5A
:101CC000852D962D0E942212722E832E942E452E43
:101CD000362E272E582E692EDFCF8B3211F4FB8340
:101CE000EA8320E030E040E050E060E070E080E037
:101CF00090E0EA81FB81A191FB83EA83A983EA2F2B
:101D0000E053EA3008F5EAE0AE2EB12CC12CD12C1C
:101D1000E12CF12C00E010E00E94391159016A0118
:101D20007B018C01F9814F2FFF0F550B4053510957
:101D3000952F990F990B9A01492F592F692F792FB8
:101D4000892F0E948712D5CFA72CB82CC92CD42C50
:101D5000E32CF22C052D162D0E9439112396E2E179
:101D60000C944E121092DF010895A0E2B0E0EBEB6C
:101D7000FEE00C9436120E946E0497FDA8C08032DB
:101D8000910584F02091DF01213218F084EF92E078
:101D900093C0E22FF0E0E359FD4F80832F5F209343
:101DA000DF0195C08A30910521F08D30910509F051
:101DB00086C0E091DF01E13238F4F0E0E359FD4FF5
:101DC0001082EDE6F2E003C010928D02FACF9F017F
:101DD00091919032E1F39F3609F445C054F599345E
:101DE00099F1993609F066C080910501909106013C
:101DF000A0910701B09108013C014D01A12CB12C2B
:101E000065019AE0E92EF12C8E010F5F1F4F9301BF
:101E1000A40160E070E080E090E00E94540D80EF4B
:101E200092E00E94B005C8010E94A4058DEE92E0E8
:101E300043C0933701F1963709F19237D9F585ED13
:101E400092E00E94B00516C0C90101960E943B0EA7
:101E50002093050130930601409307015093080138
:101E600088EE92E029C06BE470E08EED92E00E9473
:101E70009F062BC0FFCF0E94CA0F27C00E941D09DA
:101E8000AC018AE0E82EF12C8E010F5F1F4F9A0102
:101E900040E050E060E070E080E090E00E94540D8F
:101EA0008CEC92E00E94B005C8010E94A40586EC6B
:101EB00092E002C082EC92E00E94B00506C08B3135
:101EC000910509F4FFCF0E94C7051092DF01A0968B
:101ED000EEE00C945212A0E4B0E0E1E7FFE00C94D5
:101EE000381240E450E0BC01CE0101960E94B712C6
:101EF0002196CCACDDACEEACFFAC219721961CAEAC
:101F00001DAE1EAE1FAE2197FE01319620E030E0DF
:101F1000A9018E010F5B1F4FAFE1B0E00E942E11AF
:101F200021914B015C01820E911CA11CB11CA501E9
:101F30009401E017F10781F789809A80AB80BC801B
:101F40008091010190910201A0910301B0910401DF
:101F500088169906AA06BB0619F080E193E007C02F
:101F6000C216D306E406F50631F088EF92E00E942F
:101F7000B0058FEF0AC080E4FE013196A1E0B1E028
:101F800001900D928A95E1F780E0C05CDF4FECE0B4
:101F90000C945412EF92FF920F931F9310923D01F5
:101FA00010923E0110923F0110924001E1E0F1E0F9
:101FB00020E030E0A901AFE1B0E00E942E112191B4
:101FC0007B018C01E20EF11C011D111DA80197017E
:101FD00001E0E134F00779F720933D0130933E01B1
:101FE00040933F015093400140E450E060E070E0D6
:101FF00081E091E00E94C71240E450E060E072E0AE
:1020000081E091E00E94C71289E593E00E94B0054B
:102010001F910F91FF90EF90089580E090E00E9453
:102020006B0F811103C086E493E00BC080E092E067
:102030000E946B0F811103C083E393E002C085E22D
:1020400093E00E94B0050895CF92DF92EF92FF9245
:1020500093B1C6B089B1D12CE12CF12CFE2CED2C22
:10206000DC2CCC24E92AC82A8091E0019091E1017E
:10207000A091E201B091E3018767B701A60147672C
:1020800084179507A607B707A1F08AE693E00E9498
:10209000B005C701B6010E94EF0587E693E00E94F4
:1020A000B005C092E001D092E101E092E201F0922D
:1020B000E301FF90EF90DF90CF9008950E94B70664
:1020C0000E94060586E793E00E94B0050E9439064B
:1020D00088EC90E00E945B0683E00E946F060E94FD
:1020E00039060E94FB010E941202229A579A3D9AD9
:1020F000429A419A439A0E940D100E947E0888ECF1
:1021000090E00E945B060E94220988EC90E00E9409
:102110005B060E94A70B88EC90E00E945B060E9481
:102120002B0988EC90E00E945B060E94B20E88ECBE
:1021300090E00E945B068FE693E00E94B0050E944B
:10214000D50688519C4F9093EA018093E9010E9443
:10215000B50E0E94D50B0E9432090E942410809176
:10216000E401823001F13CF4882361F0813031F5E3
:102170000E9424101AC08330F1F08430F9F40E94D8
:10218000AD0913C00E94D5062091E9013091EA0102
:10219000821B930B97FD27C028513C4F3093EA01D7
:1021A0002093E90102C00E948D088091E4018F5FB5
:1021B0008093E40118C00E942A09F7CF8091E501BD
:1021C0009091E601A091E701B091E8010196A11D6F
:1021D000B11D8093E5019093E601A093E701B093D0
:1021E000E8011092E4010E943906B1CFDB018F9320
:1021F0009F930E942E11BF91AF91A29F800D911DC0
:10220000A39F900DB29F900D11240895A1E21A2E64
:10221000AA1BBB1BFD010DC0AA1FBB1FEE1FFF1F8A
:10222000A217B307E407F50720F0A21BB30BE40BDA
:10223000F50B661F771F881F991F1A9469F7609521
:102240007095809590959B01AC01BD01CF010895DB
:10225000EE0FFF1F0590F491E02D09940E94A81243
:10226000A59F900DB49F900DA49F800D911D1124EA
:102270000895DF93CF931F930F939A9DF02D219F85
:10228000F00D8B9DF00D8A9DE02DF10D039FF00D5B
:10229000029FE00DF11D4E9DE00DF11D5E9DF00DC4
:1022A0004F9DF00D7F936F93BF92AF925F934F93CB
:1022B000D5010E94A8128B01AC01D7010E94A8127F
:1022C000EB01E80FF91FD6010E9489112F913F9170
:1022D000D6010E94A812C60FD71FE81FF91FAF91A1
:1022E000BF910E9489112F913F910E94A812C60FA1
:1022F000D71FE81FF91FD6010E94A812E60FF71F8B
:102300009801BE01CF0111240F911F91CF91DF9150
:1023100008950E94A812460F571FC81FD91F08F41E
:1023200031960895689401C0E894F92FF12B12F0CA
:102330000C94C611A0E0B0E0E0EAF1E10C94381290
:10234000092E059422F40E942212112392F4F0E83F
:102350000F26FFEFE094F09400951095B094C09490
:10236000D094A194BF0ACF0ADF0AEF0AFF0A0F0B2D
:102370001F0B0E94D11107FC0E942212CDB7DEB7BD
:10238000ECE00C945412689401C0E8948F929F92F0
:10239000CF93DF930E94D111DF91CF919F908F90C7
:1023A000089588249924F401E401B0E49F93AA27B6
:1023B0009A158B049C04ED05FE05CF05D007A107F7
:1023C00098F4AD2FDC2FCF2FFE2FE92D982C892EDE
:1023D000982F872F762F652F542F432F322F2227A8
:1023E000B85031F7BF9127C01B2EBF91BB27220FDA
:1023F000331F441F551F661F771F881F991F881C96
:10240000991CEE1FFF1FCC1FDD1FAA1FBB1F8A14C4
:102410009B04EC05FD05CE05DF05A007B10748F0DC
:102420008A189B08EC09FD09CE09DF09A00BB10B46
:1024300021601A94E1F62EF49401AF01BE01CD01A2
:10244000000C089560957095809590953095409515
:10245000509521953F4F4F4F5F4F6F4F7F4F8F4F9D
:102460009F4F08952F923F924F925F926F927F926B
:102470008F929F92AF92BF92CF92DF92EF92FF9294
:102480000F931F93CF93DF93CDB7DEB7CA1BDB0B40
:102490000FB6F894DEBF0FBECDBF09942A883988E5
:1024A00048885F846E847D848C849B84AA84B984EC
:1024B000C884DF80EE80FD800C811B81AA81B981F8
:1024C000CE0FD11D0FB6F894DEBF0FBECDBFED010C
:1024D000089597FB10F8169400080F93083098F0B1
:1024E0000850232F342F452F562F672F782F892FF1
:1024F000902DF4CF05949795879577956795579587
:102500004795379527950A95AAF70F9108952A0DB3
:102510003B1D4C1D5D1D6E1D7F1D801F911F08956D
:102520000024A7FD00942A0F301D401D501D601D82
:10253000701D801D901D08950024A7FD00942A178A
:10254000300540055005600570058005900508952B
:10255000A29FB001B39FC001A39F700D811D1124E4
:10256000911DB29F700D811D1124911D0895DC01F4
:10257000CB01FC01F999FECF06C0F2BDE1BDF89A8E
:10258000319600B40D9241505040B8F70895DC01E7
:10259000CB0103C02D910E94D21241505040D0F780
:1025A0000895262FF999FECF1FBA92BD81BD20BD97
:1025B0000FB6F894FA9AF99A0FBE01960895F89416
:0225C000FFCF4B
:1025C200FF210100000000000000000000000000E8
:1025D20000000000000000000000000000000000F9
:1025E20000000000000000000000000000000000E9
:1025F20000000000000000000000000000000000D9
:0E2602000000000048656C6C6F77000000005F
:00000001FF
