:100000000C94AF010C94CC010C94CC010C94CC0159
:100010000C94CC010C94CC010C94CC010C94E20215
:100020000C94CC010C94A3020C94CC010C94CC0144
:100030000C94CC010C94CC010C94CC010C94CC010C
:100040000C94CC010C94CC010C9434050C94CC0190
:100050000C94EE040C949B060C94CC010C94CC01F3
:100060000C94CC010C94CC0122034E034E033903B3
:100070004E034E0339034E034E0339034E034E0322
:1000800039034E034E0339034E034E0348034E0318
:100090004E034B035F0364039803980367039803BD
:1000A000980367039803980367039803980367030B
:1000B000980398036703980398037303A903AE0397
:1000C000E203E203B103E203E203B103E203E2036A
:1000D000B103E203E203B103E203E203B103E2038B
:1000E000E203BD03A508BA08250972097209560979
:1000F0007409480C580C650C740CB00CBE0CC40C84
:100100000C0F1B0F730F760F820FC20FCE0FA410B0
:10011000746D72310D0A000D0A004153534552545B
:100120002000206D560D0A006D656469616E0074D3
:10013000696D656F75740D0A00707320006F7665C8
:100140007266756C6C0072657374617274006F76A0
:10015000657266756C6C00757362006368617267C6
:10016000696E67006469736368617267696E6700CE
:100170006465706C657465640066756C6C006F6EA8
:1001800000706F77657220737461727475700D0AF8
:1001900000627320007669620D0A002B0D0A003F91
:1001A0000D0A0067732000747820007278322000F6
:1001B0007278312000677220006361740D0A006359
:1001C0006D640D0A002E0D0A0070696E670D0A003D
:1001D00061636B0D0A006661696C0D0A002A0D0AE5
:1001E000006869740D0A0067616D650D0A0061762B
:1001F000725F7370695F696E69740D0A005265679A
:1002000020007273200064656661756C740D0A00CD
:1002100072722000726F0D0A0073656E74206F6B2E
:1002200020286C617465290D0A006D61785F727415
:1002300020286C617465290D0A0074696D656F75FD
:10024000740D0A0073656E74206F6B0D0A006D618A
:10025000785F72740D0A00726164696F5F696E691C
:10026000740D0A0041535345525420007261646971
:100270006F2066756C6C0D0A004153534552542033
:10028000004153534552542000727420003F0D0A20
:10029000006E00696400646576000D0A003F0D0A77
:1002A00000706F77657200766F6C74616765006EC1
:1002B0000069640067616D6500646576003F0D0A42
:1002C000007265626F6F740D0A00706F776572203F
:1002D0006F6666003F0D0A00656570726F6D20776E
:1002E000726F6E6720636865636B73756D0D0A00CE
:1002F000656570726F6D2077726F6E67206D6167D4
:1003000069630D0A00656570726F6D206661696CC6
:100310000D0A00656570726F6D206261636B7570A8
:10032000204F4B0D0A00656570726F6D206C6F6118
:10033000646564204F4B0D0A00656570726F6D2017
:10034000736176650D0A006D61696E0D0A000D0A14
:100350007461675F737720302E330D0A000011241B
:100360001FBECFEFD8E0DEBFCDBF11E0A0E0B1E00F
:10037000E6E6FEE202C005900D92A638B107D9F775
:1003800023E0A6E8B1E001C01D92A43BB207E1F76B
:100390000E9483140C9431170C94000084B58F7064
:1003A00084BD85B5887F85BD16BC089584B58C70E5
:1003B00084BD84B5816284BD85B5807F85BD85B5EA
:1003C000896085BD089583ED87BD87B5869586953F
:1003D00088BD5D98559A089585B1897F85B9109239
:1003E0008000109281000895109280001092810088
:1003F000009711F19093870080938600809186008A
:1004000090918700969587959093890080938800B6
:1004100080918600909187009695879590938B00A8
:1004200080938A0080918000826B8093800080910D
:100430008100896180938100089580E191E00E94AC
:100440007E0585B1897F85B984B1866084B90895B8
:100450001092F9021092E80210928B0110928A0118
:1004600008952091F9024091E80230E02F5F3F4F5C
:100470002770332750E081E02417350709F080E02A
:100480000895CF93C82F0E943102882331F08091C4
:10049000E8028F5F87708093E802E091F902F0E054
:1004A000EF50FD4FC0838091F9028F5F877080937A
:1004B000F902CF9108951092D5021092E70210929E
:1004C00089011092880108952091D5029091E70248
:1004D00081E0291380E008950E94640281110DC01B
:1004E000E091E702F0E0E751FD4F80819091E70253
:1004F0009F5F97709093E70208958FEF0895109291
:10050000D6021092FA021092870110928601089585
:100510002091D6029091FA0281E0291380E008959B
:100520000E94880281110DC0E091FA02F0E0E952C8
:10053000FD4F80819091FA029F5F97709093FA022D
:1005400008958FEF08951F920F920FB60F92112406
:100550002F933F934F935F936F937F938F939F93CB
:10056000AF932091DF023091E0024091E10250917F
:10057000E2026091E3027091E4028091E5029091C1
:10058000E602A1E00E94DD162093DF023093E00234
:100590004093E1025093E2026093E3027093E4021D
:1005A0008093E5029093E602AF919F918F917F91A6
:1005B0006F915F914F913F912F910F900FBE0F90D0
:1005C0001F9018951F920F920FB60F9211242F9320
:1005D0003F934F935F936F937F938F939F93AF93CB
:1005E000BF93EF93FF932091DF023091E00240919F
:1005F000E1025091E2026091E3027091E402809185
:10060000E5029091E602A1E00E94DD162093DF0250
:100610003093E0024093E1025093E2026093E302E0
:100620007093E4028093E5029093E602E0918B01DF
:100630008E2F90E08631910588F5FC01EC5CFF4F30
:100640000C944D159091F9028091E802981759F198
:100650000E94D601E091E802F0E0EF50FD4F90815A
:100660008091E8028F5F87708093E80290938A01FF
:1006700015C080918A0180FF03C00E94CE0102C094
:100680000E94D60180918A01869580938A0106C0D6
:100690000E94CE0103C010928B0105C080918B0196
:1006A0008F5F80938B01E09189018E2F90E08431E0
:1006B0009105F0F5FC01E65BFF4F0C944D15339965
:1006C0003CC01092880134C0339B32C02EC0809150
:1006D00088018695339902C090E001C090E1892B92
:1006E0008093880125C0339B20C040918801809170
:1006F000D5022091E70290E001968770992730E0BB
:100700008217930731F48091E7028F5F877080939F
:10071000E702E091D502F0E0E751FD4F4083809180
:10072000D5028F5F87708093D5021092890105C032
:10073000809189018F5F80938901E09187018E2FDD
:1007400090E084319105F0F5FC01E25AFF4F0C94E2
:100750004D1531993CC01092860134C0319B32C096
:100760002EC0809186018695319902C090E001C02B
:1007700090E8892B8093860125C0319B20C0409151
:1007800086018091D6022091FA0290E0019687704E
:10079000992730E08217930731F48091FA028F5F36
:1007A00087708093FA02E091D602F0E0E952FD4FA3
:1007B00040838091D6028F5F87708093D60210921B
:1007C000870105C0809187018F5F80938701FF912A
:1007D000EF91BF91AF919F918F917F916F915F91B9
:1007E0004F913F912F910F900FBE0F901F90189532
:1007F000E0E7F0E080818E7F80832091DF023091FE
:10080000E0024091E1025091E2026091E3027091B6
:10081000E4028091E5029091E602A081A160A083AC
:100820000895E0E7F0E080818E7F80833091DF02E1
:100830002091E0028091E1028091E2028091E30246
:100840008091E4028091E5028091E60280818160DE
:100850008083832F922F08950E9428020E945B02BA
:100860000E947F0282E08093B0008CE78093B30007
:1008700085E08093B100E0E7F0E0808182608083D2
:100880000895A2E0B0E0E7E4F4E00C9476169091CD
:10089000900280919102981791F0E0919002F0E01F
:1008A000EE56FD4F80818A83809190028F5F877022
:1008B00089838981809390028A8190E002C08FEFC2
:1008C0009FEF2296E2E00C949216A2E0B0E0EBE6F5
:1008D000F4E00C9476169091900280919102981316
:1008E00003C00E940F06F7CFE0919002F0E0EE56B1
:1008F000FD4F80818A83809190028F5F877089830A
:100900008981809390028A812296E2E00C9492166B
:10091000A1E0B0E0EEE8F4E00C947516182F809199
:100920008E018F5F898390918D018981981303C017
:100930000E940F06F8CFF89480918C01811113C0AA
:100940001093C6003091C1002091C10081E090E079
:1009500001C0880F3A95EAF7822B8093C10081E0AD
:1009600080938C0109C0E0918E01F0E0E157FE4FC9
:100970001083898180938E0178942196E3E00C9412
:1009800091168091910290919002891B8770089531
:1009900080918E0190918D01891B08950E94C80459
:1009A0008095089580918F020895589AE0ECF0E0C8
:1009B0008081826080831092C5008FEC8093C40098
:1009C000E1ECF0E088E180838EE08093C2008081DA
:1009D0008068808380818064808308951F920F9255
:1009E0000FB60F9211242F933F938F939F93EF9302
:1009F000FF93CF93DF931F92CDB7DEB790918E0117
:100A000080918D01981781F0E0918D01F0E0E15720
:100A1000FE4F80818093C60080918D018F5F898316
:100A2000898180938D0112C010928C013091C10098
:100A30002091C10081E090E002C0880F991F3A9593
:100A4000E2F78095909582238093C1000F90DF910B
:100A5000CF91FF91EF919F918F913F912F910F90A7
:100A60000FBE0F901F9018951F920F920FB60F9206
:100A700011248F939F93EF93FF93E09191028091C4
:100A8000C600F0E0EE56FD4F8083809191028F5FAB
:100A900087708093910290919002891305C0809194
:100AA0008F028F5F80938F02FF91EF919F918F91C3
:100AB0000F900FBE0F901F9018950F931F93CF9319
:100AC000DF938C01EB011C161D063CF4F8018191AB
:100AD0008F010E9488042197F6CFDF91CF911F915B
:100AE0000F910895CF93DF93EC018991882319F03A
:100AF0000E948804FACFDF91CF910895CF93DF93BE
:100B0000FC018491EF012196882321F00E94880442
:100B1000FE01F7CFDF91CF9108958A3010F4805D08
:100B200001C0895A0E9488040895CF93C82F8295E6
:100B30008F700E948D058C2F8F700E948D05CF9134
:100B40000895CF93DF93EC018D2F82958F700E94D3
:100B50008D058D2F8F700E948D05CE0124E0969516
:100B600087952A95E1F78F700E948D058C2F8F70E5
:100B70000E948D05DF91CF910895CF92DF92EF9281
:100B8000FF926B017C01DC01CB012CE1B695A795AE
:100B9000979587952A95D1F70E948D058F2D8F7097
:100BA0000E948D05D701C60134E1B695A7959795AA
:100BB00087953A95D1F78F700E948D058E2D8F7095
:100BC0000E948D05D701C6014CE0B695A795979573
:100BD00087954A95D1F78F700E948D058D2D8F7066
:100BE0000E948D05D701C60154E0B695A79597954B
:100BF00087955A95D1F78F700E948D058C2D8F7037
:100C00000E948D05FF90EF90DF90CF90089587E1CF
:100C100091E00E947E05089580E090E00895809123
:100C20009A0290919B02009739F0A89501979093B2
:100C30009B0280939A0201C0289A83B7816083BF88
:100C400083B7817F83BF889583B78E7F83BF0895E5
:100C50008FEF9FEF90939B0280939A020E940F0662
:100C60000895CF93DF93EC010E941104C80FD91FA0
:100C70000E9411049E01281B390B37FD03C00E94FE
:100C80000F06F6CFDF91CF910895009771F001978D
:100C90001816190654F400000000000000000000BF
:100CA0000000000000000000F2CF08958C01EB016D
:100CB0000E940706C8010E947E0580E20E94880407
:100CC000CE010E94A1050E94070688EE93E00E94D3
:100CD0003106289AEDCF9FE088E10FB6F894A895E9
:100CE000809360000FBE9093600080B7806880BFE3
:100CF00078940E942C042898209A8FEF9FEF90936D
:100D00009B0280939A020E940F0608950E94F803A6
:100D100008950E9411040895ECE7F0E09081907F1F
:100D2000908390818F70982B9083EAE7F0E0808128
:100D30008064808308951F920F920FB60F92112442
:100D40002F933F934F935F936F937F938F939F93D3
:100D5000AF93BF93EF93FF93809178002091790038
:100D600090E0922BE0910001F0E0EE0FFF1FE456BF
:100D7000FD4F91838083809100018F5F80930001FC
:100D800080910001833048F4E0910001F0E0EF5BD6
:100D9000FE4F80810E948C0605C080917A00877F7B
:100DA00080937A00FF91EF91BF91AF919F918F91C6
:100DB0007F916F915F914F913F912F910F900FBE57
:100DC0000F901F90189581E080937E0080EC8093B7
:100DD0007C0087E880937A00089510920001EAE78A
:100DE000F0E0808188608083E0910001F0E0EF5BBB
:100DF000FE4F80810E948C0608959091000181E051
:100E0000933009F080E00895CF93C82F833030F0FD
:100E100067EA70E08AE191E00E945606EC2FF0E06C
:100E2000EE0FFF1FE456FD4F80819181CF91089511
:100E3000A0E2B0E0EEE1F7E00C9470166C01409196
:100E4000AE025091AF028AE0E82EF12C8E010F5FC6
:100E50001F4F9A0140E050E060E070E080E090E0D9
:100E60000E943C11C6010E947E0580E20E94880417
:100E7000C8010E94720582E291E00E947E05809185
:100E8000AE029091AF029093AC028093AB02A09619
:100E9000E8E00C948C16A5E0B0E0E1E5F7E00C94F6
:100EA00066160E94FD06882309F403C180E00E94B3
:100EB00004079C838B8381E00E9404074C0182E03D
:100EC0000E9404072B813C812815390528F08217E0
:100ED000930708F400C11CC02B813C8128173907F7
:100EE000B8F48816990608F0FCC02B813C81821664
:100EF000930608F0FAC02817390740F466E970E055
:100F000088E291E00E9456068FEF9FEF9C838B83CF
:100F10000E94ED062B813C81A1ECB6E10E945315A5
:100F20002091A20229831B012C01612C712C430109
:100F3000203408F050C02F5F29832093A202422F53
:100F400050E041505109952F990F990BA090A302A1
:100F5000B090A402C090A502D090A602E090A70293
:100F6000F090A8020091A9021091AA029A01492FBB
:100F7000592F692F792F892F0E946D157901142F10
:100F80005A83B62FA72FF82FE92F9101A20160E015
:100F900070E080E090E006E00E949D1659016A0131
:100FA000762E872E082F992E9701412F5A816B2F6D
:100FB0007A2F8F2F9E2FE72CF82C192D0E94D416F4
:100FC000A980B12CC12CD12CE12CF12C00E010E037
:100FD0000E94F9153DC08FE3A82EB12CC12CD12C55
:100FE000E12CF12C00E010E02091A3023091A4024A
:100FF0004091A5025091A6026091A7027091A802AB
:101000008091A9029091AA020E946D1529833A83CA
:101010004D835B83B62FA72FF82FE92F9101A201F3
:1010200060E070E080E090E006E00E949D165901CB
:101030006A017B018C0129813A814D815B816B2F93
:101040007A2F8F2F9E2F0E94D41606E00E94B8168A
:101050002093A3023093A4024093A5025093A602CA
:101060006093A7027093A8028093A9029093AA02AA
:101070002091A3023091A4024091A5025091A602B2
:101080006091A7027091A8028091A9029091AA0292
:1010900006E00E94B816B901CA0128EE33E040E02C
:1010A00050E00E942B15C9013093AF022093AE028D
:1010B00024C08FE291E00E947E0564E670E08FEF2D
:1010C0009FE30E94AE091092B00286E08093B102C5
:1010D0008FEF9FEF12C02B813C818216930640F068
:1010E00017CF8815990508F411CF9C828B8210CFF9
:1010F0008816990608F4F9CEF8CF2596E2E10C940B
:1011000082160E94E30628985B98539A08950F93DD
:101110001F93E091B1028E2FEE0F990BAA0BBB0B20
:10112000FC013197E730F10520F4EE58FF4F0C94A5
:101130004D15289853980E94ED0681E891E00E9491
:101140007E051092B00281E012C00E944B0701960A
:1011500009F4DEC08091B0028E310CF4B4C08EE789
:1011600091E00E94180728981092B00282E08093C4
:10117000B102CEC00E944B078F3F2FEF920709F4B8
:10118000C7C0893620E19207A8F4853020E1920794
:10119000D8F0A0E0B0E04091AB025091AC0260E02A
:1011A00070E04A5F5F4F6F4F7F4F481759076A07DC
:1011B0007B07FCF489E791E00E9418075398289A6E
:1011C0001092B00283E012C0883B9B4090F4539889
:1011D000289A80E791E00E94180764EF71E08FEF92
:1011E0009FE30E94AE091092B00285E08093B102A5
:1011F00029C04091AE025091AF0260E070E0809152
:10120000AB029091AC02A0E0B0E08A019B010A5FC2
:101210001F4F2F4F3F4F081719072A073B0724F48A
:10122000539884E691E00CC00696A11DB11D841769
:101230009507A607B70734F45B98539A8BE591E0BE
:101240000E9418070E94ED0663C0289A0E944B076F
:10125000AC014F3F8FEF580709F45AC0413321E1E9
:10126000520758F087E591E00E9418075B9A539A5D
:101270008CE38093B00284E07ACF9091B0029C33EB
:1012800024F49F5F9093B00243C02091AB02309151
:10129000AC022E5C3F4F24173507D0F55B98539A6C
:1012A0008EE491E00E94180787E061CF289A809130
:1012B000B0028A3064F464E670E08FEF9FE30E942E
:1012C000AE098091B0028F5F8093B00221C086E4A6
:1012D00091E00E9418075B98539A0E94E3061092CF
:1012E000B10216C0289A14C0289A8DE391E00E949A
:1012F000180764E873E08FEF9FE30E94AE095E9ADF
:10130000459A5F9A539A5B9902C05B9A01C05B98B9
:101310009091B1028091AD02981771F089E391E04C
:101320000E947E058091B1020E948D050E940706F1
:101330008091B1028093AD020E9428061F910F9107
:1013400008958091AE029091AF0208958091B1020C
:1013500008951092FB021092FC020895AC012091B6
:10136000FB028091FC0230E02F5F3F4F2F7033274C
:1013700090E02817390731F49091FC029F5F9F702D
:101380009093FC02E091FB0284E0E89FF0011124BD
:10139000E350FD4F51834083E091FB0284E0E89FDE
:1013A000F0011124E350FD4F738362838091FB02AF
:1013B0008F5F8F708093FB0208958091FC02909163
:1013C000FB02891B80958F7008950895CF93DF935A
:1013D0008091B502813071F19091FB028091FC0205
:1013E000981709F45FC0C091FC02D0E08091FC0224
:1013F0008F5F8F708093FC020E948906FE01EE0FC2
:10140000FF1FEE0FFF1FE350FD4F22813381820F3C
:10141000931F9093B4028093B302808191810097CF
:1014200019F00E94F40102C00E94EC0181E0809357
:10143000B50238C00E9489062091B3023091B402EF
:10144000821B930B97FD2EC09091FB028091FC02B2
:10145000981721F1C091FC02D0E08091FC028F5FCF
:101460008F708093FC020E948906FE01EE0FFF1F21
:10147000EE0FFF1FE350FD4F22813381820F931F38
:101480009093B4028093B30280819181009719F008
:101490000E94F40107C00E94EC0104C00E94EC010C
:1014A0001092B5029091B5028091B202981771F036
:1014B00081E991E00E947E058091B5020E948D0530
:1014C0000E9407068091B5028093B202DF91CF910E
:1014D00008955E9A459A1092B70285E991E00E94BC
:1014E0007E055F980E9489068854944F9093B902B4
:1014F0008093B80281E08093BE02089562E370E0B9
:101500008FEF93E00E94AE0964E670E08FEF9FE0FA
:101510000E94AE0968EC70E08FEF9FE30E94AE0975
:1015200060E273E08FEF9FEF0E94AE0962E370E02C
:1015300080E090E00E94AE090895A5E0B0E0E3EA03
:10154000FAE00C947416082F0E94A412182F802F12
:101550000E94950580E20E948804812F0E949505D3
:101560001F3F29F48FE991E00E947E0549C08BE975
:1015700091E00E947E0581E489834091BA025091F6
:10158000BB026091BC027091BD024A8320910901A7
:1015900080910D018F73922F9295990F990F907CE6
:1015A000982B9B8391E0213009F490E09295990F5C
:1015B000990F907C892B8C831D834F5F5F4F6F4FFA
:1015C0007F4F4093BA025093BB026093BC0270936A
:1015D000BD0265E0CE0101960E94440E8091090192
:1015E00090910A01A0910B01B0910C01892B8A2BDB
:1015F0008B2B31F45E9A0E947E0A81E08093B702C1
:101600002596E4E00C94901687EE91E00E947E050A
:101610000E9489069093B9028093B8020895A5E0CC
:10162000B0E0E5E1FBE00C947016FC0112811F7341
:10163000C12ED12CE12CF12C40910D0150910E01C5
:1016400060910F0170911001C416D506E606F706E9
:1016500091F5018181EE91E00E947E055E9A81E61E
:1016600089830A832091090180910D01322F3295DF
:10167000330F330F307C982F9F73932B9B8391E014
:10168000213009F490E09295990F990F907C892B65
:101690008C831D8365E0CE0101960E94440E882351
:1016A00021F086ED91E00E947E050E947E0A81E095
:1016B0008093B70204C08DED91E00E947E052596CF
:1016C000E8E00C948C16CF92DF92EF92FF92FC012F
:1016D000248140910D0150910E0160910F01709194
:1016E000100182818F7390E0A0E0B0E06A017B017D
:1016F000FFE3CF22DD24EE24FF248C159D05AE05EB
:10170000BF05B9F480ED91E00E947E05809109014A
:1017100090910A01A0910B01B0910C01892B8A2BA9
:101720008B2BF9F05E9A0E947E0A81E08093B702CB
:1017300018C042274F73552766277727452B462B1E
:10174000472B59F489EC91E00E947E0562E370E03A
:101750008FEF93E00E94AE0904C085EC91E00E94F7
:101760007E05FF90EF90DF90CF900895FC012081DF
:101770002F71213011F40E940F0B0895FC0190810C
:101780009F71913021F4CF010E94630B08958FEB7C
:1017900091E00E947E050895FC01908192959695B6
:1017A0009770923031F0933041F4CF010E94BE0B1C
:1017B0000895CF010E94B60B089589EB91E00E9435
:1017C0007E050895A5E0B0E0E8EEFBE00C946B1612
:1017D0000E9489068C018091B8029091B90278012B
:1017E000E81AF90ACE0101966C0185E0F601119222
:1017F0008A95E9F765E0C6010E941A0E782E8823C3
:10180000B9F085EB91E00E947E0556014E01F6E0AD
:101810008F0E911CF50181915F010E949505A8141E
:10182000B904C1F70E940706672DC6010E94CC0BC0
:101830000E94640281110AC00E946C02D82E80EBC3
:1018400091E00E947E058D2D0E949D0A0E948802D3
:1018500081110AC00E949002D82E8BEA91E00E946A
:101860007E058D2D0E949D0AE091BE028E2FEE0F07
:10187000990BAA0BBB0BFC013197E730F10530F453
:10188000E758FF4F8091B7020C944D155E9A08C03F
:10189000882319F00E94690A7BC0F7FC79C045983B
:1018A0000854144F1093B9020093B80282E019C093
:1018B0008111F0CFF7FC6CC05E980854144F109360
:1018C000B9020093B80283E00CC08111E3CFF7FCAA
:1018D0005FC05E980854144F1093B9020093B80289
:1018E00084E08093BE0254C08111D4CF329B36C0B5
:1018F00080910D010E949A12F82E87EA91E00E94D1
:101900007E058F2D0E94950580E20E9488048091BB
:101910000D010E9495050E9407068F2D0E9441022D
:101920005F9A5E9A62E370E08FEF9FE30E94AE09D8
:1019300062E370E08FEF9FE00E94AE0962E370E027
:101940008FEF9FE30E94AE0985E08093BE020C59A1
:101950001F4F1093B9020093B8021AC05F9818C0C5
:10196000811198CFF7FC14C05E985F980C591F4FF7
:101970001093B9020093B80286E0B3CF81118ACFE9
:10198000329904C087E0ADCF811184CFF7FEA8CF94
:101990009091BE028091B602981771F083EA91E0AF
:1019A0000E947E058091BE020E948D050E9407065E
:1019B0008091BE028093B6022596EDE00C948716C6
:1019C00008958091BE020895CF93C82F81E090E0E2
:1019D0000E944506CEBD0DB407FEFDCF8EB5CF915A
:1019E00008958EEE91E00E947E0584B18C6284B9E8
:1019F00080E58CBD089580E090E00E944506089542
:101A00005C980E94E40C8093C7025C9A0E94FB0CD5
:101A10000895CF93C62F5C9880620E94E40C809357
:101A2000C7028C2F0E94E40CC82F5C9A0E94FB0C0A
:101A30008C2FCF91089560E787E00E94090D0895EB
:101A40005C9881EE0E94E40C8093C7025C9A0E942D
:101A5000FB0C0895CF935C980E94E40C8093C7021E
:101A600080E00E94E40CC82F5C9A0E94FB0C8C2F33
:101A7000CF91089544980E94200D0E941B0D6EE0A6
:101A800080E00E94090D0E94FB0C0895FF920F93C5
:101A90001F93CF93DF93EC018B01F42E2981888172
:101AA0008F5F877090E0422F50E08417950719F4FC
:101AB0002F5F277029832A81422F50E084179507D2
:101AC00019F42F5F27702A8325E02F1530F461EA7F
:101AD00070E084E692E00E94560688819E0145E00F
:101AE000849F200D311D1124C9014F2DB80103968B
:101AF0000E94AF1288818F5F87708883CDB7DEB771
:101B0000E5E00C948F16EF92FF921F93CF93DF9333
:101B10007B01C42F5C9880620E94E40C8093C70212
:101B200010E0D0E0812F012E000C990B8C179D073F
:101B300044F4F701E80FF91F80810E94E40C1F5F55
:101B4000F1CF5C9A0E94FB0CDF91CF911F91FF9027
:101B5000EF900895FF920F931F93CF93DF93EC01C3
:101B6000062F449880E090E00E94450681EE0E9496
:101B7000000D80E090E00E9445065C9880EA0E949B
:101B8000E40C8093C702F12C10E08F2D0F2C000C79
:101B9000990B8017910744F4FE01E80FF91F80812B
:101BA0000E94E40CF394F1CF80E090E00E9445069F
:101BB0005C9A80E090E00E944506449A0E94CE0420
:101BC000803480F089E892E00E947E050C0F1D1F92
:101BD000C017D10721F089910E949505F9CF0E9485
:101BE000070607C085E20E9488048AE090E00E9410
:101BF000450644980E94FB0CCDB7DEB7E5E00C9497
:101C00008F1660E487E00E94090D5C9882EE0E94C6
:101C1000E40C8093C7025C9A0E94FB0C65E081E1B2
:101C20000E94090D6FE080E00E94090D0E94FB0CEC
:101C3000449A08950F931F93CF938C01C62F65305C
:101C400031F066E573E081E892E00E94560660910B
:101C5000690380916803861791F085E0689FB00161
:101C6000112465597C4F4C2FC8010E94AF128091FE
:101C700069038F5F8770809369038C2F01C080E0B8
:101C8000CF911F910F9108951F93CF93DF93EC0194
:101C9000162F653031F067E673E089E792E00E9425
:101CA000560680913D038F5F877090E020913E0340
:101CB00030E08217930731F48CE692E00E947E05B3
:101CC0008FEF18C0412FBE018DE393E00E94460DB7
:101CD00080913D038F5F877090E020913E0330E05C
:101CE0008217930731F0412FBE018DE393E00E94EC
:101CF000460D80E0DF91CF911F910895EDE3F3E071
:101D000081819081891B809587700895CF93C82F1A
:101D10000E9489064091C1025091C2026FE1649F06
:101D20009001659F300D1124820F931F9093C20282
:101D30008093C1026C2F70E00E941715CF91089517
:101D400087E592E00E947E050E94F10CE8E6F3E050
:101D5000108211821282EDE3F3E01082118212826E
:101D600044983C9A8AE090E00E9445065C9A549A16
:101D70008AE090E00E9445065A9A8AE090E00E942C
:101D800045060E941B0D8AE090E00E94450645E052
:101D900069E471E08AE00E94830D45E069E471E046
:101DA00080E10E94830D61E082E00E94090D6AE4F7
:101DB00085E00E94090D60E081E00E94090D60E06D
:101DC00084E00E94090D0E94890688579C4E9093DA
:101DD000CB028093CA020895A5E0B0E0E2EFFEE0F6
:101DE0000C9469160E9489068C018091CA02909118
:101DF000CB027801E81AF90A8FEF0E94000DD0900B
:101E0000CC028D2D90E08830910508F0C5C1FC0111
:101E1000E058FF4F0C944D15F7FCCDC18FEF0E9499
:101E2000000D8091CC028F5F8093CC021092C9028A
:101E30001092C80252C00E94CE0487FFBCC1F0902D
:101E4000C80280E1F81609F4DCC18F1548F099E06A
:101E50009F1508F0D8C1EAE0FE1609F4D2C129C0E6
:101E6000F7E1FF1609F4CFC1FF1528F081E1F8165C
:101E700009F4C9C11EC084EE8F0D8230D0F4C3C1F5
:101E80005C9A0E94FB0C8DEF91E00E947E058F2DE5
:101E90000E94950580E20E9488047401F7018191F7
:101EA0007F010E9495058E2D88198D15B8F30E942B
:101EB00007068091C8029091C90201969093C902C9
:101EC0008093C802809764F01092C9021092C802F1
:101ED0008091CC028F5F8093CC0208511C4F67C168
:101EE0000C591F4F64C1F7FC66C12BC1F7FC63C1DD
:101EF00085E0E4E4F1E0DE01119601900D928A950F
:101F0000E1F73BC18091C70284FF13C08EE492E0E9
:101F10000E947E050E941B0D0E94200DC8010296A2
:101F20009093CB028093CA028091CC028F5F809302
:101F3000CC028091C70285FF11C084E492E00E9428
:101F40007E050E941B0DC80102969093CB028093E0
:101F5000CA028091CC028F5F8093CC021E141F04B2
:101F60000CF029C18AE392E00E947E050E941B0DBD
:101F70000E5F1F4F1093CB020093CA028091CC02D8
:101F80008F5F07C1F7FC17C10E94010E80E20E941B
:101F9000860E0E5F1F4F080F111DECCF8091C702F8
:101FA00084FF08C08AE292E00E947E0560E187E03B
:101FB0000E94090D8091C70285FF08C089E192E067
:101FC0000E947E0560E287E00E94090D8091C702B1
:101FD00086FF23C0CE0101966C0185E0F6011192C7
:101FE0008A95E9F78091C7028E70A82EB12CB5941E
:101FF000A7948A2CF3E0AF16E1F0FA1538F081E0EF
:10200000A81699F092E0A91691F00DC0E4E0AE1682
:1020100091F0F5E0AF1689F006C087E10E942A0D25
:1020200080FFD8CF86C081E109C082E107C083E18B
:1020300005C084E103C085E101C086E10E942A0D4C
:10204000982E8091C402891104C08091C302881621
:1020500091F080E70E9488048A2D0E948D0580E21D
:102060000E948804892D0E9495050E94070690927F
:10207000C402A092C3025C9881E60E94E40C8093A3
:10208000C70236014E0186E0880E911C560180E0A1
:102090000E94E40CF50181935F018E169F06B9F74B
:1020A0005C9A0E94FB0C60E487E00E94090DB090EE
:1020B0006A03A12C95E0592E80916803B81689F027
:1020C0005B9CB001112465597C4F45E0C6010E941C
:1020D000B912811101C0A39481E08B0D8770B82ED5
:1020E000EBCFAA2029F084E192E00E947E051CC07B
:1020F00045E0B60188E693E00E94460D0E94CE04BA
:10210000803478F080E192E00E947E05F3018191B5
:102110003F010E94950586149704C1F70E940706A7
:1021200003C084E20E9488048091C0028F5F809384
:10213000C002F7FC40C090913D0380913E03981788
:10214000B1F10E943A0D14CFF7FC35C060913E0307
:1021500080913D03861789F0F5E06F9FB00111244F
:10216000605C7C4F45E0CE0101960E94AF128091E9
:102170003E038F5F877080933E0365E0CE0101963A
:102180000E94AA0D08511C4F1093CB020093CA0263
:1021900084E08093CC020FC0F7FC0DC086E092E093
:1021A0000E947E058FEF0E94000D08571C4E109371
:1021B000CB020093CA029091CC028091C602981380
:1021C00006C09091C7028091C5029817C9F182E0BC
:1021D00092E00E947E058091CC020E948D0580E2F3
:1021E0000E9488048091C7020E9495050E940706FC
:1021F0008091CC028093C6028091C7028093C50271
:102200001FC085E0D82E5C988F2D0E94E40C80932F
:10221000C702E12C6D2C712CCE0101964C01AE2C25
:102220000E2C000CBB08A614B7040CF029CE80E0DD
:102230000E94E40CF401EA0DFB1D8083E394EFCFD0
:102240002596EFE00C9485168091C0029091BF0214
:10225000891719F08093BF020895909168038091C7
:102260006903981308C080916A03981721F08F5F63
:10227000877080936A030895AAE1B0E0E2E4F1E197
:102280000C94661639014A016A8F798F8987492E25
:102290001801FB86EA86A0E00E94E91631F480E38B
:1022A000D8018C9311961C92C9C06A8D798D89854D
:1022B000A0E00E94E9167CF4EA85FB853A9759F480
:1022C0000E94561639014A016A8F798F8987492EF3
:1022D000F1E0FE8701C01E863D862C86388E2F8A4F
:1022E0001F86188A198A1A8A1B8A1C8A1D8A1E8AC6
:1022F0005B84550C5508AA84BB84C52CD52CE52CD1
:10230000F52C052D152D9301A4016A8D798D8985F4
:10231000942D0E94C615E22FD32E7A018B01B82F7F
:10232000F92F2F85388949895A896B897C898D894C
:102330009E89A1E00E94DD1629833A834B835C834A
:102340006D837E838F8398872E2F3D2DA701B80143
:102350008B2F9F2FA9E00E94E91619F014F0E95A7B
:1023600001C0E05DAF89B88DED93B88FAF8BAA84C3
:10237000BB84C52CD52CE52CF52C052D152D9301F2
:10238000A4016A8D798D8985942D0E94C815390123
:102390004A016A8F798F8987492EA0E00E94E91649
:1023A00089F089818F879A81988BAB81A98BBC81B9
:1023B000BA8BED81EB8BFE81FC8B8F818D8B9885A9
:1023C0009E8B99CFBE85BB23C9F02F85388949895B
:1023D0005A896B897C898D899E89A2E00E94DD16CD
:1023E000E981FA81E20DF31DADE2A08329833A83EE
:1023F0004B835C836D837E838F83988749815A8169
:10240000FA01E20DF31D1082CF0120E030E04150CF
:102410005109BA01621B730B261737077CF4EC8550
:10242000FD8560810197FC017081AC85BD857D9340
:10243000BD87AC8760832F5F3F4FEBCFC1016A96AA
:10244000E2E10C948216A3E0B0E0E9E2F2E10C9440
:1024500066169B838A8377247394812C912C412C5C
:10246000312C212C512C612CEA81FB81FB83EA83E6
:1024700081918032D9F38D32C1F4EA81FB813196AA
:10248000FB83EA83272D382D492D542D632D722D82
:10249000852D962D0E945616722E832E942E452E33
:1024A000362E272E582E692EDFCF8B3211F4FB8368
:1024B000EA8320E030E040E050E060E070E080E05F
:1024C00090E0EA81FB81A191FB83EA83A983EA2F53
:1024D000E053EA3008F5EAE0AE2EB12CC12CD12C45
:1024E000E12CF12C00E010E00E946D1559016A0109
:1024F0007B018C01F9814F2FFF0F550B4053510980
:10250000952F990F990B9A01492F592F692F792FE0
:10251000892F0E94D416D5CFA72CB82CC92CD42C27
:10252000E32CF22C052D162D0E946D152396E2E169
:102530000C9482168A3130F4E82FF0E0E559FE4F12
:10254000808108958FEF089581508D3130F4E82F08
:10255000F0E0E25BFE4F808108958FEF0895FB016C
:10256000442331F02191DC012D93CD014150F8CF6E
:102570000895DC01FB01442331F09D918191981B6A
:1025800021F44150F8CF80E00895892F0895A0E20A
:10259000B0E0EDECF2E10C9472168B010E947E0526
:1025A00080E20E948804A8018AE0E82EF12C8E01C6
:1025B0000F5F1F4F9A0140E050E060E070E080E064
:1025C00090E00E943C11C8010E9472058AE992E0E5
:1025D0000E947E05A096E6E00C948E161092CD0225
:1025E00008950E94410497FDD4C08032910584F083
:1025F0002091CD02203218F084ED92E0BFC0E22F8E
:10260000F0E0ED56FC4F80832F5F2093CD020895BC
:102610008A30910521F08D30910509F0B2C0E0912A
:10262000CD02F0E0ED56FC4F1082A3E9B3E0FD01CE
:102630008D918032E1F38F3609F451C03CF4853638
:1026400069F0873609F098C031960BC0823709F4DB
:102650004DC0833709F090C031964DC00E942914B7
:1026600096C081918032E9F3893609F164F48436A9
:10267000B9F0873689F50E94E10C682F880F770B37
:1026800084EB92E062C08037F9F08637B9F08E367D
:1026900019F560910D0170910E018FEA92E055C01D
:1026A0006091090170910A0189EB92E04EC060913E
:1026B00005017091060181EB92E047C00E94A109DB
:1026C000BC0187EA92E041C00E94A609682F880FEA
:1026D000770B81EA92E039C08DE992E04FC061E961
:1026E00070E08AEC92E00E94560651C081EC92E0C4
:1026F0000E947E05FFCF9F0191919032E1F39936C0
:10270000A1F09E3629F19436A1F5CF010E94231243
:102710002093090130930A0140930B0150930C015F
:10272000622F732F86E992E010C0C90101960E94C2
:102730002312209305013093060140930701509323
:102740000801622F732F83E992E00E94C7121FC015
:10275000C90101960E94231220930D0130930E01AE
:1027600040930F0150931001622F732F81E992E083
:10277000ECCF8DE892E002C08DEB92E00E947E05E6
:1027800006C08B31910509F4FFCF0E949505109288
:10279000CD020895A0E4B0E0E0EDF3E10C946C16F6
:1027A00040E450E0BC01CE0101960E940917219639
:1027B000CCACDDACEEACFFAC219721961CAE1DAECF
:1027C0001EAE1FAE2197FE01319620E030E0A90138
:1027D0008E010F5B1F4FAFE1B0E00E9462152191A7
:1027E0004B015C01820E911CA11CB11CA50194013E
:1027F000E017F10781F789809A80AB80BC808091D7
:10280000010190910201A0910301B0910401881689
:102810009906AA06BB0619F080EF92E007C0C2161F
:10282000D306E406F50631F088ED92E00E947E05BD
:102830008FEF0AC080E4FE013196A1E0B1E0019083
:102840000D928A95E1F780E0C05CDF4FECE00C94DC
:102850008816EF92FF920F931F9310923D011092F2
:102860003E0110923F0110924001E1E0F1E020E0D2
:1028700030E0A901AFE1B0E00E94621521917B0137
:102880008C01E20EF11C011D111DA801970101E050
:10289000E134F00779F720933D0130933E014093F6
:1028A0003F015093400140E450E060E070E081E07F
:1028B00091E00E94191740E450E060E072E081E08E
:1028C00091E00E94191789E393E00E947E051F9111
:1028D0000F91FF90EF90089580E090E00E94CA135E
:1028E000811103C086E293E00BC080E092E00E9479
:1028F000CA13811103C083E193E002C085E093E035
:102900000E947E0508950E946B060E94D5048EE405
:1029100093E00E947E050E940F0688EC90E00E94E2
:1029200031060E94E3010E941D02569A579A3D9A71
:10293000429A419A439A0E946C140E94E50988ECDD
:1029400090E00E9431060E94810888EC90E00E948D
:1029500031060E94A00E88EC90E00E9431060E9491
:10296000040B88EC90E00E9431060E94EE1288EC85
:1029700090E00E94310687E493E00E947E050E9469
:10298000890688519C4F9093D4028093D302C2E071
:102990000E94F1120E94EC0E0E94E20B0E94E609D6
:1029A0008091CE02823001F13CF4882361F08130C5
:1029B00031F5C093CE0238C08330F1F08430F9F4A1
:1029C0000E94E00C13C00E9489062091D30230912E
:1029D000D402821B930B97FD27C028513C4F3093A4
:1029E000D4022093D30202C00E9487088091CE02B5
:1029F0008F5F8093CE0218C00E942411F7CF809180
:102A0000CF029091D002A091D102B091D202019652
:102A1000A11DB11D8093CF029093D002A093D1024B
:102A2000B093D2021092CE020E940F06B1CF97FB54
:102A3000072E16F4009407D077FD09D00E94F516F2
:102A400007FC05D03EF4909581959F4F08957095B1
:102A500061957F4F0895A1E21A2EAA1BBB1BFD01B1
:102A60000DC0AA1FBB1FEE1FFF1FA217B307E4076D
:102A7000F50720F0A21BB30BE40BF50B661F771FC5
:102A8000881F991F1A9469F76095709580959095A5
:102A90009B01AC01BD01CF010895EE0FFF1F059012
:102AA000F491E02D0994A29FB001B39FC001A39FB0
:102AB000700D811D1124911DB29F700D811D112477
:102AC000911D08950E945315A59F900DB49F900DE0
:102AD000A49F800D911D11240895DF93CF931F9320
:102AE0000F939A9DF02D219FF00D8B9DF00D8A9DE7
:102AF000E02DF10D039FF00D029FE00DF11D4E9DA5
:102B0000E00DF11D5E9DF00D4F9DF00D7F936F93D5
:102B1000BF92AF925F934F93D5010E9453158B01E3
:102B2000AC01D7010E945315EB01E80FF91FD60144
:102B30000E94BD152F913F91D6010E945315C60FDB
:102B4000D71FE81FF91FAF91BF910E94BD152F91AC
:102B50003F910E945315C60FD71FE81FF91FD601DA
:102B60000E945315E60FF71F9801BE01CF011124F3
:102B70000F911F91CF91DF9108950E945315460F39
:102B8000571FC81FD91F08F431960895689401C0D3
:102B9000E894F92FF12B12F00C94FA15A0E0B0E0B4
:102BA000E4EDF5E10C946C16092E059422F40E94D4
:102BB0005616112392F4F0E80F26FFEFE094F094FC
:102BC00000951095B094C094D094A194BF0ACF0AF8
:102BD000DF0AEF0AFF0A0F0B1F0B0E94051607FC06
:102BE0000E945616CDB7DEB7ECE00C9488166894B8
:102BF00001C0E8948F929F92CF93DF930E940516B5
:102C0000DF91CF919F908F90089588249924F401AB
:102C1000E401B0E49F93AA279A158B049C04ED0568
:102C2000FE05CF05D007A10798F4AD2FDC2FCF2FDD
:102C3000FE2FE92D982C892E982F872F762F652F20
:102C4000542F432F322F2227B85031F7BF9127C07E
:102C50001B2EBF91BB27220F331F441F551F661F1A
:102C6000771F881F991F881C991CEE1FFF1FCC1F00
:102C7000DD1FAA1FBB1F8A149B04EC05FD05CE05B2
:102C8000DF05A007B10748F08A189B08EC09FD0989
:102C9000CE09DF09A00BB10B21601A94E1F62EF4E6
:102CA0009401AF01BE01CD01000C089560957095AF
:102CB0008095909530954095509521953F4F4F4F79
:102CC0005F4F6F4F7F4F8F4F9F4F08952F923F92CF
:102CD0004F925F926F927F928F929F92AF92BF922C
:102CE000CF92DF92EF92FF920F931F93CF93DF93D8
:102CF000CDB7DEB7CA1BDB0B0FB6F894DEBF0FBE35
:102D0000CDBF09942A88398848885F846E847D8481
:102D10008C849B84AA84B984C884DF80EE80FD8083
:102D20000C811B81AA81B981CE0FD11D0FB6F894F9
:102D3000DEBF0FBECDBFED0108950F93083090F0B8
:102D4000982F872F762F652F542F432F322F22272E
:102D50000850F4CF220F331F441F551F661F771FE3
:102D6000881F991F0A95B2F70F91089597FB10F8E5
:102D7000169400080F93083098F00850232F342F32
:102D8000452F562F672F782F892F902DF4CF05943C
:102D90009795879577956795579547953795279593
:102DA0000A95AAF70F9108952A0D3B1D4C1D5D1D34
:102DB0006E1D7F1D801F911F08950024A7FD0094A4
:102DC0002A0F301D401D501D601D701D801D901D5F
:102DD00008950024A7FD00942A17300540055005EA
:102DE00060057005800590050895AA1BBB1B51E185
:102DF00007C0AA1FBB1FA617B70710F0A61BB70B6B
:102E0000881F991F5A95A9F780959095BC01CD010F
:102E10000895DC01CB01FC01F999FECF06C0F2BD9B
:102E2000E1BDF89A319600B40D9241505040B8F788
:102E30000895DC01CB0103C02D910E94241741505D
:102E40005040D0F70895262FF999FECF1FBA92BDB2
:102E500081BD20BD0FB6F894FA9AF99A0FBE01967B
:062E60000895F894FFCF75
:102E6600FF2101000000000000000000000000003B
:102E7600000000000000000000000000000000004C
:102E8600000000000000000000000000000000003C
:102E9600000000000000000000000000000000002C
:102EA6000000000048656C6C6F9C33D39EBC0B041D
:102EB60013010F0817000D061503110A19FF0C055B
:102EC6001402100918FF0E0716FF120804140C024C
:102ED600120A1A06160E0111091905150D1D0313FE
:062EE6000B1B07170F0093
:00000001FF
